:020000040800F2
:10000000181B012081020008E91B0008CB11000821
:10001000291B00085D0900080533000800000000E6
:10002000000000000000000000000000212C00087B
:10003000490E000800000000F91E0008672C0008A7
:100040009B0200089B0200089B020008B9240008DC
:100050009B0200089B0200089B0200089B0200080C
:100060009B0200089B0200089B0200089B020008FC
:100070009B0200089B0200089B0200089B020008EC
:100080009B0200089B0200089B0200080000000081
:100090000000000000000000000000009B020008BB
:1000A0009B0200089B0200089B0200089B020008BC
:1000B0009B020008E12D00089B0200089B0200083B
:1000C0009B0200089B0200089B0200089B0200089C
:1000D0009B020008953100089B0200080000000008
:1000E0004D0E00084D2100089B0200080000000092
:1000F0000000000000000000000000009B0200085B
:10010000000000009B020008092E00089B02000866
:1001100000000000000000000000000000000000DF
:100120009B0200089B0200089B0200089B0200083B
:100130009B0200080000000000000000000000001A
:100140000000000000000000000000009B0200080A
:10015000350B00089B0200089B0200089B02000868
:100160009B0200089B020008000000000000000045
:10017000000000000000000000000000000000007F
:10018000000000009B0200080000000000000000CA
:100190009B0200089B02000800F002F800F061F8E2
:1001A0000AA090E8000C82448344AAF10107DA45D2
:1001B00001D100F056F8AFF2090EBAE80F0013F0C3
:1001C000010F18BFFB1A43F00103184778CE070050
:1001D00098CE07000A444FF0000C10F8013B13F0D2
:1001E000070408BF10F8014B1D1108BF10F8015B90
:1001F000641E05D010F8016B641E01F8016BF9D183
:1002000013F0080F1EBF10F8014BAD1C0C1B09D1D9
:100210006D1E58BF01F801CBFAD505E014F8016B4B
:1002200001F8016B6D1EF9D59142D6D370470000DD
:100230000023002400250026103A28BF78C1FBD8EF
:10024000520728BF30C148BF0B607047642900F0D7
:10025000BB80002070471FB52EF0D1FD1FBD10B52B
:1002600010BD00F04DFB1146FFF7F5FF28F00CFC28
:1002700000F06BFB03B4FFF7F2FF03BC06F08BFF4B
:100280000948804709480047FEE7FEE7FEE7FEE72A
:10029000FEE7FEE7FEE7FEE7FEE7FEE70448054966
:1002A000054A064B70470000692C000899010008B8
:1002B00018070120181B0120180901201809012026
:1002C000704753EA020C00F069802DE9F04B4FF0C3
:1002D0000006002B1FBFB3FA83F503FA05F424FAD6
:1002E00005F65E4012BF1643B2FA82F502FA05F433
:1002F000C5F120051EBF22FA05FC44EA0C04203596
:1003000056EA044C4FEA144418BF641C4FF000082E
:100310004FF00009904271EB030C39D3002919BF4B
:10032000B1FA81F701FA07F6B0FA80F700FA07F69A
:10033000C7F120071EBF20FA07FC46EA0C0620374B
:10034000B6FBF4FCA7EB0507103F07F01F0BCBF142
:1003500020060CFA0BFB2CFA06F644BFB346002627
:10036000202FA4BF5E464FF0000B5BEA060C08BFCF
:100370004FF0010B19EB0B09ABFB027C48EB0608B5
:10038000C01B06FB02CC0BFB03CC71EB0C01C1E7DD
:100390000B46024641464846BDE8F08B13B54FF088
:1003A00000004FF00001AFF30080BDE81C40704733
:1003B0000FB4044910B503AA029800F039FA10BC32
:1003C0005DF814FBB40100202DE9F041064600243D
:1003D00010687529314616A510D0AFF300800028AB
:1003E00002DA404213A507E031688A0701D512A559
:1003F00002E0490704D511A5012401E0AFF3008014
:1004000000210A2206F1240709E0B0FBF2FCB0FB50
:10041000F2F302FB1C00303078541846491C0028C7
:10042000F3D123462A463046BDE8F04100F0A7B993
:10043000000000002D0000002B0000002000000044
:100440002DE9F05F894604464FF0000ADFF824B139
:10045000FB44C0F820A02046E168884700287DD0F2
:10046000252806D0D4E901219047206A401C20624B
:10047000F1E700255F462046E168884720280646C8
:1004800007DB312E05D2B81910F8200C08B105434E
:10049000F1E7A80701D525F00405C4F81CA0002742
:1004A000C4F818A02A2E09D0304604F025FD38B330
:1004B00004EB8708303EC8F8186019E059F8041BAF
:1004C000204604EB87029161E1688847012F0646C8
:1004D00018D1E069002820DA25F020051DE0D8F8C1
:1004E000180000EB800006EB40003038C8F8180018
:1004F0002046E1688847064604F0FEFC0028EED15D
:10050000012F0AD02E2E08D12046E16888477F1C93
:100510000646022F45F02005C4DBA069002803DA57
:10052000404245F00105A061E80701D025F0100523
:10053000A6B1A6F14100192802D8203645F400657D
:100540004A463146204625604D46FFF77FFE60B1A2
:10055000012807D0ED1D25F0070000E007E000F1BD
:10056000080978E705F1040975E730467AE7206A5B
:10057000BDE8F09F9AC5070040EA010310B59B074C
:100580000FD1042A0DD310C808C9121F9C42F8D0FD
:1005900020BA19BA884201D9012010BD4FF0FF30AE
:1005A00010BD1AB1D30703D0521C07E0002010BDC4
:1005B00010F8013B11F8014B1B1B07D110F8013B50
:1005C00011F8014B1B1B01D1921EF1D1184610BD31
:1005D00040EA0103024630B59B0710D14FF00134C9
:1005E00000E008C208C91D1B9D4315EAC41FF8D0CE
:1005F00013F0FF0102F8011B0DD01B0AF8E711F8F8
:10060000013B002B02F8013B05D011F8013B002B08
:1006100002F8013BF3D130BD10B5431C02E010F8E5
:10062000011B71B18107FAD14FF0013202C88C1A57
:100630008C4314EAC211F9D0C01A0A0603D0C01EB6
:1006400010BDC01A10BD0A0401D0801E10BD0902E1
:10065000FCD0401E10BD032A40F2308010F0030C85
:1006600000F0158011F8013BBCF1020F624498BF05
:1006700011F801CB00F8013B38BF11F8013BA2F1A2
:10068000040298BF00F801CB38BF00F8013B11F01D
:10069000030300F0DF80083AC0F0088051F8043B03
:1006A000083A51F804CBA0E80810F5E7121D5CBF2A
:1006B00051F8043B40F8043BAFF30080D20724BF5D
:1006C00011F8013B11F801CB48BF11F8012B24BFF1
:1006D00000F8013B00F801CB48BF00F8012B704740
:1006E0004FF0013C50F8042B51F8043B9A4221D1C1
:1006F000A2EB0C03934313EACC1317D150F8042B4D
:1007000051F8043B9A4215D1A2EB0C03934313EA30
:10071000CC130BD150F8042B51F8043B9A4209D169
:10072000A2EB0C03934313EACC13DBD04FF0000091
:10073000704700BFD01A01BAB1FA81F101F0180177
:1007400022FA01F0CB40C1F12001DBB2C0B2C01AE5
:100750002CFA01F3D11A914311EAC311E6D1704783
:10076000704770477047704710B500F0A5F80068F3
:1007700010BD10B5044600F09FF8046010BD2DE9CF
:10078000F0470D4699469246044600F12408016858
:10079000880604D5E06921F01001216000E0012005
:1007A000A84201DD471B00E00027A1697A1902EB8E
:1007B0000900081AA0612078C00602D42046AFF3D1
:1007C0000080002608E0D4E901211AF806009047CD
:1007D000206A401C761C20624E45F4DB2078C0065F
:1007E0000AD52046AFF3008006E0D4E9012130208D
:1007F0009047206A401C2062381EA7F10107F4DCF4
:1008000007E0D4E9012118F805009047206A401C50
:100810002062281EA5F10105F3DC2046AFF300801D
:100820002078000602D50220BDE8F0870120FBE712
:10083000074B70B50D467B4400F047F80446284648
:1008400000F056F810B14FF0FF3070BD204670BD7B
:100850002F01010010B5203AC0F00B80B1E818500C
:10086000203AA0E81850B1E81850A0E81850BFF49A
:10087000F5AF5FEA027C24BFB1E81850A0E8185039
:1008800044BF18C918C0BDE810405FEA827C24BF8D
:1008900051F8043B40F8043B08BF7047D20728BF1B
:1008A00031F8023B48BF11F8012B28BF20F8023B6A
:1008B00048BF00F8012B704700487047B806012078
:1008C00001694A1C02610878704700B58FB0CDE914
:1008D00001310021059105497944CDE90310114604
:1008E0006846FFF7ADFD0FB000BD0000E5FFFFFF5C
:1008F000007B00F08000704700487047B806012078
:100900007546FFF7F9FFAE4605006946534620F0ED
:100910000700854618B020B5FFF7C0FCBDE82040B1
:100920004FF000064FF000074FF000084FF0000BAB
:1009300021F00701AC46ACE8C009ACE8C009ACE85E
:10094000C009ACE8C0098D46704710B50446AFF346
:1009500000802046BDE81040FFF78CBCFEE7000099
:10096000F0B585B00121022001F01AFB01218803B6
:1009700001F03AFB0C21012002F053F9022001247E
:1009800000908DF8044000258DF8065003208DF866
:100990000500154F8DF807406946384600F098FB72
:1009A00026038DF8045000968DF8074069463846B6
:1009B00000F08EFB8DF80C500C208DF80D00029687
:1009C0008DF80E4002A800F063FA28208DF8100080
:1009D0008DF811408DF812408DF8134004A801F0F5
:1009E00041FA05B0F0BD00000004024010B5FFF769
:1009F000B7FF084C0020C4F884020A2004F52174D3
:100A000008F090FB01202060BDE81040322008F083
:100A100089BB00000080404210B582B000F078FC35
:100A20002A2000F04FFC00F0A3FC032000F04AFC59
:100A300000F09EFC00F06CFC2B2000F043FC00F06A
:100A400097FC012000F0E4FB8DF80100012000F08C
:100A5000DFFB8DF80200012000F0DAFB8DF80300C7
:100A6000002000F0D5FB8DF8040000F069FC0124A3
:100A700000F04EFC2A2000F025FC00F079FC204616
:100A800000F020FC00F074FC00F042FC2B2000F091
:100A900019FC00F06DFC002000F0BAFB8DF800009E
:100AA00000F04EFC0D4A9DF8000010709DF80110FA
:100AB0009DF8020001F00F0140EA01219DF803308A
:100AC0009DF8040003F00F0340EA0320F0293EBF25
:100AD000B0F58C7F5180908002B010BD12000020D4
:100AE00010B500F015FCC42000F0ECFB00F040FC59
:100AF0000A2000F0E7FB00F03BFC002000F0E2FBE6
:100B000000F036FC00F01CFC00F002FCC42000F0F9
:100B1000D9FB00F02DFC082000F0D4FB00F028FCED
:100B2000082000F0CFFB00F023FCBDE8104000F0EF
:100B300007BC000070B5094C094D2146284600F05D
:100B4000FFF8002808BF70BD0648806816F03CFD1D
:100B500021462846BDE8704000F006B80088002015
:100B600088640240C8010020064A904234BF06480B
:100B7000064811F0005F064A01EA020114BFC16095
:100B800081607047106402400060024000640240CF
:100B90007D0F7D0F0029016814BF41F0010121F094
:100BA00001010160704700002DE9F003016821F0A8
:100BB000010101600021016041608160C16001614B
:100BC00021214161444A45494FF03D08904202BF0E
:100BD000C1F80880BDE8F0037047414A4FF47464DF
:100BE000904202BF8C60BDE8F00370473D4A4FF46D
:100BF0007415904202BF8D60BDE8F00370473A4A19
:100C00004FF07466904202BF8E60BDE8F0037047FB
:100C1000364B374A984202BFCA60BDE8F0037047BE
:100C2000DFF8D0C0344B604502BFCB60BDE8F003B5
:100C30007047324FDFF8C8C0B84202BFC1F80CC0DD
:100C4000BDE8F0037047DFF8BC904FF03D574845D2
:100C500002BFCF60BDE8F0037047DFF8AC902B49CE
:100C6000484502BFC1F80080BDE8F0037047DFF8D7
:100C7000A080404502BF0C60BDE8F0037047254CE2
:100C8000A04202BF0D60BDE8F0037047224CA042B5
:100C900002BF0E60BDE8F0037047204C2049A0421F
:100CA00002BF0A60BDE8F00370471E4A904202BFCF
:100CB0000B60BDE8F00370471B4A904202BFC1F8C9
:100CC00000C0BDE8F0037047184A904208BF0F60AB
:100CD000BDE8F00370470000106002400060024071
:100CE000286002404060024058600240706002404C
:100CF0003D00002088600240400F0020A0600240BC
:100D000000003D20B86002401064024008640240C8
:100D1000286402404064024058640240706402400B
:100D20000C64024088640240A0640240B86402403F
:100D300001460020096811F0010F18BF012070471B
:100D4000124A0023904234BF114A124ADFF848C0C9
:100D500011EA0C0F04BF406900F0800006D04FF08C
:100D60001E0C00680CEAD12C00EA0C0011F0005FA8
:100D700014BF52681268DFF824C002EA0C020A426B
:100D80001CBF002801231846704700001064024071
:100D900000600240006402403C0F3C0F7D0F7D0F5D
:100DA00011F0800F07D04369002A0CBF23F08003A5
:100DB00043F080034361802908BF704701F01E01A2
:100DC000002A02680CBF22EA01011143016070474A
:100DD00010B402681B4BD1F80CC01A400B6843EAF0
:100DE0000C03D1E905C44CEA040C43EA0C03D1F826
:100DF0001CC043EA0C03D1F820C043EA0C03D1F82D
:100E000024C043EA0C03D1F828C043EA0C03D1F80C
:100E100034C043EA0C03D1F838C043EA0C031A4348
:100E200002604269D1E90B3C22F0070243EA0C035D
:100E30001A4342610A6942604A6882608968C160F7
:100E400010BC70473F801CF07047000010B54FF495
:100E5000805000F013F8012801D104494870BDE822
:100E600010404FF4805000F003B800001200002042
:100E70000149086070470000143C0140034A0146E4
:100E8000002012680A4218BF01207047143C01403C
:100E90008379214A0168002B34D0136823EA0101C9
:100EA0001160111D0A6803689A430A60017901F113
:100EB000804101F59E310A6803681A430A60174AA7
:100EC0001168036899431160131D1968D0F800C0B8
:100ED00021EA0C0119604179102908D001F1804103
:100EE00001F59E310A680068104308607047116878
:100EF000D0F800C041EA0C0111601968006808438D
:100F000018607047007900F1804000F59E3002685B
:100F100022EA010101607047003C0140083C0140A9
:100F20002DE9F0410C462DED048B07469FED5A9AB2
:100F3000B0EE498A00F033F900EE100AB8EEC00AAC
:100F4000DFED569A0220C0EE298A01F087FD0646A1
:100F5000012001F083FD0546002001F07FFD45EAF8
:100F6000002046EA002010F4000F18BF40F07F4038
:100F700000EE100A4A484B4AF8EEC00AB0F90A10CF
:100F800080EEA90A00EE901AB0F90E1001EE101AC8
:100F9000F8EEE00AB0F90610B8EEC11A40EE010A08
:100FA00090ED051A28EE802AB8EEC11A00EE201A3C
:100FB000D0ED040AF8EEE00A40EE010A01EE101A44
:100FC000B0F90810B8EEC11A48EE810A01EE101A05
:100FD000B0F90C1001EE901AB8EEC11AF8EEE11A51
:100FE00000EE211A42EE010AC7ED000A017802EB79
:100FF0008103491CC9B2C3ED000A01701E293CBF20
:10100000BDEC048BBDE8F08100210170084602EBC5
:101010008001401C91ED000AC0B21E2830EE088A03
:10102000F5D3B3EE0E0A9FED201AC8EE000A80EE4B
:10103000810AB5EEC00AF1EE10FA25DD9FED1B1A0C
:10104000C1EE000A10EE900A2DF068FE41EC100B84
:101050009FED171B02F0D4FB9FED171B51EC100BFB
:1010600053EC112B2DF070FD9FED151B53EC112B44
:101070002DF05EFB9FED141B53EC112B2DF000F9AE
:101080002DF010F809EE100A84ED009ABDEC048BE7
:10109000BDE8F08100000000000000000000C04931
:1010A00018000020680400200000C842CDEC7D44F8
:1010B000000000808A5AC83F000000000000F03F96
:1010C0000000006066A2724000000080BE9F7A3F70
:1010D0002DE9F0010022012603270B6806FA02FC25
:1010E00003EA0C03634538D10568530007FA03F49B
:1010F000A54305600D79D0F800809D4045EA0805BC
:1011000005600D79012D18BF022D17D18568A54303
:1011100085604D79D0F808809D4045EA08058560D6
:10112000456825EA0C0CC0F804C0D0F804C08D79DD
:101130009540ADB24CEA050CC0F804C0D0F80CC024
:101140002CEA040CC0F80CC091F807C00CFA03F3A9
:10115000D0F80CC043EA0C03C360521C102ABCD365
:10116000BDE8F00170474B07DB0E9A40C90800EB61
:101170008100016A4FF00F0C0CFA03F399430162EE
:10118000016A1143016270470246002012690A4257
:1011900018BF01207047418370470183704770B5C5
:1011A000052001F05BFC0446042001F057FC0546D5
:1011B000032001F053FC45EA002144EA012010F429
:1011C000000F18BF40F07F4070BDFEE710B582B041
:1011D0000121022000F0E4FEC020012400908DF8DF
:1011E000044000208DF8060003208DF805008DF8DE
:1011F000074069460448FFF76BFF0448C0F89C426B
:10120000C0F8984202B010BD000402400080404285
:101210002DE9F043814683B000240121022000F033
:10122000BFFE4FF0000840208DF804800127009099
:101230008DF806708DF8077069462048FFF748FF63
:101240001F4E0025C6F89C82022007F09FFFC6F8BB
:101250009C726006040ED6F8180200281CBF601CA1
:10126000C4B2012007F092FF681CC5B2082DE9D373
:10127000B9F1000FC6F89C8211D001F045FAC6F80A
:101280009882022007F082FFC6F89C72022007F0C5
:101290007DFFC6F89C8203B02046BDE8F08301F0D4
:1012A00033FAC6F89872022007F070FFC6F89C72F5
:1012B000022007F06BFFC6F89C82ECE700040240B6
:1012C000008040422DE9F041054601F01DFA0F4F24
:1012D0004FF00008C7F89C8244460126E809C7F889
:1012E00098026806050E022007F050FFC7F89C62BE
:1012F000022007F04BFFC7F89C82022007F046FF50
:10130000601CC4B2082CE9D3BDE8F08100804042E3
:1013100070B501F0F9F9094C0120C4F89802C4F83D
:101320009C02042004F5267407F030FF0025256098
:10133000042007F02BFF656070BD00000080404274
:1013400010B501F0E1F9094C0020C4F89C02C4F882
:101350009802042004F5267407F018FF012060604D
:101360002060BDE81040042007F010BF008040421C
:10137000F0B583B000240121022000F011FE002608
:1013800040208DF80460012700908DF806708DF8DC
:10139000077069461848FFF79BFE184DC5F898720C
:1013A000012007F0F3FEC5F89C72012007F0EEFE65
:1013B000D5F81802D0B1601CC4B2FA2C12D901F0D1
:1013C000A3F9C5F89C62C5F89862042007F0DEFE18
:1013D000C5F89C72C5F89872042007F0D7FE03B0D8
:1013E0000120F0BDD5F818020028E4D1C5F89C62B0
:1013F00003B00020F0BD0000000402400080404225
:1014000010B5012182B0084600F0CAFD4FF400601B
:10141000002400908DF804408DF8064003208DF8DC
:10142000050001208DF8070069460348FFF750FECC
:101430000248447002B010BD0000024010000020BD
:101440002DE9F047164F0C4681461E4690462A2548
:1014500002213846FFF79FFE284600F035F848463F
:1014600000F020F8404600F01DF82B2502213846F8
:10147000FFF791FE284600F027F804F1140000F071
:1014800011F806F1140000F00DF82C240221384662
:10149000FFF781FE2046BDE8F04700F015B80000D8
:1014A0000000024010B5044602210648FFF775FE11
:1014B000C4F3072000F008F8E0B2BDE8104000F0E7
:1014C00003B800000000024070B50E4D0446042130
:1014D0002846FFF760FE21460B4C204601F092FAA9
:1014E0000221204601F085FA0028F9D0802120460B
:1014F00001F07FFA0028F9D12846BDE870400421A8
:10150000FFF74BBE000002400030014010B582B032
:101510000121022000F044FD4FF480500090012092
:101520008DF8040000248DF8064003218DF8051085
:101530008DF8070069460548FFF7CAFD0448C0F862
:10154000B0420448047002B010BD00000000024028
:1015500000004042040000202DE9F04188B0012144
:10156000032000F01DFD0121080300F03DFDA02037
:10157000009002208DF8040000248DF80640032717
:10158000DFF85C848DF8057001258DF807506946F9
:101590004046FFF79DFDA0214046FFF7FEFD0522D6
:1015A00011464046FFF7DFFD052207214046FFF7C1
:1015B000DAFD8DF804508DF8064007268DF8057089
:1015C00000968DF8075069464046FFF781FD0721D8
:1015D0004046FFF7E2FD8DF804508DF806408DF887
:1015E000057000958DF807506946FE4F3846FFF7A5
:1015F0006FFD01213846FFF7D0FD4FF44040ADF8B4
:1016000008004FF48270ADF80A00ADF81860ADF82C
:1016100010406802F44EADF80C40ADF81200ADF881
:101620001440ADF80E40ADF8164002A9304601F066
:10163000EBF90121304601F0CBF901214046FFF7DB
:10164000AAFD01213846FFF7A6FDC82007F06AFD74
:1016500001213846FFF7A1FD642007F063FD36261F
:1016600002214046FFF797FD3046FFF72DFF02218C
:101670004046FFF792FD2046FFF726FF3A2602215B
:101680004046FFF788FD3046FFF71EFF0526022182
:101690004046FFF782FD3046FFF716FFB2260221D3
:1016A0004046FFF778FD3046FFF70EFF0C2602217B
:1016B0004046FFF772FD3046FFF706FF0221404625
:1016C000FFF76BFD3046FFF7FFFE02214046FFF7B4
:1016D00064FD2046FFF7F8FE332402214046FFF761
:1016E0005CFD2046FFF7F0FE02214046FFF755FD66
:1016F0002046FFF7E9FEB72402214046FFF74BFDE5
:101700002046FFF7E1FE352402214046FFF745FD64
:101710002046FFF7D9FEBB2402214046FFF73BFDE0
:101720002046FFF7D1FE192402214046FFF735FD80
:101730002046FFF7C9FEC02402214046FFF72BFDDB
:101740002046FFF7C1FE2C2402214046FFF725FD6D
:101750002046FFF7B9FEC22402214046FFF71BFDD9
:101760002046FFF7B1FE02214046FFF716FD28464E
:10177000FFF7AAFEC32402214046FFF70CFD2046D6
:10178000FFF7A2FE122402214046FFF706FD204685
:10179000FFF79AFEC42402214046FFF7FCFC2046D6
:1017A000FFF792FE202402214046FFF7F6FC204678
:1017B000FFF78AFEC62402214046FFF7ECFC2046D4
:1017C000FFF782FE0F2402214046FFF7E6FC204689
:1017D000FFF77AFED02402214046FFF7DCFC2046CA
:1017E000FFF772FEA42402214046FFF7D6FC2046F4
:1017F000FFF76AFEA12402214046FFF7CEFC2046F7
:10180000FFF762FEE02402214046FFF7C4FC2046B9
:10181000FFF75AFED02402214046FFF7BEFC2046C7
:10182000FFF752FE042402214046FFF7B6FC204693
:10183000FFF74AFE0D2402214046FFF7AEFC20468A
:10184000FFF742FE112402214046FFF7A6FC204686
:10185000FFF73AFE132402214046FFF79EFC204684
:10186000FFF732FE2B2402214046FFF796FC20466C
:10187000FFF72AFE3F2402214046FFF78EFC204658
:10188000FFF722FE542402214046FFF786FC204643
:10189000FFF71AFE4C2402214046FFF77EFC20464B
:1018A000FFF712FE182402214046FFF776FC20467F
:1018B000FFF70AFE0D2402214046FFF76EFC20468A
:1018C000FFF702FE0B2402214046FFF766FC20468C
:1018D000FFF7FAFD1F2402214046FFF75EFC204679
:1018E000FFF7F2FD232402214046FFF756FC204675
:1018F000FFF7EAFDE12402214046FFF74CFC2046B9
:10190000FFF7E2FDD02402214046FFF746FC2046C7
:10191000FFF7DAFD042402214046FFF73EFC204693
:10192000FFF7D2FD0C2402214046FFF736FC20468B
:10193000FFF7CAFD112402214046FFF72EFC204686
:10194000FFF7C2FD132402214046FFF726FC204684
:10195000FFF7BAFD2C2402214046FFF71EFC20466B
:10196000FFF7B2FD3F2402214046FFF716FC204658
:10197000FFF7AAFD442402214046FFF70EFC204653
:10198000FFF7A2FD512402214046FFF706FC204646
:10199000FFF79AFD2F2402214046FFF7FEFB204669
:1019A000FFF792FD1F2402214046FFF7F6FB204679
:1019B000FFF78AFD02214046FFF7EFFB2046FFF7C5
:1019C00083FD202402214046FFF7E7FB2046FFF776
:1019D0007BFD232402214046FFF7DFFB204605E084
:1019E000000002400004024000300140FFF76CFD9F
:1019F000212402214046FFF7CEFB2046FFF764FD7D
:101A0000112402214046FFF7C6FB2046FFF75CFD8C
:101A1000292402214046FFF7BEFB2046FFF754FD74
:101A2000002540F21713EF2229462846FFF708FD4C
:101A300000262F0A002402214046FFF7AEFB38465D
:101A4000FFF742FD2846FFF73FFD641CB4F58C7F8D
:101A5000F1D3761CF02EEDD308B0BDE8F0812DE96E
:101A6000F0411D4614460F460646FFF751FC70062E
:101A7000000EFFF727FCFFF77BFC20B1FFF760FCAF
:101A80000120BDE8F0813846FFF71CFCFFF770FC31
:101A9000FFF73EFC012040EA4600C0B2FFF712FC0F
:101AA000FFF766FC5CB1012C0ED00120FFF7B0FB04
:101AB0002870601E10F0FF0405F10105F3D1FFF757
:101AC0003FFC0020BDE8F0810020FFF7A1FB28705B
:101AD000EFE72DE9F0411D4616460F460446FFF795
:101AE00017FC6006000EFFF7EDFBFFF741FC68B93D
:101AF0003846FFF7E7FBFFF73BFC0024002E0ED92A
:101B0000285DFFF7DFFBFFF733FC20B1FFF718FC80
:101B10000120BDE8F081601CC4B2B442F0D3FFF7ED
:101B20000FFC0020BDE8F081FEE710B5012184B074
:101B300041F6FF74080700F03FFA012000F0D6F9E3
:101B4000002000F001FCA0F5A041503949D001204F
:101B500000F0CEFA412000F0AFFA70B9601C84B2F8
:101B60000A2007F0DFFA412000F0A6FA0028F5D09D
:101B7000002C02BF012004B010BD4FF4807000F0B3
:101B8000CBFA012000F0C2FA7F200190FF20002450
:101B900002900094684600F0ABFB152220218DF8DE
:101BA0000C208DF80D1036208DF80E008DF80F40AA
:101BB00003A9002000F01EFC032207218DF80E204F
:101BC0008DF80D1001208DF80C0017238DF80F30C3
:101BD00003A9002000F0C2FB45F25001002000F0F4
:101BE000A3FC04B0002010BD70470000F0B589B020
:101BF0000121022000F0D4F94FF440700125069035
:101C00008DF81C5000248DF81E4003208DF81D0017
:101C1000324F8DF81F5006A93846FFF759FA00F0E9
:101C20003FFE2F4E0021304600F0D2FEADF80040BE
:101C30004FF48270ADF80200ADF808406802ADF8CC
:101C40000A003820ADF80C000720ADF80440ADF8CC
:101C50001000ADF80640ADF80E406946304600F081
:101C6000D3FE0121304600F0B3FE1E49C1F8A44264
:101C7000C1F8A0520121022000F092F9012188034D
:101C800000F0B2F904268DF8144004968DF8175030
:101C900004A93846FFF71CFA0221012000F0C1FF19
:101CA0008DF804400C208DF8050000968DF8065044
:101CB0006846FFF7EDF808208DF808008DF8095008
:101CC0008DF80A508DF80B5002A800F0CBF80648AA
:101CD00080F8404080F8415009B0F0BD0004024057
:101CE000003C0040008040422404002010B5174C06
:101CF0000020C4F8A402102004F5297400F05AFE54
:101D000005221349302000F079F8052211492A20D4
:101D100000F074F80021212000F08EF8012122202B
:101D200000F08AF80021242000F086F80121252007
:101D300000F082F80F21262000F07EF80C212020F0
:101D400000F07AF80120206010BD000000804042C1
:101D500002EF020807EF020810B5174C0020C4F884
:101D6000A402102004F5297400F024FE0522134972
:101D7000302000F043F8052211492A2000F03EF8F7
:101D80000021212000F058F80121222000F054F811
:101D90000021242000F050F80121252000F04CF80B
:101DA0000F21262000F048F80E21202000F044F8F2
:101DB0000120206010BD00000080404202EF0208B8
:101DC00007EF020870B50C4C00220546C4F8A422A7
:101DD0000721262004F5297400F02EF82022294638
:101DE000A02000F00BF80E21202000F025F80120A3
:101DF0002060FF2070BD0000008040422DE9F041CE
:101E00000C4F0D4600211646C7F8A01200F0B8FD91
:101E100000248046002E07D915F8010B00F0B0FD14
:101E2000601CC4B2A642F7D80120C7F8A002404601
:101E3000BDE8F0810080404270B50D46084C014677
:101E40000020C4F8A002084604F5287400F098FDAC
:101E50000646284600F094FD01202060304670BD03
:101E60000080404210B4C27801784FF00F0C01247A
:101E70001AB3184A126801F1E02102F4E062C2F5D7
:101E8000E062C2F30722C2F104032CFA02FC42789A
:101E90009A40837803EA0C031A43120181F8002464
:101EA000007800F01F0104FA01F14009800000F100
:101EB000E020C0F8001110BC704701F01F0004FAC8
:101EC00000F04909890001F1E021C1F8800110BC4E
:101ED000704700000CED00E0034940F0FD7040F059
:101EE00080600860704700000CED00E00149086266
:101EF0007047000000000E427047000002490020B9
:101F0000C1F8B002704700000000404202490120C1
:101F1000C1F8B002704700000000404270B52924AB
:101F20000625FFF7F5F95820FFF7CCF9FFF720FA5F
:101F30002046FFF7C7F9FFF71BFA2846FFF7C2F95B
:101F4000FFF716FAFFF7FCF90B240825FFF7E0F975
:101F50005820FFF7B7F9FFF70BFA2046FFF7B2F961
:101F6000FFF706FA2846FFF7ADF9FFF701FAFFF78A
:101F7000E7F90A25CD24FFF7CBF95820FFF7A2F99E
:101F8000FFF7F6F92846FFF79DF9FFF7F1F920462C
:101F9000FFF798F9FFF7ECF9BDE87040FFF7D0B90B
:101FA000044A0029116814BF084321EA00001060A8
:101FB0007047000030380240044A0029116814BFFD
:101FC000084321EA000010607047000040380240DA
:101FD000044A0029116814BF084321EA0000106078
:101FE0007047000020380240044A0029116814BFDD
:101FF000084321EA000010607047000044380240A6
:10200000044A0029116814BF084321EA0000106047
:102010007047000024380240DFF88CC030B4DCF890
:102020000010224D11F00C0106D06C10042908BFDD
:10203000046002D008291DD00560DCF800100F22D2
:102040001B4B02EA1111595C026822FA01F141604E
:10205000DCF80020072404EA92229A5C21FA02F2BA
:102060008260DCF8002004EA52329A5CD140C16000
:1020700030BC70470F4A1168C1F380531168002BC0
:1020800001F03F0114BFB4FBF1F1B5FBF1F11368AE
:102090001268C3F388135943C2F30142521C520021
:1020A000B1FBF2F10160C8E7083802400024F400F7
:1020B000B80100200438024000224109012904BF70
:1020C0000849096804D002290CBF07490749096873
:1020D00000F01F00012303FA00F0084218BF01229C
:1020E0001046704700380240703802407438024091
:1020F000054900220A700A70012803D004280CBF89
:102100000520704708707047703802400149086028
:10211000704700003C0E47424FF44071814309D1A3
:10212000084A116820F4407321F4F81123F0704339
:102130001943116004490A68C0F30B00104308609A
:1021400070470000083802407038024010B54FF464
:10215000807000F089F8012805D1000200F01EF817
:1021600004A0FEF725F9BDE810404FF40030FEF75B
:102170007FBE0000414C41524D2041210D0A00001C
:1021800000210A2805D3491C0A38C0B2C9B20A285E
:10219000F9D2090740EA11607047000080B240F0B0
:1021A0008000C1430348026802F0800211430160CD
:1021B000704700000C28004081B00F4900200090BB
:1021C000086810F0400F04BF4FF0FF30086010D1D6
:1021D0000868009A00F04000521C0092B2F5803F5F
:1021E00001D00028F4D0086810F0400004BF01B00E
:1021F0007047012001B070470C280040194A10B404
:102200001268002822F0C00222F07F424FEA124CEE
:10221000C2F3042481F803C002F03F034C708B70BA
:10222000C2F342320A701CBF10BC70474FEA1C1048
:1022300000EB80000CF00F0202EB4000C870200998
:1022400000EB800004F00F0202EB40004870180918
:1022500000EB800003F00F0202EB4000887010BC1E
:102260007047000004280040044902460020096825
:10227000034B1940114218BF012070470C28004041
:102280007F3F0100184A30B41268184B40251A40AD
:10229000C2F30544C2F3062C0C7002F07F0381F8F0
:1022A00001C08B7005EA1242CA7000281CBF30BC06
:1022B0007047200900EB800004F00F0202EB4000A1
:1022C00008704FEA1C1000EB80000CF00F0202EBCC
:1022D00040004870180900EB800003F00F0202EB89
:1022E0004000887030BC7047002800407F7F7F002E
:1022F00030B5124D03460024CA20286053202860C0
:10230000FFF75AFFB0B10E48016821F040010160AB
:1023100001681A68114301600A4899680160016800
:102320009A8841EA02410160001F016821F08001A2
:1023300001600124FF202860204630BD2428004091
:102340000828004010280040034981B001EB8000BC
:102350000090006801B070475028004070B50C46EE
:10236000002502004978E07809D0A278090242EA03
:102370000040227841EA423140EA010315E011F0C1
:10238000100F03D021F010010A316170FFF7F8FE41
:1023900006046078FFF7F4FE46EA0026A078FFF70F
:1023A000EFFE2178304340EA41330F4CCA202060D1
:1023B00053202060FFF700FF88B10C4923F0C000D4
:1023C00008600B48016821F080010160001F00686F
:1023D00010F0200F02D100F081F800B10125FF209C
:1023E0002060284670BD00002428004004280040DA
:1023F0000C2800402DE9F0410025234E0C46020038
:1024000020783268294602F040020DD0002A08BF29
:10241000E170A178E27841EA00406178090241EA7E
:10242000024140EA010311E0002A08BFE170FFF712
:10243000A7FE07046078FFF7A3FE47EA0027A0780D
:10244000FFF79EFEE178384340EA01430F4CCA2073
:10245000206053202060FFF7AFFE80B10C480D498B
:10246000184008600C48016821F080010160306864
:1024700010F0200F02D100F031F800B10125FF204B
:1024800020602846BDE8F08108280040242800404C
:102490007F7F7F00002800400C28004008B58DF8A1
:1024A00000008DF801108DF802208DF80330694688
:1024B0000020FFF79FFF08BD10B54FF48060FFF7C5
:1024C000D3FE012804BF4FF48060FFF767FE4FF48E
:1024D0008000BDE81040FEF7CBBC000081B00020BA
:1024E0000F4B0090CA201860532018600D490868EF
:1024F00020F0A00008600868009A00F02000521C3C
:102500000092B2F5003F01D00028F4D0086810F026
:10251000200018BF0120FF21196001B070470000A2
:10252000242800400C280040034A81B002EB8000C0
:102530000090016001B070475028004070B5FEF770
:10254000E7FEC420FEF7BEFEFEF712FF0220FEF7F4
:10255000B9FEFEF70DFFFEF7DBFEC520FEF7B2FE6B
:10256000FEF706FF0020FEF753FE0446FEF7E8FEE6
:10257000FEF7CEFEC420FEF7A5FEFEF7F9FE03200F
:10258000FEF7A0FEFEF7F4FEFEF7C2FEC520FEF742
:1025900099FEFEF7EDFE0020FEF73AFE0546FEF737
:1025A000CFFE45EA042000EE100ADFED050A9FED9C
:1025B000051AB8EE400A60EE200A80EE810A70BD6E
:1025C000008098430024744910B50446FEF7A0FE2D
:1025D0005820FEF777FEFEF7CBFE2046FEF772FE90
:1025E000FEF7C6FEFEF794FE5920FEF76BFEFEF7DF
:1025F000BFFE0020FEF70CFE0446FEF7A1FE2046BB
:1026000010BD00000000000070B501202DED028B10
:10261000FFF7DAFF284C20700220FFF7D5FF60702B
:102620002178251D41EA002028800320FFF7CCFFF8
:10263000A0700420FFF7C8FFE070A1781F4B41EAAB
:10264000002000B26880B5F900105A10B1F5004FB3
:10265000ACBF591A11442980B0F5004FACBF181A0D
:1026600010446880B5F900002BF0FBFF41EC180B1B
:10267000B5F902002BF0F5FF41EC100BB0EE481A53
:10268000F0EE681A00F0C4FF9FED0D1B51EC100B2B
:1026900053EC112B2CF04CF89FED0B1B53EC112B32
:1026A0002BF032FD2BF080FF00B2A880BDEC028B36
:1026B00070BD00000000000030000020FFFF01009E
:1026C0006666666666E64C40000000000080664074
:1026D00010B5FEF71DFEC420FEF7F4FDFEF748FE20
:1026E0000420FEF7EFFDFEF743FEFEF711FEC520C6
:1026F000FEF7E8FDFEF73CFE0020FEF789FD0446EC
:10270000FEF71EFE204610BD00B583B00121022059
:10271000FFF746FC4020009001208DF804008DF862
:10272000060003218DF805108DF807006946024860
:10273000FEF7CEFC03B000BD0004024010B5FEF76A
:10274000E7FD8820FEF7BEFDFEF712FE2120FEF712
:10275000B9FDFEF70DFE3020FEF7B4FDFEF708FED2
:10276000BDE81040FEF7ECBD2DE9F04104462DED2B
:10277000028BFEF7CDFD6006000EFEF7A3FDFEF70F
:10278000F7FDE020FEF79EFDFEF7F2FD0020FEF7CC
:1027900099FDFEF7EDFDFEF7BBFD012040EA440088
:1027A000C0B2FEF78FFDFEF7E3FD0120FEF730FD1E
:1027B00005460120FEF72CFD07460120FEF728FD07
:1027C0000120FEF725FD04460120FEF721FD064607
:1027D0000020FEF71DFDFEF7B3FD47EA052046EA9F
:1027E00004252BF055FF9FED221B53EC112B2BF0F2
:1027F0009FFF9FED218B53EC182B2BF041FD9FED9C
:10280000201B53EC112B2CF09FF92BF04BFC0446B2
:1028100028462BF03DFF9FED1C1B53EC112B2BF09A
:1028200087FF53EC182B2BF02BFD2BF03BFC00EE1D
:10283000100A1748844284BFBDEC028BBDE8F081CA
:102840001448A042A4BFB5EEC00AF1EE10FA08DBAE
:1028500010EE100A1049814203DB1048046080ED3D
:10286000010ABDEC028BBDE8F08100000000000011
:102870000000000000E0654000000000E0FFEF40C5
:1028800000000000008046400000000000005940A9
:102890000000A0C10000FA420000C8420800002069
:1028A0002DE9F04188B001210220FFF779FB0121D9
:1028B000C803FFF781FB02258DF81C5000248DF81A
:1028C0001E4003208DF81D00DFF8AC80382701265C
:1028D00006978DF81F6006A94046FEF7F9FB062211
:1028E00003214046FEF73FFC062204214046FEF746
:1028F0003AFC062205214046FEF735FC0121C803BB
:10290000FFF766FB0021A803FFF762FBADF800406C
:102910004FF48270ADF802002802ADF80440ADF823
:102920000860ADF80650ADF80A000720134DADF869
:102930000C70ADF81000ADF80E406946284600F066
:1029400063F80121284600F043F8FF2402212846BD
:1029500000F04FF80028F9D02146284600F052F840
:102960000121284600F045F80028F9D0284600F05B
:1029700047F808B0BDE8F08100040240003C004088
:1029800070B50B4C05460221204600F032F80028B5
:10299000F9D02946204600F035F80121204600F004
:1029A00028F80028F9D0204600F02AF8C0B270BDFF
:1029B000003C004001460548028822F038020280AF
:1029C000028811430180012100F002B8003C004060
:1029D0000029018814BF41F0400121F0400101802D
:1029E0007047002A828814BF114322EA01018180C6
:1029F00070470246002012890A4218BF0120704722
:102A0000808970478181704710B402880B88B1F8C3
:102A100002C0CC8843EA0C03B1F804C002F441526E
:102A20004CEA040C43EA0C03B1F808C043EA0C0377
:102A3000B1F80AC043EA0C03B1F80CC043EA0C0336
:102A4000B1F80EC043EA0C031A430280828B22F4D1
:102A500000628283098A018210BC704770B5EE253E
:102A60000446FEF755FC2846FEF72CFCFEF780FCDA
:102A70002046FEF727FCFEF77BFCFEF749FCEF2023
:102A8000FEF720FCFEF774FC0020FEF7C1FB0446B5
:102A9000FEF756FC204670BD70B5EE2605460C4686
:102AA000FEF736FC3046FEF70DFCFEF761FC2846CB
:102AB000FEF708FCFEF75CFC2046FEF703FCFEF781
:102AC00057FCBDE87040FEF73BBC000070B501212B
:102AD0000620FFF7E1FF81210720FFF7DDFF072137
:102AE0000820FFF7D9FF00210920FFF7D5FF1020AC
:102AF000FFF7B4FF04461120FFF7B0FF01462001A5
:102B000040EA111010F4006F1CBF40F4704000B296
:102B1000424C60801120FFF7A1FF05461220FFF70D
:102B20009DFF05F00F0140EA012010F4006F1CBF6B
:102B300040F4704000B2A0801820FFF78FFF0546D8
:102B40001920FFF78BFF40EA0520E0801A20FFF7ED
:102B500085FF05461B20FFF781FF40EA0520208105
:102B60001C20FFF77BFF05461D20FFF777FF40EA9B
:102B7000052060811E20FFF771FF05461F20FFF72B
:102B80006DFF40EA0520A0812020FFF767FF054682
:102B90002120FFF763FF40EA0520E0811320FFF7C3
:102BA0005DFF05461420FFF759FF06461520FFF785
:102BB00055FF014646EA0520000140EA111010F4D5
:102BC000002F1CBF40F07F6040F070402061152056
:102BD000FFF744FF06461620FFF740FF0546172083
:102BE000FFF73CFF06F00F0145EA012140EA012012
:102BF00010F4002F1CBF40F07F6040F07040606117
:102C00000620FFF72BFF012805D10920FFF726FF3B
:102C1000002808BF70BD012070BD00001800002012
:102C200070478A0721F0030101F1804101F59831D5
:102C3000120F0F23D1F808C893402CEA0303C1F800
:102C40000838D1F8083890401843C1F80808704790
:102C50004FF0E021042808690CBF40F0040020F088
:102C600004000861704770472B48016841F4700107
:102C700001602A49086840F00100086028480022E5
:102C800002600B6823F4102323F080730B60031F92
:102C9000DFF890C0C3F800C0D1F800C02CF4802C3D
:102CA000C1F800C000F1040CCCF800201E4AD2F894
:102CB00000C04CF0805CC2F800C01C4AD2F800C0D2
:102CC0004CF4404CC2F800C0026802600268026026
:102CD000026842F480520260154A1A600A6842F0A3
:102CE00080720A600A6812F0007FFBD0114A40F23D
:102CF00002711160016821F003010160016841F077
:102D000002010160016801F00C010829FAD10806EE
:102D1000094908607047000088ED00E00038024073
:102D20000838024010300024403802400070004053
:102D300010640107003C024008ED00E02DE9F0417D
:102D40000E46074601218CB00846FFF735F90121F0
:102D50000846FFF725F902208DF81C0003208DF8A6
:102D60001D0001250024DFF874808DF81E400695B3
:102D70008DF81F5006A94046FEF7AAF9012200214E
:102D80004046FEF7F0F9711EADF82010781E09904C
:102D9000ADF82240ADF8284008A9A80700F0BAF91C
:102DA0006020ADF80000C8200290ADF80250ADF8E8
:102DB0000C40ADF810406946C00600F071F90821DA
:102DC000C80600F0A1F90121880700F067F8012189
:102DD000880700F06FF80CB0BDE8F08100000240F9
:102DE00010B5084C0121204600F047F900281CBF0F
:102DF000012025F067F801212046BDE8104000F0D1
:102E000056B80000000400402DE9F0411E4E01219B
:102E1000304600F032F9002830D0DFF8708000240E
:102E2000012598F80100012818D1194F3988481C4C
:102E30003880C82912D93C80E9021648FEF7A4F967
:102E4000002818BF88F8004008D198F80000401CFE
:102E5000C1B288F800100A2928BF7D800E48018879
:102E60004A1C02800A2924BF0480C58041884A1C6C
:102E70004280B1F57A7F24BF44800581012130462C
:102E8000BDE8F04100F013B8000C00401000002035
:102E900000000020000002401804002000290188E2
:102EA00014BF41F0800121F0800101807047C943C7
:102EB000018270470029018814BF41F0010121F00F
:102EC00001010180704710B5A0F18041B1F580315A
:102ED0004AD0B0F1804F5BD0A0F18041B1F5806164
:102EE0004CD0A0F18041B1F500615BD0A0F18041F0
:102EF000B1F5406160D0A0F18041B1F5805165D05D
:102F0000A0F18041B1F5A0516AD0A0F18041B1F5A6
:102F100082316FD0A0F18041B1F5A03174D0A0F121
:102F20008041B1F5A2317AD0A0F18041B1F5A43150
:102F30007DD0A0F18041B1F5C05179D0A0F18041A0
:102F4000B1F5E05175D0A0F18041B1F5005118BF45
:102F500010BD01210802FFF73BF8BDE81040002139
:102F60004FF48070FFF734B801210846FFF748F8A6
:102F70000021BDE810400120FFF742B801210220E6
:102F8000FFF726F80021BDE810400220FFF720B827
:102F900001210846FFF71CF80021BDE81040012080
:102FA000FFF716B801210420FFF712F80021BDE851
:102FB00010400420FFF70CB801210820FFF708F8A3
:102FC0000021BDE810400820FFF702B801211020C1
:102FD000FEF7FEFF0021BDE810401020FEF7F8BF0D
:102FE00001212020FEF7F4FF0021BDE81040202041
:102FF000FEF7EEBF01210220FFF702F80021BDE835
:1030000010400220FEF7FCBF01210804FEF7F8FF84
:10301000BDE8104000214FF48030FEF7F1BF0121E0
:103020004804FEF7EDFF00214FF4003002E005E018
:103030000FE018E0BDE81040FEF7E2BF0121880470
:10304000FEF7DEFFBDE8104000214FF48020FEF7C0
:10305000D7BF01214020FEF7BBFF0021BDE8104093
:103060004020FEF7B5BF01218020FEF7B1FF00210F
:10307000BDE810408020FEF7ABBF038A00228089A4
:103080000B4200EA01001CBF0028012210467047D5
:10309000002A828914BF114322EA0101818170470D
:1030A00010B4028C22F001020284028C8388B0F8F2
:1030B00018C00C882CF0730C44EA0C0C8C8922F09C
:1030C000020222434C882243A0F18044B4F58034AC
:1030D0001CBFA0F18044B4F582340DD1CC8922F01C
:1030E000080222438C8822F0040222430C8A23F433
:1030F000407323434C8A23438380A0F818C0896817
:103100004163028410BC7047028B22F00802114315
:103110000183704710B402881C4BDFF874C09842DA
:1031200018BF604511D0B0F1804F1CBFA0F18044A2
:10313000B4F5806409D0A0F18044B4F500641CBFEC
:10314000A0F18044B4F5406403D14C8822F07002B1
:103150002243A0F18044B4F580541CBFA0F1804408
:10316000B4F5A05403D00C8922F4407222430280AB
:103170004A68C2620A880285984212BF6045897A0D
:1031800001860121818210BC7047000000000140CF
:103190000004014010B50A4C40F22551204600F0D1
:1031A0001CF8002808BF10BDA188064890F801242B
:1031B000815490F80114491C80F8011410BD0000DE
:1031C00000100140F40400200029818914BF41F45B
:1031D000005121F400518181704710B401F01F02A9
:1031E0000124C1F3421304FA02F24FF0000C012B48
:1031F00004BF83891A4004D0022B0CBF038A838A40
:103200001A40090A008804FA01F10840002A1CBF8C
:1032100000284FF0010C604610BC7047C1F3421308
:1032200001F01F014FF0010C0CFA01F1012B08BF56
:103230000C3003D0022B0CBF10301430002A02686F
:1032400014BF114322EA01010160704730B5044602
:10325000008A85B00D46C98820F44050084320827A
:10326000A089A9882A8920F4037011436A8920F46F
:10327000A05010430843A081A08AA98920F440707F
:103280000843A0826846FEF7C7FEA4F18040B0F56F
:1032900088301BBFA4F18040B0F58A3003980298B3
:1032A000A18911F4004F00EBC00101EB0010296867
:1032B00014BF49008900B0FBF1F0114A6FF0180CFF
:1032C000A2FB0031490909010B0903FB0CF300EBD8
:1032D0008300A38913F4004F4FF0320314BF03EBB4
:1032E000C00003EB0010A2FB00204FEA501014BFF7
:1032F00000F0070000F00F000843208105B030BD4A
:103300001F85EB51FEE703B401984100009850EA95
:10331000C12018BF04204A0D18BF40F0010040F240
:10332000FF72B2EB515F08BF40F00200012808BFF6
:10333000052002B07047000070B59B482DED020BD0
:103340002DED068B079D25F00044A04218DC974820
:10335000844202DC0AD1069840B19DED060BBDEC1B
:10336000068B02B0BDE8704001F006B9002DCCBF5D
:103370009FED8F0B9FED900BBDEC068B02B070BDE7
:103380008F48A04215DD8F48A042D8BF4FF0FF34D0
:1033900058DD9DED060B51EC100BFFF7B4FF042830
:1033A00008BF01F01DF99DED060BBDEC068B02B0C8
:1033B00070BD9DED060B51EC100B0CF032FCCDE90D
:1033C000060181489FED828BA0423CDD8248A042ED
:1033D0001FDD00249FED82AB9DED060B53EC1A2BF5
:1033E00051EC100B2AF090FE9DED060B41EC190BF1
:1033F00053EC1A2B51EC100B2BF09AF953EC182BC1
:103400002BF0A2FB53EC192B2AF03AFFCDE9060171
:1034100049E09DED060B012453EC182B51EC100BE9
:103420002AF072FE9DED060B41EC190B53EC182BA4
:1034300051EC100B2BF088FB53EC192B2AF020FFDA
:10344000CDE906012FE06848A0421FDD02249FED70
:10345000689B9DED060B53EC192B51EC100B2BF0D8
:1034600067F953EC182B2AF04FFE9DED060B41EC4B
:10347000180B53EC192B51EC100B2BF065FB53EC94
:10348000182B2AF0FDFECDE906010CE09DED060BA0
:10349000032453EC102B9FED580B51EC100B2AF02A
:1034A000EFFECDE906019DED060B53EC102B51EC20
:1034B000100B2BF03DF941EC180B53EC182B2BF0B3
:1034C00037F941EC190B4E480621B0EE490AF0EEEF
:1034D000690A784400F0BCFF53EC182B51EC100B38
:1034E0002BF026F941EC180B4648B0EE490AF0EEF5
:1034F000690A0521784400F0ABFF53EC192B51EC1D
:10350000100B2BF015F941EC100B51EC180B53EC90
:10351000102B002C0EDA2AF0F7FD9DED061B53EC64
:10352000112B2BF005F99DED061B53EC112B2BF005
:1035300033FA35E02AF0E8FD9DED061B53EC112B24
:103540002BF0F6F841EC100B2F48784400EBC40048
:1035500090ED001B51EC100B53EC112B2BF0F4FAF7
:103560009DED061B53EC112B2BF0EEFA41EC100BEA
:103570002648784400EBC40090ED001B51EC100B82
:1035800053EC112B2BF008FA41EC100B002DA2BFCD
:10359000BDEC068B02B070BD51EC100B2AF076FD2D
:1035A00041EC100B01E70000000010440000F07F28
:1035B000182D4454FB21F93F182D4454FB21F9BF29
:1035C0000000DC3F0000203E0000F33F0000000050
:1035D000000000000000F03F0000E63F0000000097
:1035E00000000000000000400080034000000000D8
:1035F000000000000000F83F000000000000F0BFE5
:103600001A960700D09507005A95070012950700F3
:1036100070B56B4E2DED040B2DED028B82B0DDF8F5
:103620001CC0DDE905235C422CF000411C4341EA4B
:10363000D474049D22F00040B44205D86C422C435F
:1036400040EAD474B4420BD99DED061B9DED040BEA
:1036500002B0BDEC028B04B0BDE8704000F096BF34
:10366000ACF14054A4F17F641C430BD0022404EA63
:10367000AC7444EAD27405439FED538B9FED542BF9
:1036800007D015E09DED040B51EC100B04F06DF923
:1036900042E0002C11BF012C9DED040B02B0BDECEB
:1036A000028B04BF04B070BD022C38D0032C3BD079
:1036B0000B439FED491B9FED4A0B0AD0B14218D135
:1036C000B04209D121F0804120F08040079105905F
:1036D0000FE0002A15DA10E0434B7B44002C08BFB2
:1036E00093ED000B0DD0012C10D0022C17D0032C21
:1036F0001AD0B0421DD1002A03DAB0EE410AF0EE32
:10370000610A02B0BDEC028B04B070BD93ED000BFA
:1037100051EC100B2AF0BAFC41EC100BF1E7B0EEC3
:10372000480AF0EE680AECE7B0EE420AF0EE620AF0
:10373000E7E7401A00153C28C8BF8DED000B19DCE7
:10374000BCF1000FBEBF10F13C0F9FED290B8DEDBA
:10375000000B0FDB9DED060B53EC102B9DED040BC6
:1037600051EC100B2AF08CFD0CF05BFA04F0FDF824
:10377000CDE90001002C08BF9DED000BC1D0012C4C
:1037800010D0022C9FED1C0B53EC102B9DED000B69
:1037900051EC100B0DD02BF0D7F953EC182B2BF06C
:1037A000D3F9B9E7019880F0004001909DED000B3E
:1037B000A7E72BF0C9F953EC182B2BF0EDF8ABE78A
:1037C0000000F07F00000000182D4454FB21094048
:1037D000182D4454FB2109C0182D4454FB21F9BF76
:1037E000182D4454FB21F93F4294070000000000CB
:1037F0000000000000000000075C143326A6A13C76
:103800002DE9F04D2DED040B2DED0E8B96B0DDE97D
:103810002550279CDDF890A025F0004624F00048B4
:10382000BAF1000F14BF0121002101EB4502FC4950
:1038300053184A1093422AD3002814BF01230023AF
:1038400003EB44030B44F7498B4220D358EA0001B1
:103850009FEDF59B76D0DFF8D8B35D4503D1BAF183
:10386000000F05D188E0BAF1000F08BF002100D099
:10387000012101EB450111F5001F08D8002814BFF4
:103880000121002101EB440111F5001F0BD99DED31
:10389000261B9DED240B16B0BDEC0E8B04B0BDE8CD
:1038A000F04D00F073BE0027002DBCBFE1498845F4
:1038B00021DAE1498845A8BF02271CDAC3451ADC92
:1038C000DE4901EB2851142908DDC1F1340220FA48
:1038D00002F101FA02F282420DD108E058B9C1F1B9
:1038E000140228FA02F101FA02F2424503D101F072
:1038F0000101C1F1020756EA0A0124D1002C22DAA3
:10390000002D18BF022F01D0012F0AD00220FCF792
:1039100030FF16B0BDEC0E8B04B0BDE8F04D00F0EA
:1039200013BE0220FCF725FF00F00EFE51EC100B39
:103930002AF0ACFB41EC100B16B0BDEC0E8B04B0C2
:10394000BDE8F08D18E09FEDBEAB9FEDBF8B00286A
:1039500071D1B848804522D105F1804010F5801022
:1039600008BFBAF1000F07D0B3450ADC002CA8BF8E
:103970009DED260BE0DA0DE0B0EE490AF0EE690AA3
:10398000DAE7002C06DA9DED260B51EC100B2AF03D
:103990007DFB6FE0AE48784490ED000BCCE7D84556
:1039A0004DD1002C48DA2EB186423AD1BAF1000F3F
:1039B00042D126E0BAF1000F13D00220FCF7D9FE65
:1039C00000F0FEFD8DED020B9DED240B8DED000B47
:1039D00010EE900A039961F31E0003909DED020B17
:1039E000AAE78DED02AB9DED240B1AEE901A10EEB6
:1039F000900A8DED000B61F31E0003909DED020B0C
:103A00009AE78DED028B9DED240B18EE901A10EEC7
:103A1000900A8DED000B61F31E0003909DED020BEB
:103A20008AE709DA9DED240B51EC190B53EC102BAE
:103A30002AF026FC1EE020E09DED240B7CE7864268
:103A40001BDAB4F1804F0DD0A4F10050B0F1FF505B
:103A500013D1002D11DB9DED240B51EC100B27F041
:103A6000CFF907E09DED240B53EC102B51EC100B1C
:103A700000F0C2BC41EC100B5EE79DED240B51EC55
:103A8000100B0CF0CEF8BAF1000FCDE90E0142D1C7
:103A90009FED710B46B3A6F1E040B0F17F600CD012
:103AA0005E4538D1002D00DAA7B3022F0CBF0120EC
:103AB0004FF0FF302AF0D5FDDCE7002D01DD002CB2
:103AC0000DDA002D01DD002C1FDB002D16DA002C95
:103AD00014DB012F08BF9FED620B3FF42DAFB0EE5A
:103AE0004A0AF0EE6A0A27E7022F18BF002D0CD011
:103AF000012F0AD1002DFFF61FAF06E0002DB8BF41
:103B0000002C08DA012F3FF417AFB0EE480AF0EEB0
:103B1000680A11E71BE0012000EBE57050EA07019D
:103B200015D0791EB0EE498AF0EE698A084308BFC5
:103B30009FED4D8B4E480025804570DD4D494E4828
:103B4000884514DDB0420DDB002C19DB2FE001208D
:103B5000FCF70FFE16B0BDEC0E8B04B0BDE8F04DC7
:103B600000F01EBDB34502DC002C09DC1FE08642DC
:103B700002DA002C1BDA03E05E452BDD002C16DD9B
:103B80000220FCF7F6FD00F01BFD8DED020B53EC5F
:103B90001A2B51EC180B2AF0CBFDCDE9000103994B
:103BA000019861F31E0003909DED020BC4E6022014
:103BB000FCF7DFFD00F014FD10EE901A18EE900AED
:103BC0008DED020B8DED008B61F31E0003909DEDDA
:103BD000020BB1E69DED0E0B53EC192B51EC100BC3
:103BE0002AF0B2FF9FED260BCDE9080153EC102B14
:103BF0009DED080B51EC100B2AF09AFD9FED221B56
:103C000053EC112B2AF0C8FE9DED081B53EC112B31
:103C10002AF08EFD9FED1E1B53EC112B3CE08CE037
:103C2000FFFF1F00FFFF0F00000000000000F03F3B
:103C30000000F03F0000F07F0000404301FCFFFF68
:103C4000000000000000F07F000000000000000005
:103C500086910700000000000000000000000080C6
:103C6000000000000000F0FF000000000000F0BFB6
:103C70000000E0410000F043FFFFEF3F00000000C4
:103C8000000000000000D03F555555555555D53F13
:103C9000000000000000E03F2AF07EFE9DED080BD2
:103CA00041EC1A0B53EC102B51EC100B2AF040FD99
:103CB00053EC1A2B2AF03CFD41EC1A0B9FEDFE0B46
:103CC00053EC102B9DED080B51EC100B2AF030FD3E
:103CD00041EC1B0B9FEDFA0B51EC1A0B53EC102B24
:103CE0002AF026FD41EC1A0B9FEDF70B53EC102B3D
:103CF0009DED080B51EC100B2AF01AFD53EC1A2B1A
:103D00002AF022FF41EC1A0B51EC1B0B53EC1A2B3F
:103D10002AF0FAF90690CDE906519DED060B53EC19
:103D20001B2B51EC100B2AF00FFF53EC1A2B2AF02F
:103D300033FE41EC100B00F0A1B90020B6F5801F56
:103D40000EDA9FEDE30B53EC102B9DED0E0B51ECB7
:103D5000100B2AF0EDFCCDE90E016FF034000E4699
:103D600000EB2650A0F2FF37C6F31300DA4940F00B
:103D70007F6646F040568842D8BF002408DDD74908
:103D80008142C8BF012403DC0024A6F580167F1CF5
:103D9000D348784400EBC4000F9690ED00CB9DED26
:103DA0000E0B53EC1C2B51EC100B2AF0CDFE9DEDAD
:103DB0000E0B41EC1B0B53EC1C2B51EC100B2AF09F
:103DC000A3F941EC100B51EC190B53EC102B2AF01A
:103DD00057FA41EC1D0B51EC1B0B53EC1D2B2AF039
:103DE000A7FC41EC1A0BBF488DED10AB7844109541
:103DF00090ED000B4FF0005040EA660000EB84406D
:103E00008DED080B00F5002009909DED080B53EC9B
:103E10001C2B51EC100B2AF097FE9DED0E1B53EC62
:103E2000112B2AF0B9FD41EC100B53EC102B9DED3A
:103E3000100B51EC100B2AF07BFC9DED080B41ECB4
:103E40001C0B53EC102B9DED100B51EC100B2AF0BA
:103E50006FFC53EC1B2B2AF09FFD53EC1C2B2AF01C
:103E600073FE53EC1D2B2AF063FC41EC1C0B53EC4E
:103E70001A2B51EC1A0B2AF05BFC41EC1B0B9A48F5
:103E80000621B0EE4B0AF0EE6B0A784400F0E0FA3F
:103E9000B0EE401AF0EE601AB0EE41DAF0EE61DA00
:103EA00053EC1B2B51EC1B0B2AF042FC53EC1D2B4B
:103EB0002AF03EFC9DED100B41EC1B0B53EC1A2B32
:103EC00051EC100B2AF020F953EC1C2B2AF030FC9B
:103ED00053EC1B2B2AF018F99DED100B41EC1B0B3A
:103EE00053EC102B51EC100B2AF022FC41EC1D0B73
:103EF0009FED7FEB53EC1E2B2AF006F953EC1B2BA6
:103F00002AF002F90890CDE908519DED080B53EC19
:103F10001E2B51EC100B2AF017FE53EC1D2B2AF030
:103F200013FE53EC1B2B2AF037FD9DED080B41ECE3
:103F30001D0B53EC102B9DED100B51EC100B2AF0C8
:103F4000F7FB41EC1B0B53EC1A2B51EC1D0B2AF029
:103F5000EFFB9DED080B41EC1A0B53EC102B51ECD1
:103F60001C0B2AF0E5FB53EC1A2B2AF0CDF841ECA0
:103F70001A0B51EC1B0B53EC1A2B2AF0C5F80C90C2
:103F8000CDE90C519DED0C0B53EC1B2B51EC100BA0
:103F90002AF0DAFD53EC1A2B2AF0FEFC41EC1B0B45
:103FA0009FED550B53EC102B9DED0C0B51EC100BB2
:103FB0002AF0BEFB41EC1A0B9FED510B51EC1B0B91
:103FC00053EC102B2AF0B4FB41EC1B0B9FED4E0B76
:103FD00053EC102B9DED0C0B51EC100B2AF0A8FBB1
:103FE00053EC1B2B2AF090F841EC100B4848784416
:103FF00000EBC40090ED001B51EC100B53EC112BA7
:104000002AF082F841EC1B0B38462AF02AFBCDE956
:10401000080153EC1B2B51EC1A0B2AF075F841ECFC
:10402000100B3C48784400EBC40090ED00CB51EC01
:10403000100B53EC1C2B2AF067F89DED081B53EC7A
:10404000112B2AF061F80690CDE906519DED080B81
:1040500053EC102B9DED060B51EC100B2AF074FD68
:1040600053EC1C2B2AF070FD53EC1A2B2AF06CFD3C
:1040700053EC1B2B2AF090FC41EC100B9DED261B02
:1040800053EC102B8DED001B00959DED260B51EC94
:10409000100B2AF04DFB9DED000B41EC1A0B53EC7D
:1040A000102B9DED260B51EC100B2AF04DFD9DEDD4
:1040B000061B53EC112B2FE0000000604715F73F63
:1040C000FE822B654715F73F44DF5DF80BAE543E8B
:1040D00000000000000040438E9803007AB60B00F9
:1040E0006A8C0700308D0700A28B070000000000DB
:1040F0000000000000000840000000E009C7EE3F9B
:10410000FD033ADC09C7EE3FF5015B14E02F3EBE2C
:104110002E8A0700E88907002AF00AFB53EC1A2BC5
:1041200029F0F2FF9DED060B41EC1A0B53EC102B1E
:104130009DED000B51EC100B2AF0FAFACDE90C01C1
:104140009DED0C0B51EC1A0B53EC102B29F0DCFFFE
:10415000CDE902010C46AA498C422FDB611A0843C3
:1041600018D19DED0C0B53EC102B9DED020B51EC77
:10417000100B2AF0E9FC41EC1B0B9FEDA30B51EC5B
:104180001A0B53EC102B29F0BFFF53EC1B2B2AF01A
:10419000CDFB2DD20220FCF7ECFA00F011FA10EE64
:1041A000901A18EE900A8DED020B8DED008B61F3E5
:1041B0001E0003909DED020BFFF7BEBB944A24F056
:1041C0000041914214D39349214408437FF4EFAC5A
:1041D0009DED0C0B53EC102B9DED020B51EC100BD5
:1041E0002AF0B2FC53EC1A2B2AF0A0FB7FF6DFACCE
:1041F00024F000408849894A002601EB2051824280
:104200002BDA481C4FF4801121FA00F02044844A34
:10421000C0F30A517A44A1F2FF3192ED000B814ABA
:104220008DED080BCA4020EA0202C0F3130040F4EF
:104230008010C1F1140120FA01F60992002CB8BFD8
:1042400076429DED080B53EC102B9DED0C0B51ECC1
:10425000100B2AF079FCCDE90C019DED0C0B51EC13
:104260001A0B53EC102B29F04FFF9FED6F0B0890AA
:10427000CDE9085153EC102B9DED080B51EC100BC0
:104280002AF056FA41EC1B0B9FED690B53EC102BF7
:104290009DED080B51EC100B2AF04AFA9DED0C0B2A
:1042A00041EC1C0B53EC102B9DED080B51EC100B4B
:1042B0002AF04AFC53EC1A2B2AF06EFB9FED5E1B92
:1042C00053EC112B2AF034FA53EC1C2B29F01CFF71
:1042D00041EC1A0B51EC1B0B53EC1A2B29F014FF79
:1042E000CDE902019DED020B53EC1B2B51EC100BA1
:1042F0002AF02AFC53EC1A2B2AF04EFB9DED020B00
:1043000041EC1A0B53EC102B51EC100B2AF010FA65
:10431000CDE908014A489DED080B0521784400F0DD
:1043200097F89DED081B51EC100B53EC112B2AF064
:10433000FFF99DED021B53EC112B2AF02DFBCDE96B
:1043400006019DED020B53EC1A2B51EC100B2AF0D9
:10435000EFF953EC1A2B29F0D7FE9FED3B0B41EC04
:104360001A0B53EC102B9DED060B51EC100B2AF0A1
:10437000EBFB9DED060B41EC1B0B53EC102B9DED65
:10438000020B51EC100B2AF0D3F953EC1B2B29F044
:1043900077FF53EC1A2B2AF0D7FB9DED021B53EC51
:1043A000112B2AF0D1FB53EC192B2AF0F5FACDE9A9
:1043B000020101EB065001150029C8BF039015DC6E
:1043C0009DED020B324651EC100B2AF054FDFEF726
:1043D0009AFF042808BF00F003F932469DED020B56
:1043E00051EC100B2AF047FDCDE902019DED020BC7
:1043F00051EC180B53EC102B2AF09AF9FFF73ABB4B
:104400000000904000000000FE822B654715973C9D
:1044100000CC904000346F3F01FCFFFF0000E03F04
:1044200008890700FFFF0F0000000000432EE63F51
:10443000396CA80C615C20BEEF39FAFE422EE63FD3
:10444000408707000000000000000000000000405E
:1044500070B504462DED028B4D1E00EBC500B0EE8D
:10446000408AF0EE608A90ED000B35F0060017D020
:1044700053EC182B51EC100B2AF05AF941EC100BAD
:104480006D1E04EBC50090ED001B51EC100B53ECBE
:10449000112B29F039FE41EC100B35F00600E7D165
:1044A000022D36D0042D1CD0062D1CBFBDEC028B76
:1044B00070BD53EC182B51EC100B2AF039F994ED28
:1044C0000A1B53EC112B29F01FFE53EC182B2AF07A
:1044D0002FF994ED081B53EC112B29F015FE41EC3C
:1044E000100B53EC182B51EC100B2AF021F994ED22
:1044F000061B53EC112B29F007FE53EC182B2AF066
:1045000017F994ED040B53EC102B29F0FDFD41EC51
:10451000100B53EC182B51EC100B2AF009F994ED09
:10452000021B53EC112B29F0EFFD53EC182B2AF052
:10453000FFF894ED001B53EC112B29F0E5FDBDECC9
:10454000028B41EC100B70BD9FED070B10B553ECC7
:10455000102B9FED070B51EC100B29F091FE41EC55
:10456000100B10BD00000000000000000000000063
:10457000000000000000F03F10B553EC102B51EC90
:10458000100B29F0C1FD41EC100B10BD10B553EC20
:10459000112B51EC100B29F0B7FD41EC100B10BDA5
:1045A0009FED050B10B553EC102B51EC100B29F0BF
:1045B00067FE41EC100B10BD000000000000000081
:1045C0009FED050B10B553EC102B51EC100B2AF09E
:1045D000AFF841EC100B10BD0000000000000070AF
:1045E0009FED050B10B553EC102B51EC100B2AF07E
:1045F0009FF841EC100B10BD0000000000000010FF
:1046000030B40369986802688A4223D8D0F808C099
:10461000008A8CB20022411E0DD4501800EBD070DD
:1046200040103CF81050A54238BF421C88BF411EC4
:1046300003D08A42F1DD4FF0FF30B0F1FF3F09D0E7
:10464000596801EBC0001968006830BCC0F3130062
:104650000844704730BC0020704730B40369986844
:1046600002688A4223D8D0F808C0008A8CB200229F
:10467000411E0DD4501800EBD07040103CF8105083
:10468000A54238BF421C88BF411E03D08A42F1DDDB
:104690004FF0FF30B0F1FF3F09D0596801EBC00087
:1046A0001968006830BCC0F313000844704730BC80
:1046B0000020704770B4D0F810C0DCF80800036820
:1046C000934233D88468008A95B20023421E0DD4E9
:1046D000981800EBD070401034F81060AE4238BF2C
:1046E000431C88BF421E03D09342F1DD4FF0FF30E0
:1046F000B0F1FF3F1AD0DCF8042002EBC0000268E2
:10470000120D8A8042790A810279CA8090F90620C6
:104710004A8190F907008881BCF81200420A887B20
:1047200062F30300887370BC0120704770BC0020E6
:10473000704770B4D0F810C0DCF8080003689342EA
:1047400033D88468008A95B20023421E0DD498188D
:1047500000EBD070401034F81060AE4238BF431CFC
:1047600088BF421E03D09342F1DD4FF0FF30B0F11D
:10477000FF3F1AD0DCF8042002EBC0000268120DE3
:104780008A8042790A810279CA8090F906204A819A
:1047900090F907008881BCF81200420A887B62F316
:1047A0000300887370BC0120704770BC0020704704
:1047B0002DE9FF5F91462DED020B83462DED0A8B0F
:1047C00086B0B0EE408AF0EE608A53EC182B51ECC4
:1047D000180BDDE92185209E29F0AAFE11D19FED5D
:1047E000CE0B51EC180B53EC102B2AF09FF808D38A
:1047F0009FEDCB0B51EC180B53EC102B29F05CFF09
:1048000012D20096CDE90185B0EE480AF0EE680AB2
:104810004A465846159B139900F0C6F906B0BDEC00
:104820000A8B06B0BDE8F09F9FEDBF0B51EC180B53
:1048300053EC102B29F040FF34BF012000200390DF
:1048400028B151EC180B29F021FC41EC180B15F4A0
:10485000806F9FEDB7BB08BF06268DED008B18EE6D
:10486000900A4FF0000AC0F30A50A0F2FF3418EE8D
:10487000900AC0F3130040F07F6040F04050019078
:104880009DED000B9FEDAC1B51EC100B53EC112B6D
:104890002AF05AF99FEDAA1B53EC112B29F048FF7F
:1048A00041EC190B204629F0DCFE9FEDA71B53ECD1
:1048B000112B29F03DFF9FEDA61B53EC112B29F086
:1048C00023FC53EC192B29F01FFC29F06DFE044644
:1048D00029F0C7FECDE900019FED9F1B53EC112B82
:1048E00029F026FF9FED9E1B53EC112B29F00CFCA9
:1048F00029F05AFE074629F0B4FE9FED9B1B53ECAE
:10490000112B29F015FF41EC190BDDE900019FED9A
:10491000981B53EC112B29F00BFF53EC192B2AF0A9
:1049200013F941EC190B53EC192B29F001FF41EC61
:104930001A0B38059FED900B00F1405000F17F609D
:10494000CDE900A053EC102B51EC1A0B29F098FC88
:1049500053EC1B2B29F0D8FB41EC100B51EC1A0B3C
:1049600053EC102B29F08CFC9FED851B53EC112B85
:1049700029F0CAFB41EC100B51EC1A0B53EC102B35
:1049800029F07EFC53EC192B41EC1A0B9FED7ECBEA
:1049900051EC1C0B2AF0D8F853EC1A2B29F0B4FB7D
:1049A00041EC1A0B53EC1C2B51EC190B29F0C0FEF7
:1049B00053EC1A2B29F064FC9FED751B53EC112B63
:1049C00029F0A2FB9DED001B53EC112B29F0B0FE4A
:1049D00041EC190B51EC180B8DED009B53EC192B8E
:1049E00029F06AFE08D253EC1B2B51EC190B641E04
:1049F00029F046FCCDE9000104F16300C72834BF6B
:104A00000427052715F4006F20D09FED630B51ECB0
:104A1000180B53EC102B29F089FF12D89FED600B77
:104A200051EC180B53EC102B29F046FE09D2A6428C
:104A3000C6BF301B461E002645F4806500273C4655
:104A400004E0002E1CBF15F4806F761EB8458CBFA5
:104A5000A8EB070A4FF0000A15F0020F1CBF002F49
:104A60004FF0000A4CB19DED000B51EC180B53ECCC
:104A7000102B29F005FC41EC180B039828B151ECE0
:104A8000180B29F003FB41EC180B25F4006000968D
:104A9000CDE901A0B0EE480AF0EE680A4A46584651
:104AA000159B139900F080F8064687B306F1010ABA
:104AB00015F0200F0CBF652045203246159B139939
:104AC000D8470DF1080C05237A1E00210A208CE836
:104AD0000F00E00F002CB8BF6442CDE90040524601
:104AE0005846159B139902F0D7FA064615F0020FA7
:104AF0001CBFA6EB0900804509D93246761C202050
:104B0000159B1399D847A6EB09008045F5D8304688
:104B100084E6000000000000FFFFFFFFFFFFEF7FC3
:104B2000FFFFFFFFFFFFEFFF00000000000000009D
:104B30000000000000002440000000000000F83FDA
:104B400061436F63A787D23FFB799F501344D33FE4
:104B5000B3C8608B288AC63F71A379094F930A4076
:104B6000000000000000E03FEF39FAFE422EE63F71
:104B70001655B5BBB16B02400000000000002C4090
:104B8000000000000000184000000000000000408D
:104B9000000000000000F03F2D431CEBE2361A3FFE
:104BA0000000000080842E412DE9FF5F2DED020BF7
:104BB0002DED068B8CB0B0EE408AF0EE608ADDE918
:104BC00023859FEDB59B002453EC182B51EC180B5B
:104BD000229E29F0ADFC10D00320B1A1CDE9001038
:104BE000CDE9028514AC94E80F0002F09AFA0CB0FB
:104BF000BDEC068B06B0BDE8F09F9FEDAB0B51EC12
:104C0000180B53EC102B29F057FD0BD20420A8A150
:104C1000CDE90010CDE9028514AC94E80F0002F054
:104C200080FAE4E79FEDA40B51EC180B53EC102B2A
:104C300029F07CFE0FD215F0040F19BF0420A0A1AB
:104C40000320A1A1CDE90010CDE9028514AC94E8C0
:104C50000F0000F01EB99FED9E0B51EC180B53ECAA
:104C6000102B29F063FE08D39FED9B0B51EC180B22
:104C700053EC102B29F020FD0CD20096CDE90185D4
:104C800014ACB0EE480A94E80F00F0EE680AFFF7A3
:104C90008FFDACE74FF0000A53EC192B51EC180BC9
:104CA00029F00AFD07D24FF0010A51EC180B29F048
:104CB000EDF941EC180B8A4F15F4806F9FED8AAB2C
:104CC0000DF1100B0CBF0626302007D0092E05D998
:104CD0000BF80400641C761E202CF7D351EC180B43
:104CE00029F062FC814629F0BCFC53EC182B29F01A
:104CF00053FE41EC100B07EBC600009090ED001B3B
:104D000051EC100B53EC112B29F012FD41EC190B57
:104D100029F07AFC074629F0BBFC53EC192B29F04B
:104D20003BFE41EC190B53EC1A2B29F0FFFD13D27B
:104D30007F1C384629F0ACFC41EC100B009890ED3C
:104D4000001B51EC100B53EC112B29F0EFFD9CBF15
:104D5000002709F101090CE053EC1A2B51EC190B57
:104D600029F0AAFC05D307F00100401E384208BF15
:104D70007F1CAEB1202C38BF5D4A50D2A2FB071079
:104D8000C008414201EB810107EB410130310BF8D2
:104D90000410641C761E07001DD0202CEED33EE0CC
:104DA000484629F05EFC53EC182B29F0F5FD41EC48
:104DB000180B53EC1A2B29F0B9FD06D953EC1A2B1A
:104DC00051EC180B29F0B2FD12D219F0010F18BFE7
:104DD00009F101090CE03020202C20D2761E24BFDE
:104DE0000BF80400641CF7D22E200BF80400641C9E
:104DF000202C38BF3F4A12D282FB09108110A1EB50
:104E0000E070414201EB810109EB410130310BF8C7
:104E10000410641C5FEA000901D0202CECD315F0CB
:104E2000020F15D115F0010F12D0B8F1000F1EBFFF
:104E300005F00C0050EA0A00A8F1010830204445B2
:104E400006D2202C3CBF0BF80400641CF7D318E0FA
:104E5000202C16D2BAF1000F04D02D200BF804003C
:104E6000641C0EE015F0040F04D02B200BF8040096
:104E7000641C06E015F0080F03D020200BF8040096
:104E8000641CCDF800B00395CDE9014814AE96E856
:104E90000F0002F046F9AAE6000000000000000042
:104EA0006E616E0000000000FFFFFFFFFFFFEFFFDD
:104EB000666E692D00000000FFFFFFFFFFFFEF7F20
:104EC000666E692B00000000666E6900000000003D
:104ED0000000000065CDCD410000000065CDCDC1D2
:104EE00098BB070800000000000000000000E03F41
:104EF000CDCCCCCC6766666630380A2801D201205A
:104F0000704700207047000010B54021074801F0AD
:104F10008DFB00220421064823F030F8054CA060E8
:104F200002F03EFC0020207010BD0000DC84002058
:104F3000CD7700086403002030B4B1F90030B2F935
:104F400000C06345D8BF63460380B1F902C0B2F91F
:104F50000240A445D8BFA446A0F802C0B1F904405D
:104F6000B2F90450AC42A8BF2C468480B1F90610B7
:104F7000B2F906209142A8BF1146C1800120A34288
:104F800003DC6145A4BF30BC7047002030BC7047D3
:104F9000F8B50D460446B0F90000B1F90010164608
:104FA00088424BDBB4F90210B5F90220914245DB8F
:104FB000B4F90410B5F904208A423FDBB4F90610B5
:104FC000B5F906208A4239DBB6B3ADF80000608837
:104FD000ADF8020032466946284600F09DF80028E8
:104FE00008BFF8BDA088ADF800006088ADF80200E9
:104FF00032466946284600F08FF8002808BFF8BD01
:105000002088ADF80000E088ADF80200324669461D
:10501000284600F081F8002808BFF8BDA088ADF848
:105020000000E088ADF8020032466946284600F0EC
:1050300073F8002808BFF8BD0120F8BD0020F8BDB6
:10504000B0F90020B1F904309A4213DCB0F9042021
:10505000B1F9003093420DDCB0F90220B1F906300D
:105060009A4207DCB0F90600B1F902108842A4BFE9
:105070000120704700207047F8B50D460446B0F98E
:105080000400B1F900101646884243DBB4F906006B
:10509000B5F9021088423DDBB4F90000B5F90410FF
:1050A000814237DBB4F90210B5F906208A4231DBC0
:1050B00076B3ADF800006088ADF80200324669466C
:1050C000284600F029F818BBA088ADF800006088D9
:1050D000ADF8020032466946284600F01DF8B8B91E
:1050E0002088ADF80000E088ADF80200324669463D
:1050F000284600F011F858B9A088ADF80000E08803
:10510000ADF8020032466946284600F005F808B1BD
:105110000020F8BD0120F8BD70B50E46B1F90010B1
:10512000B0F9003082B0144605469942A4BFB5F9E3
:105130000400884241DBB6F90220B5F902108A4228
:10514000A4BFB5F906C0944537DB002C72DDC01A48
:10515000401C00B200EBD0704210ACEB0100401CD0
:1051600000B200EBD07040109042C8BF104684429D
:10517000C8BF0446ADF80030288800222044ADF8AE
:1051800004006888ADF80200688831462044ADF814
:1051900006006846FFF7C0FF90B1BDF80400314635
:1051A0002044ADF80400BDF806002044ADF8060028
:1051B00068461FF0F5F802B070BD02B0002070BD67
:1051C000E8880022001BADF80200E888ADF8060070
:1051D00031466846FFF7A0FF78B1BDF804003146BC
:1051E0002044ADF80400BDF80200001BADF8020039
:1051F00068461FF0D5F802B070BDA8880022001BD9
:10520000ADF80000A888ADF8040031466846FFF705
:1052100083FF80B1BDF800003146001BADF80000EF
:10522000BDF80200001BADF8020068461FF0B8F898
:1052300002B070BD1CE06888ADF8020068880022EA
:105240002044ADF8060031466846FFF765FF78B1A7
:10525000BDF800003146001BADF80000BDF80600A7
:105260002044ADF8060068461FF09AF802B070BD01
:1052700002B0012070BDB1F90030B2F900C0634541
:10528000A8BF63460380B1F90230B2F902C063459A
:10529000A8BF63464380B1F90430B2F904C0634546
:1052A000D8BF63468380B1F90610B2F90620914257
:1052B000D8BF1146C18070472DE9F04F85B0044634
:1052C00022F0F6FD4FF0000ADFF8CC818346CDF8DE
:1052D00000A044B1E068C8F80400204622F024FF92
:1052E000D8F8040003E012F075F9C8F8040000696A
:1052F0001EF0BCFFD8F804004069002818BF1EF05B
:10530000B5FFD8F80400C0691EF0B0FFD8F804005B
:10531000006A1EF0ABFFD8F804000169002902BF43
:10532000A0F850A105B0BDE8F08F0025B0F85001FD
:10533000002888BF4FF0010962D9D8F8040041194C
:1053400091F83011002954D1FFE7B0F85001002442
:1053500000284ED9D8F80400011991F8301100291D
:1053600040D1A5423ED000EBC40100EBC500303077
:105370003031FFF765FEA8B3D8F8040000EBC40194
:1053800001F1300200EBC50000F130016846FFF783
:1053900072FF68460EF092FC0646D8F8040000EB57
:1053A000C50030300EF08AFC0746D8F8040000EB48
:1053B000C40030300EF082FC3844864212D2D8F855
:1053C0000410BDF8002001EBC5000286BDF80220E4
:1053D0004286BDF804208286BDF80620C2860819E0
:1053E00080F83091D8F80400641CB0F85001A04255
:1053F000B0D8D8F804006D1CB0F85001A8429CD871
:105400001FF02AF9D8F80400B0F85011D9B3016898
:10541000097C11F0020F17D012F03EF9401E04B2C1
:10542000D8F8040012F0EEF8401E03B20022114634
:1054300002A800940EF076FCD8F8040002A90268D5
:10544000926B516005F01AF9D8F804004FF480719E
:10545000303019F091FFD8F80400202100F5987041
:1054600019F08AFFD8F80400A0F850A1584622F09D
:1054700011FD0090D8F804000068436A1BB1D8F809
:1054800000200099984719F03FFD00F035F805B06D
:10549000BDE8F04F00F002B80802002070B50A4ED7
:1054A0000024C4EBC40556F82500002818BF19F0E5
:1054B000CDFD06EB85001C2119F05EFF601CC4B217
:1054C000042CEED370BD0000B8850020094949685E
:1054D000002908BF70474A6882421CBF0A6882429E
:1054E00003D10A7E42F001020A7649690029F2D10D
:1054F00070470000DC0100207047000004210148D3
:1055000001F094B8D08400201C21014801F08EB82D
:10551000E88400202DE9F05F0446DDE90A08002B4D
:1055200008BFB0F5807F00F0BE80B8F900C04FF032
:10553000FF35CCF1000C0CFB00FC05EB2C2C0FFA1A
:105540008CFCA4F800C0B8F902607642464305EB33
:1055500026252DB26580B8F90060891B41430226DB
:1055600006EB212109B2A180B8F90270D21B504389
:1055700006EB202000B2E080002B7DD046F2676071
:1055800013FB00F08114A1EBE075684200EB800092
:1055900003EB40066F1C284622F04EFF8246384639
:1055A00022F04AFF814605F15A0022F045FF0546E8
:1055B00007F15A0000B222F03FFF0246C6F10A008E
:1055C00000FB0AF15D4B09FB0611684302FB060074
:1055D00083FB01C183FB00204FEAA10C8210ACEBDE
:1055E000E171A2EBE07047114E11B8F800A0B4F9D8
:1055F0000000B4F9021007FB00FC06FB11C2B8F86A
:105600000290B4F904800AEBA22215B207FB08FB52
:1056100006FB00F207FB012006FB08FEB4F906803A
:1056200009EBA02003B206FB11B006FB18CC07FB68
:1056300001E107FB082206FB18B607FB08E70AEBA7
:10564000AC2C0AEBA02009EBA1210FFA8CFC09EB92
:10565000A2220AEBA62609EBA72700B209B212B2D2
:1056600036B23FB2AC45ACBFA846E0468642B4BFB6
:10567000B1468146C84500E01CE02DDAAC45ACBF20
:10568000A846E046A4F80080AC45CCBFE046A8465A
:105690008642CCBFB1468146C84522DDAC45D4BF69
:1056A0002846604620E0002020806080481EA080C0
:1056B000501E0EE0B8F8002062442280B8F80220A4
:1056C0002A446280B8F800201144A180B8F8021082
:1056D0000844E080BDE8F09F8642B4BFB0468046F3
:1056E000D0E7B042B8BF3046A0809A42B4BF10465F
:1056F00018468F42B4BFBC468C46604513DA9A42C6
:10570000ACBF1846104660809A42CCBF104618467F
:105710008F42CCBFBC468C46604509DD9A42D4BF5F
:105720001946114607E08F42B4BF38460846EAE7FB
:10573000B942B8BF3946E180BDE8F09F676666664A
:105740002DE9F04F04460368B0F90800E589081A0E
:10575000B4F90A1083B0511AD4E909C2B5F5807FB3
:105760004CD0A589002DA56B05FB00F005FB01F1D0
:105770004FEA60104FEA611104BF0CEB000A02EB24
:1057800001090CD0256BE66A05FB00F7704306FBA8
:10579000117705FB01000CEBA72A02EBA029B4F955
:1057A00004004FEA2A264FEA2925B0424FDD002E99
:1057B000A4BFB4F90610A94249DD002D47DB94F8D7
:1057C000341011F0040F46D011F0020F24D000FB6A
:1057D000056000EB4007D9194FF0030804F11400ED
:1057E000022211F801CB00F801CB521EF9D107EBD0
:1057F0000800184410F8010CA0751CE0256BE66A3F
:1058000005FB00F7704306FB117705FB01000CEB6D
:10581000A70A02EBA009C2E700FB056047004FF0B2
:10582000020804F11400DA19414612F8013B00F8AD
:10583000013B491EF9D194F8340010F0010F20D03B
:105840004EF20700ADF80000A18A814219D103B0E1
:105850000020BDE8F08F00272AB2236931B2B84694
:105860008B4604F11800019216F076FB0090BDF80B
:105870000000A082594604F11800019A16F0E2FADD
:10588000BAE7E07C002802BF012003B0BDE8F08F3A
:10589000A4F83CA0A4F83E90A4F84060A4F84250BC
:1058A000676484F8488003B02046BDE8F04FAFF34A
:1058B00000802DE9F04F044690F83C10026890F803
:1058C0003E0087B040F27F13702975DAB4F940C00A
:1058D0004FF0FF35BCF1010F48BF0025803101F0CA
:1058E000FF0870287ADAB4F942104FF0FF36012928
:1058F00048BF00268030C7B260690590A07D009047
:105900004FF0000B94F83400DA46D94610F0040F3B
:1059100075D094F84830606C04A913FB050010445E
:10592000022310F801CB01F801CB5B1EF9D1A0884E
:1059300094F8483003A910FB03F0636C06FB0030B9
:105940001044022310F801CB01F801CB5B1EF9D102
:10595000A38894F8480002A913FB00F3D4F844C0CC
:1059600006FB03C310FB05201844022310F801CBEB
:1059700001F801CB5B1EF9D194F8340010F0020F4E
:105980007CD094F84800636C10FB053C81188C4473
:105990001CF801BCB4F804C01CFB00FC06FB0C3373
:1059A000194411F801AC10FB05001844104410F81C
:1059B000019C74E000E011E09029DCBF00254FF06D
:1059C000FF088EDDB4F940C0B4F9046001250CF184
:1059D000010CB445A8BF0025591A80E79028DCBF08
:1059E0000026FF2788DDB4F94210B4F906C001266D
:1059F000491C6145A8BF0026181A7CE7FFE7B4F8E8
:105A00004000B4F94220284401B204F1180023698F
:105A100016F0A2FA0490B4F84200B4F940103044F1
:105A200002B204F11800236916F096FA0390B4F854
:105A300042002369304402B2B4F84000284401B265
:105A400004F1180016F088FA029094F8340010F06F
:105A5000020F24D0B4F84000B4F94220284401B227
:105A600004F1180016F0EEF98346B4F84200B4F9D8
:105A70004010304402B204F1180000E00FE016F0CC
:105A8000E1F98246B4F84200304402B2B4F8400072
:105A9000284401B204F1180016F0D4F9814694F8B4
:105AA0003400424610F0020F04BFFF20A07535D02D
:105AB000009911FB08F1C8F1FF001BFB0011C1F3B5
:105AC00007211AFB08F319FB0030C0F3072011FB74
:105AD00007F3C7F1FF0C10FB0C331B0AA375022957
:105AE00007D802288CBF0027002005D807B0BDE8E2
:105AF000F08F022898BFFF270098022898BF002245
:105B0000BBF1020F98BFFF22BAF1020F98BF4FF00E
:105B10000008B9F1020F98BF4FF0FF08002A04BF38
:105B20000498019007D0FF2A16BFDDE904100598FC
:105B300010F0C2FE0190B8F1000F04BF029800906F
:105B40000AD0B8F1FF0F08BF039804D0DDE90210B6
:105B5000424610F0B1FE0090002F04BFBDF80000D7
:105B6000A0820DD0FF2F08BFBDF8040007D001466A
:105B70003A46019810F0A0FE0090BDF80000A08207
:105B800007B00120BDE8F08F2DE9F0470446B0F9D9
:105B9000080046F2676100026062B4F90A00000280
:105BA000A062B4F90C0010FB01F18A14A2EBE175BC
:105BB000694201EB810100EB41066F1C684222F053
:105BC0003BFC8146784200B222F036FC8046C5F1AB
:105BD0005A0022F031FC0546C7F15A0000B222F00B
:105BE0002BFC0246C6F10A0000FB09F1284B684372
:105BF00008FB061102FB060083FB01C183FB0020AA
:105C00004FEAA10C8210ACEBE171A2EBE0704911FC
:105C10004011C4E90B10A07C16F06DFA94F8341012
:105C200060F3000184F83410A07C16F053FA94F865
:105C3000341060F3410184F83410A07C042818BFAC
:105C4000052822D0062818BF21F004011DD084F8B1
:105C5000341021682162A16921F0E00160F30401A0
:105C6000A08860F39421E08860F35F51A161E0892E
:105C70004FF4001101EB5001B1FBF0F0A063FF20E5
:105C8000A075208AA082BDE8F08741F00401DEE71C
:105C9000676666662DE9F04116460F468046124C4F
:105CA00022F006F9054633463A464146204616F0AC
:105CB0002DFE20B10020A062E06950B111E02C213E
:105CC000204619F059FB4FF00040A0620020BDE8CB
:105CD000F081284622F0DEF8E061002804BF0120B0
:105CE000E0612046BDE8F0810C85002010B514214C
:105CF0000B4800F09BFC0A4800F0A0FC04001CBF0D
:105D0000142119F039FB002C08BF10BD0548206094
:105D1000054860600548A0600548E06010BD0000CF
:105D2000F4840020B5C1010869C20108C9C4010892
:105D30007DC1010870B50D4604461021284619F0B2
:105D40001BFB20680078012808D0022808BFE06803
:105D500009D0042808BF0A2005D005E0208A288041
:105D6000608A688000E0686020684268002A08BF96
:105D700070BD2946BDE87040104700002DE9F04F86
:105D8000866A87B00446002E40F03C81A08A218AB2
:105D90000844A082E08A618A0844E08200200190E1
:105DA000039017F0B5F800680025AA4690F818B0DF
:105DB000206A0090B4F914100029D8BF4942B4F900
:105DC00016000028D8BF40428142CCBF01254FF0C9
:105DD000010A009800281CBFCBF10000029000F0DF
:105DE000C980102100981CF01AFA00287ED0D146F4
:105DF000A8464E46474600981BF09AFB10F0010F4C
:105E000008BF4FF0000810F0020F08BF002710F085
:105E1000040F08BF4FF0000910F0080F08BF00265C
:105E200000981BF0A3FC069000981BF023FB059044
:105E300000981BF0ABFB049000981BF01BFC06992C
:105E40000029DCBF0599002910DDB9F1000F03D04E
:105E5000B4F91610594505DA46B1B4F9162002997D
:105E60008A4203DC009901910C21039104990029D5
:105E7000D8BF002810DDB8F1000F03D0B4F914101A
:105E8000594505DA47B1B4F9142002998A4203DC76
:105E9000009901910321039106990029D8BF4FF081
:105EA000000905990029D8BF002604990029D8BF08
:105EB0004FF000080028D8BF0027B8F1000F03D02A
:105EC000B4F91400584514DA27B1B4F91410029843
:105ED00081420EDDB9F1000F03D0B4F91600584528
:105EE00007DA16B3B4F91610029800E00CE081420C
:105EF0001BDC002D14BF03200C2094F83C1060F331
:105F0000030184F83C1027E04FF4807100981CF0E6
:105F100086F935EA00001FD14FF4007100981CF09B
:105F20007EF93AEA000017D10FE04FF48071009833
:105F30001CF075F935EA00000ED14FF4007100989D
:105F40001CF06DF93AEA000006D100981BF086FAC1
:105F5000009000287FF445AF019858B194F83C10A8
:105F6000039860F3030184F83C100198A0620020BC
:105F7000A082E082019E002E04BF07B0BDE8F08F32
:105F80008021A56A28461CF04AF9A64F41F6FF7801
:105F9000002863D028461BF0E2FB012869D00228C4
:105FA0007BD003281CBF6786A4F8368076D02846AD
:105FB0001BF0CEFB012872D0022871D003281CBF31
:105FC0002786A4F834806CD0208E002808BF27864E
:105FD000A08E002808BFA4F83480608E002808BF77
:105FE0006786E08E002808BFA4F8368000220921C9
:105FF000304615F0CDF8607810F0020F1CBF07B0E6
:10600000BDE8F08F208A002801BF608A002807B011
:10601000BDE8F08F0025ADF80850ADF8045094F8B5
:106020003C0000F00F00032830467CD01BF09EFBA4
:10603000074630461BF01EFA0C2100910346B4F9C6
:1060400012103A46304609F049FCADF804003046DB
:106050001BF06EFA10F0010F78D1A7E041F6FF7344
:1060600039463A4604F13000CDF800800DF05AFE72
:10607000AAE7E88A0023401C01B241F6FF722846D5
:106080000AF090F86086E88A0023401E02B2394682
:1060900028460AF087F8E08689E703E014E030E05C
:1060A00042E054E0B5F91A10002341F6FF72284689
:1060B0000AF078F86086B5F91A2000233946284698
:1060C0000AF070F8E08672E7688BE98A0023401ACC
:1060D000401C00B200EBD07001EB600909F1010037
:1060E00001B241F6FF7228460AF05CF86086A9F119
:1060F000010002B20023394628460AF053F8E08630
:1061000055E7B5F91410002341F6FF72284609F04F
:10611000BDFF2086B5F9142000233946284609F032
:10612000B5FFA08650E72FE0B5F91810002341F61F
:10613000FF72284609F0AAFF2086B5F9182000232F
:106140003946284609F0A2FFA0863DE734E0288BB7
:10615000A98A0023401A401C00B200EBD07001EB6A
:10616000600909F1010001B241F6FF72284609F009
:106170008DFF2086A9F1010002B20023394628468E
:1061800009F084FFA0861FE71BF074FA074630462B
:106190001BF0FCF9032100910246B4F910103B46B4
:1061A000304609F09BFBADF8080050E7BDF9081038
:1061B0000029C8BFADF8085010F0020F05D1BDF995
:1061C00008100029B8BFADF8085010F0040F05D131
:1061D000BDF904100029C8BFADF8045010F0080F35
:1061E00005D1BDF904000028B8BFADF8045001AADC
:1061F00002A9204624F040FC0023BDF90420BDF98B
:10620000081030461DF09EFAA08ABDF80810084418
:10621000A082E08ABDF804100844E08207B0BDE81F
:10622000F08F000001E0FFFF2DE9F04FD0F828A02B
:1062300083B00446BAF1000F19BF94F83C0010F087
:106240000F0F03B0BDE8F08F16F062FE01900068FA
:106250004021457E50461BF0E2FF0026002804BF87
:106260006683268350461BF073FA814650461BF026
:1062700076FA804694F83C008E4F00F00F000C2810
:1062800002D003285CD093E02683B8F1000F34D00D
:10629000B4F91A504FF0000B16F03AFE0068002DCA
:1062A000407E18BFC0F164010DD00BEB05000FFA62
:1062B00080FB11FB05F087FB00204211A2EBE07090
:1062C00005B2002DF1D1ADF800B066836A46002119
:1062D000204624F0D1FB41F6FF72BDF90030514257
:1062E000504609F05FFFBDF800100123084402B2D8
:1062F000002150461DF026FA5AE0608BC5F164017A
:1063000010FB01F087FB00104111A1EBE0706083EE
:1063100050461BF0AFF8054650461BF027FA0C21FB
:1063200000910246B4F91A102B46504609F0D6FAED
:10633000608300230246194650461DF003FA37E0F9
:106340006683B9F1000F3FD0B4F918504FF0000B3D
:1063500016F0DEFD0068002D407E18BFC0F164011C
:106360000DD00BEB05000FFA80FB11FB05F087FB4E
:1063700000204211A2EBE07005B2002DF1D1ADF882
:1063800000B0268300226946204624F075FB41F6C2
:10639000FF72BDF900305142504609F077FEBDF85A
:1063A00000100123084401B2002250461DF0CAF932
:1063B000208B002807BF608B002803B0BDE8F08F5A
:1063C000B8F1000F40D122E0208BC5F1640110FB31
:1063D00001F087FB00104111A1EBE07020835046D3
:1063E0001BF0D4F8054650461BF044F903210091F8
:1063F0000346B4F918102A46504609F06FFA208374
:10640000002301461A4650461DF09CF9D0E750463D
:106410001BF0ACF9054650461BF02CF8002D0ADCA9
:10642000002811DD002D06DA01232A4600215046FE
:106430001DF088F908E0002806DA404202B2012384
:10644000002150461DF07EF9B9F1000F1CD15046D5
:106450001BF09CF8054650461BF00CF9002D0ADC99
:10646000002811DD002D06DA0123002229465046BE
:106470001DF068F908E0002806DA404201B2012365
:10648000002250461DF05EF90A215046019A14F090
:106490007FFE607810F0020F1CBF03B0BDE8F08FE4
:1064A00094F83C0020F00F0084F83C00A66203B092
:1064B000BDE8F08F1F85EB5170B584B00D46040028
:1064C00005D111F087F8040004BF04B070BD0026A8
:1064D000002D02BFA0F8506104B070BDADF800609F
:1064E000ADF8026011F08EF8401EADF804002046B1
:1064F00011F0D2F8401EADF806006A46294602A8FF
:10650000FEF71AFD002804BF04B070BD2068017CAE
:1065100011F0020F0CD0DDE90001C4E90C010120EB
:10652000A4F850016068002804BF04B070BD45E0C5
:106530008269002A1CBF02A990470025B4F85001C7
:10654000002811D904EBC50000F13001002202A897
:10655000FEF71EFD00281CBF04B070BD681C85B28C
:10656000B4F85001A842EDD880B220280ED204EB36
:10657000C000BDF808100186BDF80A104186BDF8BC
:106580000C108186BDF80E10C1860DE0A4F8506194
:10659000BDF800102186BDF802106186BDF8041018
:1065A000A186BDF80610E186B4F85001401CA4F89D
:1065B00050016068002804BF04B070BD21F0C0FD28
:1065C00004B070BD70B506000CBF00247468002CC8
:1065D00008BF70BD211D306845582146304600F087
:1065E00072F8204618F032FD2C00F3D170BD00285F
:1065F00018BF4068704702004FF000000CBF002138
:106600005168002914BF12687047091D401C515879
:106610000029FAD170470068091D4058704700688A
:1066200040587047002818BF8068704700224260B9
:10663000C91C21F0030182600160704738B504462F
:106640000068083018F04AFC002808BF38BD002157
:1066500000912268031D1150616800912268D15099
:10666000616811B10090226850506060A1680029F3
:1066700008BFA06038BD38B504460068083018F07F
:106680002DFC002808BF38BD002100912268031DA1
:10669000D150A168009122681150A16819B10090F1
:1066A0002268091D5050A0606168002908BF606021
:1066B00038BD30B14168002907BF8068002800203C
:1066C00070470120704781B0002804BF01B07047B7
:1066D0000023D0F804C00A1D8C450CD101688958EC
:1066E0004160002902BF836001B0704700930068D9
:1066F000435001B07047D0F808C08C450DD10268F6
:1067000051588160002902BF436001B07047009377
:106710000068091D435001B07047036859589A58E2
:10672000009221B1D0F800C00B1D4CF8032000915D
:10673000002A04BF01B070470068815001B0704763
:1067400010B5044600688268002A1CBF21469047A5
:1067500020680068002818BF2060F4D110BD806850
:10676000002818BFB0F91600704700002DE9F04767
:10677000054690B0408C189C40F004006884904618
:106780002A841E468946228928461BF0F5FB82464C
:106790002E842289494628461BF0EEFB0746688C6A
:1067A000BA4520F00400688407D14FEA0A41B1EBF2
:1067B000074F04BF10B0BDE8F087A5F820802289FC
:1067C000494628461BF0D8FB80462E844946284679
:1067D0000AF00BFD2189006842461FF0B2FE2089B5
:1067E000602821D147F6FF7AD04518BF57451BD105
:1067F00028461BF0A8FC00EBD070461028461BF082
:10680000A2FC00EBD0704010D04505D1711C421C99
:106810009142B4BF88469046574505D1711C421C31
:106820009142B4BF0F4617461948FFF707FF06000D
:1068300004BF10B0BDE8F0873560C6E90387208942
:10684000B0806846C6F808900CF02CFC1148FF2177
:10685000CDE9006010480290104803900020079096
:10686000CDE9080120880A9060889DF83E104042DA
:106870000B90E0680690002060F300018DF83E1058
:106880002069059068460CF0E9FC10B0BDE8F0877F
:106890000085002089DA02082DDD020869DC020883
:1068A00014210148FFF7C2BE008500202DE9F84FF2
:1068B0000646408C0024C0F3C5001746884625468E
:1068C000002888BF4FF0040940F20D81F16809EB00
:1068D000C500085810F0007F40F0FE8080B230EA1A
:1068E000080214BF00230123B8430CBF012000207D
:1068F000834200F0F18051F835A06A4641F610015C
:1069000050461FF0EDFB00287ED16A4641F611018A
:1069100050461FF0E5FB002878D16A4641F6120187
:1069200050461FF0DDFB002870D16A4641F6130186
:1069300050461FF0D5FB002868D16A4641F6150184
:1069400050461FF0CDFB002860D16A4641F6140185
:1069500050461FF0C5FB002858D16A4641F2690134
:1069600050461FF0BDFB002850D16A4643F20C018F
:1069700050461FF0B5FB002848D16A4643F20D018E
:1069800050461FF0ADFB002840D16A4641F201019C
:1069900050461FF0A5FBB8BB6A4641F204015046C1
:1069A0001FF09EFB80BB6A4641F2020150461FF079
:1069B00097FB48BB6A4641F2030150461FF090FB2B
:1069C00010BB6A4641F2050150461FF089FBD8B959
:1069D0006A4641F2060150461FF082FBA0B96A46A2
:1069E00041F2320150461FF07BFB68B96A4643F61C
:1069F0000F0150461FF074FB30B96A4643F60E0192
:106A000050461FF06DFB00E000E010B10320BDE830
:106A1000F88F6A4640F60A0150461FF061FB0028D5
:106A200055D16A4640F60B0150461FF059FBE0BBBA
:106A30006A4643F60F0150461FF052FBA8BB6A4658
:106A400043F60E0150461FF04BFB70BB6A4640F602
:106A50003C0150461FF044FB38BB6A4640F63D01FE
:106A600050461FF03DFB00BB6A4640F63A015046D7
:106A70001FF036FBC8B96A464FF4046150461FF058
:106A80002FFB90B96A4640F6450150461FF028FB9F
:106A900058B96A4640F6410150461FF021FB20B923
:106AA0006A4640F64201504600E010E01FF018FB35
:106AB00068B96A4640F6430150461FF011FB30B9F1
:106AC0006A4640F6490150461FF00AFB08B102240D
:106AD00002E0002C08BF0124708C6D1CC0F3C500BF
:106AE000A8423FF6F3AE2046BDE8F88F0148406863
:106AF00070470000080200207047C0F30410072808
:106B000088BF07207047000010B518210348FFF721
:106B10008DFD03490120087010BD0000AC840020E9
:106B200090030020002808BF70472DE9F041174668
:106B30000D460446F9F770FDDFF838800646294611
:106B4000D8F80820204690470546D8F80820601954
:106B50003946904701462846721A824238BFBDE83E
:106B6000F0814318E35C2354401C8242F9D2BDE813
:106B7000F0810000A40300202DE9F041084E1546E5
:106B80000C4672681F46804619469047206020B127
:106B9000386872684044002190472860BDE8F08161
:106BA000A40300202DE9FF4F8DB083461A980026DC
:106BB000002818BF0680BBF1000F02BF002011B0F3
:106BC000BDE8F08F9BF80000002819BF0E98002840
:106BD00011B0BDE8F08F002005901B9810F0060F53
:106BE00018BF002014D01BF800100A2918BF0D2967
:106BF00004D0002918BF401CF5D100E0401C1A99B0
:106C000000291CBF4FF0FF320A8011B0BDE8F08FA1
:106C10001B9810F0020F1CBF41F6FF7010900496F5
:106C200004981BF8000000281CBF1098002840F3AF
:106C3000DE800498002106910BEB000201920E9A6F
:106C40000A920F9A0992109A08921B9A0DF118094C
:106C5000079200280CBF012000200B90019800280B
:106C60001FBF007800280A98002808BF0F467CD074
:106C700012F0020F1CBF41F6FF70089000276E4A09
:106C800002970397009752683C46BA464FF0FF3888
:106C900002A9019890470546029803900198007850
:106CA000002876D0644A03A9019852689047009062
:106CB00007980AF1010A10F0010F14D00020232DCB
:106CC00004D0F1B201291FD068B15AE016F0FF00DC
:106CD00008BF012655D0012808BF002603D002288E
:106CE00008BF00264DD02946009A0A9814F080FB70
:106CF00000B221180CB2002802DD0998204404B229
:106D0000B8F1FF3F0AD103E0202D08BF022638E08A
:106D10000998211A08988142C8BFB8460A2D18BFA1
:106D20000D2D17D00022A5F59C4145F2A5108142FA
:106D300010D942A10020097859B140A10B5CAB42A7
:106D400001D1012205E0401CC0B23CA1095C002930
:106D5000F3D172B1002F08BFB8F1FF3F04D1B9F1F0
:106D6000000F18BFC9F8004000E024E0AAF1010AB2
:106D70000FE0B9F1000F04D0B8F1FF3F08BFC9F828
:106D80000040DDE9027002900198009DC05D00287E
:106D900088D1B8F1FF3F05D00B98002818BF4746AF
:106DA00032D008E0BAF1000F04D00D2D04BF0098D6
:106DB0000A2800D1029F10990698091A09B2109169
:106DC0000599084400B205908FB10498C119049147
:106DD0009BF800000A2818BF0D2808D01BF80100F6
:106DE0000A2818BF0D287FF41BAF481C0490049894
:106DF00090B11A98002818BF059801D01A990880F8
:106E0000049811B0BDE8F08FB9F1000F1CBF00204D
:106E1000C9F800000027CEE7074A04A9584652687F
:106E200090471A9A002AEBD0014600220E9814F0DF
:106E3000DFFA00B20590E1E7A4030020202C2E3BEE
:106E40003A2D5F00002814BF002A70472DE9F04159
:106E5000164688460746F9F7DFFB04463046F9F741
:106E6000DBFB050008BFBDE8F0812C440D4A41461C
:106E700038469268904701462844A04205D8621BD4
:106E8000BA5C3A55641EA042F9D97818002D08BFA3
:106E9000BDE8F08116F8011B00F8011B6D1EF9D149
:106EA000BDE8F081A403002000230278232902D04A
:106EB000012A0ED013E0002A08BF01210DD00021C5
:106EC000012A08BF01700AD0022A04BF0170012301
:106ED00005E0202908BF022100D1017001231846D6
:106EE00070472DE9F0410B460F4606460246002149
:106EF000084621F0D9FC04464FF00008401C17F06A
:106F0000EDFF050008BFBDE8F08105F804803B46B1
:106F10003246611C21F0C8FC2846BDE8F0812DE90D
:106F2000F05F1F46DDF8288014000D46824618BF2A
:106F30004FF0010911D0660806FB075B5946504621
:106F4000C0470028B8BF34460BDD29EA0400C0EB77
:106F500054040BEB0705002CEDD14FF00000BDE809
:106F6000F09FF8DB5846BDE8F09F2DE9F04F85B063
:106F70004FF03009DDE91365DDE90E4CDDE91178EC
:106F8000DDF840A015F0020F20D1002E18BF15F03B
:106F9000010F05D005F00C0B5BEA0A0B18BF761E3B
:106FA000C4453EBFBCF1200F04F80C900CF1010C5D
:106FB000F6D315F0010F18BF664507D9BCF1200FB5
:106FC0003CBF04F80C900CF1010CF2D315F0100F3B
:106FD0003CD015F4806F0FD1BCF1000F0CD0C4452C
:106FE00018BFB44508D1BCF1010C05D0102F08BF63
:106FF000ACF1010C05D001E0102F02D0022F15D00A
:107000001CE015F0200F08D0BCF1200F3BD2582710
:1070100004F80C700CF1010C10E0BCF1200F32D21E
:10702000782704F80C700CF1010C07E0BCF1200F7C
:1070300029D2622704F80C700CF1010CBCF1200F6E
:107040003CBF04F80C900CF1010C1CD2BCF1200FD9
:1070500019D2BAF1000F05D02D2704F80C700CF1ED
:10706000010C10E015F0040F05D02B2704F80C706C
:107070000CF1010C07E015F0080F04D0202704F8EC
:107080000C700CF1010CCDE9004CCDE9026500F06B
:1070900048F805B0BDE8F08F2DE9F04F91B000241D
:1070A000DDE91ACADDE91E85DDE91C69BCF1000FC6
:1070B00008BF25F0100515F4806F0DF1200B02D0EC
:1070C000BCF1000F1BD0BCFBF6F706FB17C7FFB2E5
:1070D0000A2F38BF303708D315F0200F14BF4FF0F8
:1070E000410E4FF0610E77440A3FBCFBF6FC0BF8F3
:1070F0000470641CBCF1000F18BF202CE3D3CDF842
:1071000000B0CDE9014ACDE90585CDE90369FFF776
:107110002CFF11B0BDE8F08F9A4238BF88547047F9
:1071200070472DE9FF5F1446DDE90F57DDF844A0F5
:10713000DDF838B0804691461AF0030F0BD12E4689
:10714000BD4208D22246641C2020039B0199C047FF
:10715000761CBE42F6D34DB12246641C6D1E039BC5
:107160001BF805000199C047002DF5D11AF0020F58
:107170001CBFA4EB0900874209D92246641C2020C9
:10718000039B0199C047A4EB09008742F5D804B0DE
:107190002046BDE8F09F70472DE9FF4F99B081462A
:1071A0001A98269E1C464FF0000A002808BFDFF8F8
:1071B000EC952078002800F05882C0B2252808BF3E
:1071C00000253DD0DDE91A1352460AF1010AC847ED
:1071D000641C00F046BA0ADC202808BF45F0080508
:1071E0002ED0232808BF45F0100529D009E02D280E
:1071F00008BF45F0020523D0302808BF45F001053F
:107200001ED0C0B20027A0F1300109299CBF002781
:107210006FF02F0102D92A281AD00BE0204607EB85
:107220008702007801EB4202871814F8010F30380A
:107230000928F3D920784FF000082E2811D02DE02E
:1072400014F8010F2B2808BF45F00405F8D0C2E759
:1072500056F8047B002FBCBF45F002057F42641C3A
:10726000E8E714F8010F45F48065A0F13001092921
:107270009CBF4FF000086FF02F0102D92A2816D0CA
:107280000CE0204608EB8802007801EB420200EB9C
:10729000020814F8010F30380928F2D920786C2838
:1072A00019D00DDC682834D06A281AD01CE056F8B2
:1072B000048BB8F1000FD8BF4FF00008641CEDE755
:1072C000742808BF45F480750DD07A2804BF45F4B2
:1072D0008075641C08E014F8010F45F480756C2873
:1072E00002D145F40075641C2078652800F09E8169
:1072F0002ADC50283DD016DC252800F0468245289F
:1073000000F09481462800F07C81472800F08E81AF
:1073100012E014F8010F45F08005682808BF45F019
:107320004005E1D1DFE7582818BF622821D0632843
:1073300000F0A88164281CD0DDE91A1352460AF136
:10734000010AC84700F08CB9702812D00ADC662800
:1073500000F05781672800F06981692818BF6F28FD
:1073600007D0E9E7732800F0BD81752818BF782899
:10737000E2D1782814BF58284FF0100B1BD070288A
:1073800018BF50280ED06F2808BF4FF0080B1FD031
:1073900062280EBF4FF0020B4FF00A0B25F01005CC
:1073A00016D010E060784FF0100B45F48875562821
:1073B00008BF641C02D12078582802D020785028B9
:1073C00001D145F02005C0B2692818BF642801D05A
:1073D00025F00C0515F4806F18BF25F00105207805
:1073E000692818BF64284CD056287DD015F4007F3A
:1073F0007BD01A98CDE908A01B980790F01D20F0CB
:10740000070202F10806D2E900010022009292462A
:10741000019250EA010208BF25F0100515F4806FB3
:1074200002D050EA01021CD05A46019BF8F749FFEE
:107430000346D0B20A2838BF303006D315F0200FEB
:1074400014BF4122612210440A3810AA02F80A002F
:1074500018460AF1010A53EA010202D0BAF1200FDC
:10746000E2D3CDE90575CDE903B810A900980091E4
:10747000CDE901A0DDE908214846079BFFF775FD2E
:10748000D2E015F4007F58D0F01D20F0070101F183
:107490000806D1E900021A99CDE910A11B990791BC
:1074A00000210B46091A73EB0201B8BF114603DB3A
:1074B0000021404261EB0201002AB4BF01220022F8
:1074C000009200229246019250EA010208BF25F084
:1074D000100515F4806F02D050EA01021FD05A4601
:1074E000019BF8F7EEFE01E053E063E00346D0B203
:1074F0000A2838BF303006D315F0200F14BF4122C0
:10750000612210440A3808AA02F80A0018460AF153
:10751000010A53EA010202D0BAF1200FDFD3CDE90C
:107520000575CDE903B808A900980091CDE901A03F
:10753000DDE910214846079BA0E715F4807F11D0B4
:1075400056F8040BCDE90475CDE902B8C10F002847
:1075500014DDCDE90001DDE91A1352464846FFF774
:107560009BFD61E015F0400F0AD016F8040BCDE941
:107570000475CDE902B8C10F0028EADC4042E8E713
:1075800015F0800F1ABF36F8040B00B256F8040B42
:10759000EDE756F8040B41680968009103681B98F1
:1075A000A0EB0A021A9800EB0A014846FFF7F4FD27
:1075B000824455E015F4807F07D0CDE90475CDE90C
:1075C00002B8002156F8040BC3E715F0400F0FD0A6
:1075D00016F8040B0021CDE90001CDE902B8CDE990
:1075E0000475DDE91A1352464846FFF755FD1BE0C6
:1075F00015F0800F1ABF36F8040B80B256F8040B52
:10760000E8E7462808BF45F02005F01DCDF80080CA
:10761000CDE9017520F00706DDE91A135246B6ECF4
:10762000020B4846FDF7C0FA824619E0672814BFEE
:10763000472845F40065452814BF472845F0200534
:10764000F01DCDF80080CDE9017520F00706DDE9D9
:107650001A135246B6EC020B4846FDF7A9F88246CB
:10766000641C207800287FF4A8AD1B98824534BFA5
:107670005246421E034600201A99C8471DB0504684
:10768000BDE8F08F4FF0010815F0020F0FD14FF059
:107690000208012F0BD9DDE91A1352460AF1010A3B
:1076A0002020C847404608F101088742F3D8DDE9A9
:1076B0001A13524616F8040B0AF1010AC84715F0CE
:1076C000020F1CBF08F101054745C9D9DDE91A13AE
:1076D00052460AF1010A2020C84728466D1C8742FD
:1076E000F4D8BDE756F8042B0092B8F1000F14BF90
:1076F00041464FF0FF31104603781BB1491E40F15F
:107700000000F9D2A0EB020B15F4806F02D0D8452F
:1077100098BFC34615F0020F1AD158460BF1010B62
:10772000B84215D2DDE91A1352460AF1010A2020A7
:10773000C84758460BF1010BB842F3D308E0009953
:107740005246491C0091DDE91A130AF1010AC847A3
:107750000098007828B115F4806FF0D0B8F10108D6
:10776000EDD215F0020F1CBF0BF101055F457FF64E
:1077700077AFDDE91A1352460AF1010A2020C84703
:1077800028466D1C8742F4D86AE7DDE91A13524691
:107790000AF1010A2520C84762E7000021710008AC
:1077A00010B5084C012020700748FEF720FF002884
:1077B000A06803D0BDE8104020F0C2BCBDE8104076
:1077C00020F0B2BC64030020DC8400202DE9F047E7
:1077D000584E706820F05EFB0546707880F001001E
:1077E00070705548FEF703FF040070D000274FF675
:1077F000FF784FF00109377094F83E007178C0F3BC
:1078000080028A427ED061F3820084F83E00E16A01
:107810004A1910F0080F1BD1002919DC002A17DBC8
:1078200010F0010F09D1216939B120468847E1697B
:107830000144E161616A08446062A16800291CBFDB
:107840002046884794F83E0040F0080084F83E0047
:10785000E06A4019E0625AD4A16A8842C8BFE16276
:107860002046A16988470146206A884205D02162E6
:107870006268002A1CBF20689047D4E90A0181424F
:1078800045DB94F83E0010F0020F02D0A08F40B10B
:107890001EE0A08F28B140451CBF401EA08717D016
:1078A000F4E7606B20B194F83E0010F0020F0FD0A7
:1078B00021462148FEF707FFFFF772FFE1682046E7
:1078C000002918BF8847204617F0C0FB1FE02BE0B7
:1078D000A06B4142E162606BC8B194F83E0010F0C9
:1078E000020F02D1206B4142E16294F83E0029EA86
:1078F000500161F3410084F83E00626AE069E26190
:10790000606200E009E0626BA06AA26260633078A6
:1079100018B10948FEF76BFE03E021460648FEF762
:107920007AFE04007FF467AF20F0C2FA7060BDE811
:10793000F087000064030020DC84002070B504465A
:1079400040680D46002818BFFFF7F8FF2268002A9C
:1079500008BF70BD29462046BDE87040104789B277
:107960000CF0D6B889B20CF02FB910B541EC100B61
:10797000FBF7E2FC51EC100B10BD30B5054683B0AF
:1079800048680C4620F0030001AA694621F0E3FA9A
:10799000DDE9001205EBC11000EB8203986B60B1CA
:1079A00064B1C4E90205C46004F10B0C04F10800E1
:1079B0002CF0030C604502D0FEE7FEE7FEE79C6377
:1079C0000123286903FA01FC40EA0C00286105EB59
:1079D000810003FA02F241691143416103B030BDF5
:1079E000F0B583B04FF0000704460E0001973D4606
:1079F00000974DD0084601AB6A46802909D3B0FAFA
:107A000080F1C1F11A014FF0010C0CFA01F1491E8D
:107A10000844194621F09FFA0198092838DA04EB46
:107A20008002009953694FF0FF3202FA01F11940C8
:107A300013D1401C216902FA00F0084008BF3D46FE
:107A400018D0C143491C0840B0FA80F0C0F11F00B3
:107A500004EB80010190496999B1CA43521C11405D
:107A6000B1FA81F1C1F11F0104EBC01000EB8100FC
:107A70000091856B65B1686820F00300B04201D2C7
:107A8000FEE7FEE7DDE900322946204622F0FBFD55
:107A900003B02846F0BD70B5064682B00D460846D4
:107AA00000F02BF8040025D0606810F0010F1ED004
:107AB000696831F003011ED020F003006A4601A975
:107AC00021F049FADDE900322146304622F0DBFDA3
:107AD0006968284631F003020ED062682C4622F015
:107AE0000302121D1144416000F007F8046002B067
:107AF000284670BDFEE7FEE7FEE700F10802406899
:107B000030F00301A1F10400104418BF7047FEE7F4
:107B10002DE9F04107460C004FF0000008BFBDE81A
:107B2000F08152B31146606810F0010F26D020F0AA
:107B3000030001F11002824210D8204600F01FF825
:107B4000054626462046FFF7D8FF066068682946A6
:107B500040F0020068603846FFF70FFF2046FFF74D
:107B6000CCFF416821F002014160606820F0010013
:107B7000606004F10800BDE8F081FEE7FEE770B543
:107B800000F108030A1F9C18426804F1080322F060
:107B9000030CACEB0102DD1C25F00305121FAB4208
:107BA00000D0FEE753181B1D9C4500D0FEE723794B
:107BB00003F003031A43626022F003020C2A00D28E
:107BC000FEE7027902F00302114341602046FFF70D
:107BD00094FF0460416841F002014160606840F038
:107BE00001006060204670BD10B513F0CDFA0B495E
:107BF000D1F89020904205D1D1F88C00BDE810401A
:107C00001EF014B9D1F89420904218BF10BDD1F8DD
:107C10008C00BDE810401EF003B800003C000020BE
:107C200038B5044615F074F9054615F0A8F930B1D9
:107C3000218F2046E1861AF038FE012038BD01214F
:107C4000606A1AF0ECFA90F0010F20461FD012F093
:107C50005FFE228FE18E8A420DD02187E08E009058
:107C60006A461C21204613F093FA012818BF38BD3C
:107C700020461AF01AFE284615F08CF90428DCD1AB
:107C8000204619F08DFB002114F0B4F8D5E713F06D
:107C900075F8D2E770B513F077FA054619F0DEFBF8
:107CA000044628460CF0B8FD01462046BDE8704069
:107CB00001221FF087B900002DE9F04F0C4687B074
:107CC0008046002119F07EFA40B3DFF808B40021A5
:107CD0004046BBF804201AF04FF9814601460020C7
:107CE00031F91030A3F5F852FF3A18BF401CF7D114
:107CF0006061400017F028F960606069400017F08B
:107D000023F9E0606069002600284CD939F9161083
:107D1000F14DA1F5F8509A3807D040E007B0204661
:107D2000BDE8F04F1C2117F027BB0027404619F093
:107D30005CFA00282FD93946404619F043FA8246AA
:107D4000E6491AF073FAD0B950460021BBF810206A
:107D50001AF012F9C0B2012811D150460021BBF827
:107D60000E201AF009F9C0B2B04208D1504619F0FD
:107D70001CFBA84203DB504619F017FB05464046A2
:107D80007F1C19F032FAB842D5D8002DA4BFE068A4
:107D900020F8165003DAE168002021F81600606927
:107DA000761CB042B2D800266169354630460029BB
:107DB00084BF41F69A735A1C19D939F910109142AF
:107DC000A2BF3144A1F5F8569B3E0CDA994203BF9D
:107DD000E16831F810102944D4F80CC01CBF2CF80D
:107DE000101029440DB26169401C8142E5D840461B
:107DF000002141F614021AF0BFF807B2404619F00C
:107E00005EFA6269C2F1010107FB0100401B01B289
:107E10000029B8BF00214FF0FF334FF0000C60463F
:107E2000002A88BF41F69B751CD939F91020AA4257
:107E300009DBA2F5F8529B3A11FB02F2B2FBF6F213
:107E4000E76827F810206269401C8242EDD8002BB9
:107E500008DBA6EB0C004843B0FBF6F0081AE1681B
:107E600021F813000021BBF8002040461AF084F8E6
:107E70008146404619F043FA00904946002041F6F9
:107E8000FF7231F91030934218BF401CF9D12061C4
:107E9000400017F059F820602069400017F054F8AE
:107EA000A06020690026002844D939F916108A4DAF
:107EB000A1F5F8509A3839D10027404619F095F9C4
:107EC00000282FD93946404619F07CF9824683496B
:107ED0001AF0ACF9D0B950460021BBF80A201AF0CC
:107EE0004BF8C0B2012811D150460021BBF8082040
:107EF0001AF042F8C0B2B04208D150461AF023F945
:107F0000A84203DB50461AF01EF9054640467F1C86
:107F100019F06BF9B842D5D8002DA4BFA06820F89D
:107F2000165003DAA168002021F816002069761C9B
:107F3000B042BAD8002521692E462846002984BFC0
:107F400041F69A72531C19D939F910109942A2BFFF
:107F50002944A1F5F8559B3D0CDA914203BFA16875
:107F600031F810103144D4F808C01CBF2CF81010A0
:107F700031440EB22169401C8142E5D840460021BF
:107F800041F6150219F0F8FF2369009900B2C3F118
:107F9000010200FB0210801B01B20029B8BF0021C2
:107FA0004FF0FF3C00221046002B88BF41F69B7625
:107FB0001FD939F91030B3420CDBA3F5F8529B3AC4
:107FC00012B211FB02F3B3FBF5F3D4F808C02CF89E
:107FD000103084462369401C8342EAD8BCF1000F6C
:107FE00007DBA81A4843B0FBF5F0081AA16821F88E
:107FF0001C00002141F61502404619F0BDFF0FFAA2
:1080000080F9002141F61402404619F0B5FF00B294
:108010000490002141F26A42404619F0ADFFC0B21F
:1080200001280CBF01260026002141F20102404632
:1080300019F0A2FF0FFA80FA002141F20402404633
:1080400019F09AFF42F2D17705B2BA4505BFB8F8E8
:10805000220010F4806F4FF0000A4FF0010A4046F2
:1080600019F04DF9059040460021BBF8022019F0A7
:1080700083FFC2B22369A0682168CDE90030CDE951
:1080800002164B465146059809F02EF92083BD4251
:1080900005BFB8F8220010F4007F002501254046F6
:1080A00019F00DF9064640460021BBF8062019F0EC
:1080B00063FFC2B260694FF0000C6368E1688DE84D
:1080C0000B1029463046049B09F00EF9608307B077
:1080D000BDE8F08F3402002001E0FFFF0100060040
:1080E0002DE9F84F0022054611461BF09BFC0021AC
:1080F00041F23202284619F03FFF0446002141F6C2
:108100001302284619F038FF20440FFA80F90021A5
:1081100041F61202284619F02FFF764920440FFA43
:1081200080F8096800916A462C21284613F030F83F
:10813000BDF80000704C404448440FFA80FA2846CD
:1081400019F053F80746002141F26A42284619F017
:1081500013FFC0B201284FF0000B0CD0002F71D9D3
:10816000A8686649006850F82B6030461AF05EF83F
:1081700000287CD169E0002F64D9A8685F490068B5
:1081800050F82B6030461AF051F8002845D15C4970
:1081900030461AF04BF8A0B9304619F05FF980B1BB
:1081A000002141F2690219F0E7FE0004000C08D03A
:1081B000B5F91800B6F91410401A411C8C4220DDA4
:1081C0002AE0002141F20902304619F0D5FE10F0F4
:1081D000FF0018BF03280CD0062818BF082808D0B5
:1081E000002141F20702304619F0C6FE00B250B13C
:1081F00013E0B5F91800B6F91410401A411CA14259
:108200000ADB0C4608E0308BB18A401A401C00B2F1
:108210004844A042A8BF044624B20BF1010BBB4561
:10822000ABD341F6FF70C44218BF04EB080000D086
:1082300004B241F6FF70C44218BF5445C4BF204683
:10824000BDE8F88F5046BDE8F88F2D49304619F04B
:10825000EDFFB0B9304619F001F990B1002141F2BB
:10826000690219F089FE0004000C0AD000E034E035
:10827000B6F91800B5F91410401A411C8C4220DDE3
:108280002AE0002141F20902304619F075FE10F093
:10829000FF0018BF01280CD0042818BF072808D0F9
:1082A000002141F20802304619F066FE00B250B1DA
:1082B00013E0B6F91800B5F91410401A411CA14298
:1082C0000ADB0C4608E0308BB18A401A401C00B231
:1082D0004044A042A8BF044624B20BF1010BBB45A9
:1082E000FFF43EAF41F6FF70C44218BF04EB090033
:1082F0009ED19EE7A08F050801E0FFFF010004006A
:108300000100060000B50B88B0F808C083B06344D4
:10831000ADF800304B88B0F80AC06344ADF80230C5
:108320008B88B0F808C06344ADF80430C98843892D
:108330001944ADF8061043696946984703B000BD7B
:108340002DE9FF4F074689B0C8781A9C00F001005C
:1083500015460E46002814BFFC48FD48079014BF80
:10836000FC48FD4805900CBFFA48FB480690608821
:10837000A1884FF0000EA0EB0100D4F8109001B2DC
:1083800072467046B9F1000F19D9E3684FF00C0A34
:108390004FF0080B00EB800C4FF0100808EB8C0836
:1083A00013F8088018F0010F1CD00BEB8C0C33F87D
:1083B0000CC0A1EB0C0109B2401C8145EAD84FF07A
:1083C0000008B9F1000F51D908EB88031020D4F848
:1083D0000CC000EB830001901CF8000010F0010FAE
:1083E00007D03EE00AEB8C0C33F80CC0624412B2AA
:1083F000E2E791FBF2F90C2000EB830000903CF8DF
:1084000000004FF0060A00FB09F04FF004090AEBE8
:10841000830A09EB83093CF90AA000B23CF90990F0
:108420008245CCBF8346D346D94503DC8245CCBFC9
:108430008146D146814505D001984FF0010AD646C4
:108440004CF800A0D4F80CC0082000EB83002CF8F6
:108450000090E3680098185A101A02B2A1EB0900C4
:1084600001B2206908F101084045ADD8BEF1000F06
:108470007FF47DAF002141F26A42384619F07CFD5D
:10848000C0B2012818BF002004900020ADF80800F9
:10849000ADF80C0003A902A8CDE900012089B4F9C8
:1084A000022003B23078189921F00AFDF17804987F
:1084B000014207D0384618F022FFBDF808100844E2
:1084C000ADF808002946384618F07CFE804600F0DA
:1084D0006AB9A249404619F0A9FE80B1F078C0F30C
:1084E000800020B16D1E40F14E8100F051B9B86896
:1084F0006D1C41688D42C0F2538100F049B9984823
:1085000000210289404619F037FD10F0FF0F52D0CC
:1085100022694FF000094846002A88BFE16810D957
:1085200000EB800351F82330434507D100EB800274
:10853000082000EB820031F9009002E0401C8242EA
:10854000EED8F07810F0010FB8F8220014BF40F414
:10855000806040F40070A8F82200059908F114002A
:10856000884748452DD040461AF09FF9B8F81400C6
:10857000ADF80000B8F81600ADF80200B8F8180021
:10858000ADF80400B8F81A00ADF80600079A49469D
:1085900008F1140090476A462921404612F0F8FD80
:1085A000404618F05BFF4246222112F0F1FD4046A2
:1085B0001AF07BF905E0B8F8220020F4C060A8F8B2
:1085C000220070784FF0000B01280FD0022815D13F
:1085D000069908F114008847B4F90010491C21F0ED
:1085E0000101081A00EBD070401005E0069908F16F
:1085F000140088472188081A0FFA80FBF178049844
:10860000014208D0059908F114008847BDF8081008
:10861000081AADF80800002143F20C02404619F098
:10862000ABFC0FFA80FA002143F20D02404619F02C
:10863000A3FC0FFA80F9404619F085FD00904046F2
:1086400018F0B3FE01460AF4C040B0F5005F13D144
:108650002AF4C040B0F5FA6F0EDCB0F57A7FC8BFDF
:10866000C0F57A70009A42433E4880FB02204211D6
:10867000A2EBE0700FFA80FA09F4C040B0F5005F99
:1086800012D129F4C040B0F5FA6F0DDCB0F57A7F55
:10869000C8BFC0F57A704143324880FB01104111D8
:1086A000A1EBE0700FFA80F9B8F814101698401A90
:1086B000504402B2B8F816101798401A484401B254
:1086C000F07800F00100002814BFBDF908005846FA
:1086D00010440FFA80F908BFBDF908B00BEB010098
:1086E0000FFA80FA59EA0A001FD040461AF0DDF866
:1086F000B8F814004844A8F81400B8F81800484422
:10870000A8F81800B8F816005044A8F81600B8F8F1
:108710001A005044A8F81A0040461AF0C6F801237F
:108720005246494640461AF076F9F17804980142DB
:108730001AD1059908F11400884719990844BDF821
:108740000C100844BDF80810084414E03F3D01082F
:10875000353D0108D93C0108A53C0108010006008F
:10876000240200201F85EB51BDF80C101998084415
:10877000BDF80810081AADF80800F078C0F38000C2
:1087800048B16D1E04D4B868006850F825800AE02E
:108790004FF0000807E0B8686D1C41688D42F7DAB9
:1087A000006850F82580B8F1000F1CBF0C98854276
:1087B0007FF48FAE0DB0BDE8F08F002908BF704781
:1087C0002DE9F04F8BB00446018300680F46002866
:1087D00018BF16F03BFC07EB4700062101EB4000F9
:1087E00016F07CFB022101EB47010144E16004210A
:1087F00001EB870120600144C4E901010121002649
:10880000012F2ED0F800083016F09EFB00EB8701F8
:108810000B1DB90009B20025C1F10102ADF8042019
:108820008E10ADF80010ADF802502A46069602955B
:108830000029C0F2E7804FF003084FF005090DF161
:10884000180A0DF1080B4FF0000CBDF90460002E62
:1088500012DCBDF8021008EB41013144ADF8041000
:1088600018E0B4220270E0680680E0684180A068E9
:1088700006800BB0BDE8F08FBDF802E0BDF8001037
:10888000AEEB010E09EB4E0E7644491EADF80460C6
:10889000ADF80010BDF80210491C0EB2ADF8026030
:1088A000BDF900108E420BDC8E104AF82C6001F0EE
:1088B00003014BF82C100CF1010CBCF1040FC4DBCC
:1088C000BCF1040F74D1DDF824C00699614515D1BF
:1088D00020F8121023F81250DDE9021C6144DDE992
:1088E00004C6B4446144D4F804C00CF80210D4F8AF
:1088F00004C009010CF80210511C7AE0DDF81CC01C
:10890000614529D020F8121023F81250D4F804C081
:1089100002990CF80210D4F804C009010CF80210F6
:10892000511C069A09B2521E20F8112023F811504A
:10893000DDE9032C6244DDF814C00CF1040C624440
:10894000D4F804C00CF80120D4F804C012010CF8CB
:108950000120491C0AB24DE0DDF820C020F81210B9
:10896000614523F81250DDE9021C614421D0D4F89E
:1089700004C00CF80210D4F804C009010CF802106D
:10898000511C069A09B2521E20F8112023F81150EA
:10899000DDE9042C6244D4F804C008320CF801204C
:1089A000D4F804C012010CF80120491C0AB221E0DD
:1089B00028E0DDF810C06144D4F804C00CF80210BF
:1089C000D4F804C009010CF80210511C069A09B22F
:1089D000521E20F8112023F81150059AD4F804C033
:1089E0000C320CF80120D4F804C012010CF801205C
:1089F000491C0AB2BDF90210BDF900C06D1C6145E9
:108A00007FF721AF40F2D32117FB01FC00EB4205B9
:108A10004FEAAC2135F9025C8D4205D103EB4205EA
:108A200035F9025C8D421FD0ACEB812CBCF5007F88
:108A300004DC0CFB0CFC4CF3CF3C07E0CCF5806C69
:108A40000CFB0CFC4CF3CF3CCCF10F0C20F81210BB
:108A500023F81210616801F802C061684FEA0C1C2B
:108A600001F802C0511C0AB2911E11D433F811C092
:108A700020F812C030F811C023F812C0D4F804C096
:108A80001CF801500CF80250521C12B2491EEDD5D0
:108A9000E6684FF0000C6146A6F800C0002A1FDD12
:108AA000E56825F81C10A66830F8115026F81C500F
:108AB00033F9115065450DD191420BDAA66830F9B2
:108AC000117036F81C50BD42A8BF3D4626F81C5018
:108AD000491CEDE70CF1010C0FFA8CFC9142DFDB35
:108AE00016F0A2FA0BB0BDE8F08F07B582B0022AEB
:108AF000BDF80C009CBF05B000BDC0F3C403BDF8B9
:108B00000810C1F3C40C63441F2B28BF1F2363F359
:108B1000C70143079B0E03EB503301F0070C03EB37
:108B2000CC0303EB5133ADF808103F2B28BF3F2394
:108B30004FEAD30C6CF3020163F34F31C0F304200E
:108B4000C1F304231844ADF808101F2828BF1F20C4
:108B500060F30C21ADF80810FF2A02BF88B205B0FF
:108B600000BDDDE902010DF061FE0090BDF80000DE
:108B700005B000BD07B582B0022A9EBFBDF80C004B
:108B800005B000BDBDF80810BDF80C00C1F3C4036A
:108B9000C0F3C40C13FB0CF35B0963F3C701C1F30F
:108BA0000423C0F3042C13FB0CF35B0963F30C21C7
:108BB0004B074FEA407C9B0E4FEA9C6C03EB513312
:108BC0000CEB503013FB00F35B0A63F302014B071D
:108BD0009B0E03EB513313FB00F0800960F34F3120
:108BE000ADF80810FF2A02BF88B205B000BDDDE96C
:108BF00002010DF01BFE0090BDF8000005B000BDA5
:108C000007B582B0022ABDF80C009CBF05B000BDBC
:108C1000C0F3C403BDF80810C1F3C40CA3EB0C03EC
:108C2000002BD8BF002363F3C70143079B0E03EB60
:108C3000503301F0070C03EBCC0303EB5133ADF8D9
:108C40000810002BD8BF00234FEAD30C6CF30201AD
:108C500063F34F31C0F30420C1F30423C01AADF80D
:108C600008100028D8BF002060F30C21ADF80810D0
:108C7000FF2A02BF88B205B000BDDDE902010DF098
:108C8000D5FD0090BDF8000005B000BDF8B5044664
:108C900012F07AFA0646204612F03AFA04463046B6
:108CA00018F0DCFB05462B2C33D00A2C18BFF8BD7E
:108CB0006946304618F044FC304618F020FB044664
:108CC000002141F26A42284619F056F9C0B2012843
:108CD000BDF9000004EBD47114BF00EB6100C0EBE0
:108CE000610090FBF4F001B20029B8BF002100241C
:108CF000688D884218BF0124012228461EF062F9BF
:108D0000002C08BFF8BD00221C21284612F040FAB2
:108D1000F8BD698DBDE8F84000221EF053B930B5AA
:108D200090F8502083B002F001028A4204BF03B0E1
:108D300030BD002990F850100CBF21F0010141F026
:108D4000010180F85010B0F84440B0F84610ADF87A
:108D50000210B0F84820ADF80420B0F84A30ADF861
:108D60000630D0F824C0BCF814502C44ADF80040B4
:108D7000BCF816C06144ADF80210416A898A1144FA
:108D8000ADF80410416AC98A1944ADF80610694665
:108D900019F0BFFD03B030BD08B5084611460DF00F
:108DA00066FC0090BDF8000008BD2DE9F04F0546B7
:108DB000C87A89B014460E4602289EBF012009B029
:108DC000BDE8F08F18463269B168FCF763FF070011
:108DD00004BF09B0BDE8F08F796901F01F000328D6
:108DE00016BF06284FF0060901F01F0010D0801EA4
:108DF0000D280BD2DFE800F0070A0A070A07070769
:108E00000707070707004FF0050901E04FF00409C5
:108E10003A6A2AB12146284621F079FF00F0DDB8F0
:108E2000B869002857D02088ADF808006088ADF8F0
:108E30000A00A088ADF80C00E088ADF80E0030887C
:108E4000002804BF7088B0F5807F2AD0A0882188D0
:108E50006288401A401C01B2E088331D801A401C11
:108E600002B27088CDE90003B6F9003002A8FCF721
:108E700051FBBDF8080021880844ADF80800BDF892
:108E80000A0061880844ADF80A00BDF80C0021888A
:108E90000844ADF80C00BDF80E0061880844ADF838
:108EA0000E0002AA04A8A968FCF746F800287ED0A4
:108EB00004A8D5F80880A860D5F814C0BB69284676
:108EC0003146BCF1000F03D02246CDF80090E047B8
:108ED000C5F8088081E0224604A8A968FCF72CF8B0
:108EE00000287AD0BDF81400BDF81010401A401CBC
:108EF0000FFA80FB0BEB4B0016F026F88246A868B1
:108F00000190BDF81000ADF80800BDF81200ADF8F2
:108F10000A00BDF81400ADF80C00BDF81600ADF85D
:108F20000E00012102A80AF005FFBDF91000B4F9F6
:108F30000010BDF91280401AB4F90210A8EB010428
:108F4000BDF916104145A4BF00B2089040DB02AA4B
:108F500006A80199FBF7F0FF50B35B4622B2CDF8AB
:108F600000A03846089913F041FD01280ED038467C
:108F700013F086FC504616F057F8384613F080FC84
:108F80000198A86009B00020BDE8F08F06A8A8608D
:108F9000D5F814C02846314602AA5346BCF1000F4A
:108FA0001CBFCDF80090E047BDF80A0001E014E0D6
:108FB00008E0401CADF80A00BDF80E00401CADF8FA
:108FC0000E00641CBDF9160008F101084045BEDA28
:108FD0000198A860504616F027F8384613F050FC68
:108FE00009B00120BDE8F08F704700000148C06F54
:108FF00017F0C4BB3C00002010B5104C206E17F0D9
:10900000BDFB606E17F0BAFBE06E17F0B7FB206F88
:1090100017F0B4FB606F17F0B1FBD4F88C0017F0B9
:10902000ADFBD4F8900017F0A9FBD4F8940017F02A
:10903000A5FBA06EBDE8104017F0A0BB3C000020CF
:1090400010B5234C206917F099FB606917F096FB67
:10905000A06917F093FBE06917F090FB206A17F006
:109060008DFB606A17F08AFBA06A17F087FBE06A45
:1090700017F084FB206B17F081FB606B17F07EFB11
:10908000206D17F07BFBA06B17F078FBE06B17F0FF
:1090900075FB206C17F072FB606C17F06FFBA06C17
:1090A00017F06CFBE06C17F069FB606D17F066FB66
:1090B000A06D17F063FBE06D17F060FBA06F17F079
:1090C0005DFBD4F88800BDE8104017F057BB0000E6
:1090D0003C00002010B5074CD4F8A00017F04EFB60
:1090E000D4F8A40017F04AFBD4F8A800BDE810405B
:1090F00017F044BB3C00002010B504466FF004009C
:10910000F9F7A6FD0649E00800EB40020870C2EB43
:10911000C0104FF6FF7202EAC000488010BD000088
:10912000B00100204FF40771B0FBF1F2B0FBF1F396
:1091300030B401FB130012F0FF021ED012494FF4AD
:1091400007730024498801FB03F54FF0E0235D61BC
:109150009C61196941F001011961196911F0010F50
:1091600002D011F4803FF8D0196921F00101196192
:109170009C61511E11F0FF02E9D1002804BF30BCF0
:10918000704730BC00F01EB8B00100200C490978CF
:1091900048434FF0E021486100238B61086940F0AB
:1091A00001000861086910F0010F02D010F4803F3F
:1091B000F8D0086920F0010008618B617047000059
:1091C000B00100200C49498848434FF0E021486134
:1091D00000238B61086940F001000861086910F004
:1091E000010F02D010F4803FF8D0086920F0010090
:1091F00008618B6170470000B001002070B51A4D06
:1092000016460C46A860B1F90630B1F90420B1F950
:109210000210B4F90000F8F713F9A0882188401A69
:10922000401C2880E1886288891A491C698010FBEB
:1092300001F040000D4C686004212046F7F7ABFFB9
:1092400002212046F7F7A9FF6C68094D0021284646
:10925000F7F7A0FC07490E60291D0C602846BDE801
:1092600070400121F7F796BCC801002000000240C1
:1092700088640240946402402DE9F04F85B00446B2
:1092800002278DF80070CA208DF80100E3208DF8C8
:10929000020009208DF803006A460421682020F0AE
:1092A0008BFCA3208DF8000014F0400F09D0C021E2
:1092B0008DF80110C8218DF80210C2218DF803101D
:1092C00005E08DF801008DF802008DF8030014F41C
:1092D000C07F4FF0C4084FF0C60907D08DF8048056
:1092E000CC218DF805108DF8069005E08DF804006E
:1092F0008DF805008DF806008DF808008DF8070040
:109300008DF809006A460A2140F6A72020F054FC97
:1093100014F0030F4FF0200A4FF0D80614BF8DF859
:1093200000A08DF800606A46012140F6B62020F0CA
:1093300043FC14F0200018BF012000F0FBF814F4E7
:10934000C07F4FF08B001ED014F4807F09D0B22173
:109350008DF800108DF80100B6208DF802009B20DA
:1093600009E0B0208DF8000080208DF80100B420C5
:109370008DF8020090208DF803006A46042140F623
:10938000A22020F019FC14F0010F4FF0300B4FF029
:10939000000560D0F8208DF800006A4601214FF4E6
:1093A0000B6020F009FCFA21072000F0E5F93C20D1
:1093B0003F208DF80C0003AA01214FF4A47020F087
:1093C000FBFB8DF80C5003AA012140F24F1020F056
:1093D000F3FB8DF80C5014208DF80D0003AA022128
:1093E0004FF4EF7020F0E8FB8DF80C5064208DF8FE
:1093F0000D0003AA02214FF4ED7020F0DDFB4B4875
:109400004FF47A7190FBF1F0C8214843010E8DF8BA
:109410000C10010C8DF80D10010A8DF80E108DF84E
:109420000F0003AA04214FF4AE7020F0C5FB8DF8A5
:109430000C5008208DF80D0003AA02214FF4AD70E6
:1094400020F0BAFB8DF80C508DF80D7003AA0221A4
:109450004FF4AC7005E08DF800606A4601214FF4CE
:109460000B6020F0A9FB14F0020F1ABFD9208DF871
:1094700000008DF800606A46012140F23D7020F046
:109480009BFB14F0040F04BF4FF08B30039009D006
:10949000C0208DF80C00C2208DF80D008DF80E80D4
:1094A0008DF80F9003AA042140F6982020F084FB49
:1094B00020F09CF814F0100F04BF4FF0A33003907D
:1094C00009D08DF80CA028208DF80D008DF80EB075
:1094D00038208DF80F0003AA042140F69E2020F0CA
:1094E0006BFB20F083F8124E44F00800708120F0EE
:1094F0007DF8B57314F0400F1CBF0620B07314F450
:10950000C07F02D0B07B801DB07314F0140F02D066
:10951000B07B1030B07314F0030F02D0B07B001D8D
:10952000B07305B00020BDE8F08F000009E3CA0267
:10953000A806012000B583B070B10FA0D0E90012D9
:1095400080680091CDE901206A4609214FF49760B7
:1095500020F032FB03B000BD0AA0D0E90012806801
:109560000091CDE901206A4609214FF4976020F06F
:1095700023FB03B000BD0000B8AAB38DB4980D352D
:109580005D000000B8AAAAAAB088C3C5C700000041
:10959000002804BF4FF0FF30704738B504466A46D4
:1095A00004214FF458701FF0F3FF00281CBF4FF048
:1095B000FF3038BD00989DF8031000BA20F0FF007E
:1095C00008432060002038BDC8234FF48062024960
:1095D00040F6F6301FF0E8BEF8BD070810B50446A7
:1095E00014A186B0D1E900028968CDE90002029198
:1095F000C82C16D8C820B0FBF4F0401E010A8DF824
:1096000010108DF8110004AA022140F2162020F05B
:10961000D3FA30B96A460C2140F6C12020F0CCFACA
:1096200018B106B04FF0FF3010BD0548848106B078
:10963000002010BDFEF2ABC4AAF1DFDFBBAFDFDF5D
:10964000A806012070B504463CA084B000680290D2
:109650003BA002AB006803903AA006683AA00568F8
:1096600004F00300195C8DF80010C4F3C1015A5CCA
:109670008DF80120C4F381129B5C8DF8023003AB9E
:10968000185C8DF80400585C8DF80500985C8DF826
:1096900006006A46032140F2264020F08DFA002899
:1096A00043D101AA032140F22A4020F085FAE0BB11
:1096B000CDE9006514F0040F0BD09DF8000040F0D8
:1096C00001008DF800009DF8040040F001008DF8C5
:1096D000040014F0200F0BD09DF8010040F00100B1
:1096E0008DF801009DF8050040F001008DF805009F
:1096F00014F4807F0BD09DF8020040F001008DF83B
:1097000002009DF8060040F001008DF806006A4650
:1097100003214FF4886020F04FFA30B901AA0321E9
:1097200040F2314020F048FA18B104B04FF0FF3059
:1097300070BD0648048104B0002070BD4CCD6C00A3
:109740000CC92C003656760026466600A806012075
:1097500008B5010E8DF80010010C8DF80110010AFA
:109760008DF802108DF803006A4604214FF45870FA
:1097700020F022FA08BD000030B504462DED028B22
:1097800083B010F0070F7DD0B1F5C86F7AD800EE26
:10979000101AB8EE400ADFED540A01A880EE208AC4
:1097A0001FF01AFD9DF80410022906D0042917D0D5
:1097B000082928D0102939D08AE09FED4C0A28EEDC
:1097C000000ABCEEC00A10EE100A82B29FED480AF1
:1097D00028EE000ABCEEC00A10EE100A81B237E093
:1097E0009FED440A28EE000ABCEEC00A10EE100AF3
:1097F00082B29FED410A28EE000ABCEEC00A10EECC
:10980000100A81B224E09FED3D0A28EE000ABCEE6A
:10981000C00A10EE100A9FED3A0A82B228EE000A42
:10982000BCEEC00A10EE100A81B211E09FED350ABD
:1098300028EE000ABCEEC00A10EE100A9FED320AB4
:1098400082B228EE000ABCEEC00A10EE100A81B205
:10985000100A8DF80000080A8DF801208DF802002A
:109860008DF8031014F0010F6D460FD02A46022127
:109870004FF4EA7020F0A0F920B9AA1C02214FF49D
:10988000927000E024E020F097F908BB14F0020F7A
:109890000DD06A4602214FF4EC7020F08DF9B8B972
:1098A000AA1C02214FF4947020F086F980B914F0BC
:1098B000040F13D06A4602214FF4EE7020F07CF9B9
:1098C00030B9AA1C02214FF4967020F075F928B126
:1098D00003B04FF0FF30BDEC028B30BD03B0002071
:1098E000BDEC028B30BD0000000048430000804604
:1098F00000004046000000460000C04500008045D2
:1099000000004045000000450000C0442DE9F74F2D
:10991000C87898B00C4602289CBF1BB0BDE8F08FF9
:10992000B2F90030ADF82830B2F902C0ADF82AC063
:10993000B2F90400ADF82C00B2F90620ADF82E20E3
:10994000B4F9201001291FDD94F82210FD291BD342
:109950002188C9B194F82310C1F3C0052B44C1F389
:109960008001ADF828306144ADF82A1094F8231036
:10997000C1F30011401AADF82C0094F82300C0F395
:109980004000101AADF82E0018980AA982680CA899
:10999000FBF7D2FA002804BF1BB0BDE8F08FE07BD4
:1099A00010F0070507BF60680290E088ADF8080076
:1099B000BDF808006189884208BF00250AA80EF09A
:1099C000A7FE5FEA000B4FF00000039004900590A3
:1099D0000690079008900990A0788DF82500BDF8B2
:1099E0000800ADF8140002BF20880028002D5CD0CC
:1099F00094F80380B8F1FD0F28BF4FF0FF08BDF8C1
:109A00002C10BDF82800081A401C0FFA80FABDF887
:109A10002E00BDF82A10401A401C0FFA80F9CA45E2
:109A2000B4BF50464846B4F90060B6EB600FA8BF1B
:109A30004610BDF83400BDF83010401A401C07B283
:109A40004FF0FF30169000200290002ED8BFBBF1DF
:109A5000000F0ED0384615F077FA029000233246F8
:109A60000AA90EA80FF09AF900210EA80EF000FC2A
:109A70001690BDF83000ADF80000BDF83400ADF828
:109A8000040002980690FF20CDF80CD08DF8240039
:109A9000CDF820D04A465146A01D11F02FFF5FEAB5
:109AA000000919D0022D0CD016E00AA80390E07826
:109AB0008DF8240003A918980FF09DFC1BB0BDE899
:109AC000F08FBDF93010D9F8080000EB4100BDF966
:109AD0002810A0EB410004904FF0020ABBF1000FE8
:109AE00033D0BDF93240BDF93600A042C0F2ED805E
:109AF00026B2ADF80260ADF806603A4641460298DB
:109B000015F001FCBDF930103B46324602980EF0CC
:109B1000B7FD8DF81C00012808BF8DF81CA0012D91
:109B200009D1BDF92A10D9F80800611A00EB4100EB
:109B30000088ADF8140003A918980FF05CFCBDF97B
:109B40003600641CA042D3DABFE04FF0000B002EB9
:109B500059DDBDF82A00584404B2BDF82E00A0EB30
:109B60000B000FFA80FABDF93200A042C4BFBDF964
:109B70003600824543DC3A464146029815F0C3FB65
:109B8000BDF900103B46224602980EF079FD8DF893
:109B90001C00012804BF02208DF81C00BDF9320012
:109BA000A04213DCADF80240ADF80640012D09D10A
:109BB000BDF92A10D9F80800611A00EB41000088AD
:109BC000ADF8140003A918980FF015FCBDF9360084
:109BD000824514DCADF802A0ADF806A0012D0AD133
:109BE000BDF92A10D9F80800AAEB010100EB4100E9
:109BF0000088ADF8140003A918980FF0FCFB0BF1D6
:109C0000010BB345A5DBBDF82800ADF85000BDF849
:109C10002C00ADF85400BDF82A003044ADF85200D5
:109C2000BDF82E00801BADF8560014A80EF070FD94
:109C30008346284325D001208DF81C00BDF92E0055
:109C40008DF82480A0EB060ABDF92A00841954453A
:109C50003BDCBBF1000F0DD03A464146029815F0AF
:109C600052FBBDF930103B4622B202980EF008FDBF
:109C70008DF81C00ADF80240ADF80640012D1DD155
:109C800012E0BDF82A008DF824803044ADF80200BF
:109C9000BDF82E0003A9801BADF806000020069039
:109CA00018980FF0A8FB10E0BDF92A10D9F80800A9
:109CB000611A00EB41000088ADF8140003A9189860
:109CC0000FF099FB641C5445C3DD0298002818BFAF
:109CD00015F0AAF91698B0F1FF3F05D016980FF0CD
:109CE00011F90EA80EF0F4FCB9F1000F1CBF4846A4
:109CF00011F0FDFD1BB0BDE8F08FF0B50646086918
:109D00008FB014460D4600281CBFA97E02299CBFB7
:109D10000FB0F0BD13F0B0F8022866D008A928698A
:109D200012F0C4FD01281CBF0FB0F0BD68460DF055
:109D30000BFFA8788DF80C00288BADF80800E87EA2
:109D40008DF80A00A87E8DF80B00287F4FF0FF37B2
:109D500000287ED00899B4F9020007EB5151014464
:109D6000ADF81A00ADF81E10B4F906108842C4BF51
:109D70000FB0F0BDB4F900000899ADF81800C1F3B8
:109D80008A21491E0144ADF81C10B4F90410884220
:109D900017DC06AA694630462B690DF0AFFE08991C
:109DA000BDF81800C1F38A21084402B2BDF81C00B6
:109DB000ADF818200844ADF81C00B4F90400824244
:109DC000E7DDBDF81A000899BDF81E2000EB5150E0
:109DD00000B202EB5151ADF81A00ADF81E10B4F903
:109DE00006108842C6DD0FB0F0BD002741F6FF70B7
:109DF000CDE900700297D5E904123B4603A81EF096
:109E00004BFBA0882288801A401C01B2BDF90C00CF
:109E100001EBD17102EB610100EBD072A1EB6201A9
:109E20000844401EADF83010ADF83400E088628878
:109E3000801A401C01B2BDF90E0001EBD17102EB9A
:109E4000610100EBD072A1EB6201ADF83210084461
:109E500000E016E0401EADF8360004A80EF090F9C0
:109E600068690490288BADF81C00A87E8DF82A0044
:109E700000970CAA04A930462B690DF08BFE0FB099
:109E8000F0BDA0882188401A401C00B200EBD070C1
:109E900001EB60010898C0F38A23A1EB5302ADF8EF
:109EA0001820E188B4F802C05B1EA1EB0C01491C2C
:109EB00009B201EBD1710CEB6101A1EB90511A4495
:109EC00007EB5050ADF81C200844ADF81A10ADF85F
:109ED0001E0006AA694630462B690DF00FFE0FB032
:109EE000F0BD2DE9FF4FA3B09B46DDE93279DDF8E7
:109EF000C08015460C46FF2F28BFFF2708460EF0EE
:109F000007FC0C9040EA0B0050EA08007DD0239833
:109F10002146826802A8FBF70FF8002804BF27B08B
:109F2000BDE8F08FBDF80C00BDF80810401A401CC9
:109F300000B204901C2105A815F01EFA049815F033
:109F400003F808904FF0FF300F90BBF1000F0ADDCF
:109F500000235A46214614A80EF020FF002114A821
:109F60000EF086F90F900123424629461AA80EF0FA
:109F700015FF00211AA80EF07BF91190CDF814D02E
:109F8000BDF8C4008DF82C70CDF828D0ADF81C00B9
:109F90008DF82D90B4F900E0B5F900000EEB0B013F
:109FA0008142D8BF014609B261F30F060D91B4F9A1
:109FB00004101091A1EB0B02B5F904108A42A8BF5E
:109FC0000A460FFA82FAB4F90290B5F9023009EBA9
:109FD0000B029A42D8BF1A4617B267F31F46129671
:109FE000B4F90680B5F90620A8EB0B0C9445A8BF80
:109FF00094460FFA8CF6DDF834C09945AAEB0C0CA8
:10A000000CF1010C0FFA8CFC00E023E0D4BF4FF000
:10A0100001094FF000099045ACBF4FF001084FF027
:10A0200000080C9A002A00F0D480BDF80800ADF8B2
:10A030000000BDF80C00ADF80400BDF90A40BDF900
:10A040000E00A042A8BFDDF810A07CDBB9F1000F24
:10A050007AD185E031980490DDF88C901C210CA811
:10A0600015F08AF920A80C90BDF81000ADF8380062
:10A070008DF84870B4F90200B5F902108842D4BFD7
:10A0800001270027B4F90600B5F906108842ACBFD5
:10A0900001260026B4F90000B5F900108842D4BFAB
:10A0A0004FF0010A4FF0000AB4F90410B5F904208A
:10A0B0009142ACBF4FF001084FF00008ADF88000AE
:10A0C000A088ADF884006088ADF882006888401EE2
:10A0D000ADF886001FB10CA948460FF08CF9E8884E
:10A0E000401CADF88200E088ADF886001EB10CA9D6
:10A0F00048460FF080F92088ADF880002888401E7F
:10A10000ADF88400002F14BFB5F90200B4F90200C5
:10A11000ADF88200002E14BFB5F90600B4F90600B0
:10A12000ADF88600BAF1000F03D00CA948460FF035
:10A1300062F9A888401CADF88000A088ADF88400C2
:10A14000B8F1000F01E02EE00CE004BF27B0BDE83D
:10A15000F08F0CA948460FF04EF927B0BDE8F08FFC
:10A16000A7421ADCB8F1000F01D1A6421BDB25B2D1
:10A17000ADF80250ADF806500499089815F031F981
:10A18000BDF9081053462A4608980EF079FA8DF862
:10A19000240005A923980FF02EF9BDF90E00641CC8
:10A1A00084427FF753AF1AA80EF092FA11980EF07E
:10A1B000A9FE0F98B0F1FF3F05D014A80EF088FA61
:10A1C0000F980EF09FFE089814F02EFF27B0BDE800
:10A1D000F08F8645D4BF012000200E901098884251
:10A1E000ACBF012000200C90012010900E990C981B
:10A1F000084000EA090010EA080F04D0BCF1320F51
:10A20000BCBF0020109001208DF82400109819EA9E
:10A21000000F0FD00D98ADF80000ADF804A06088D5
:10A22000ADF80200688805A9401EADF80600239825
:10A230000FF0E1F8109818EA000F0FD00D98ADF864
:10A240000000ADF804A0E88805A9401CADF80200A4
:10A25000E088ADF8060023980FF0CDF80E9870B1A5
:10A260002088ADF800002888ADF80270401EADF8D7
:10A270000400ADF8066005A923980FF0BCF80C980F
:10A2800070B1A88805A9401CADF80000A088ADF801
:10A290000400ADF80270ADF8066023980FF0ABF83B
:10A2A000109800287DD00D9ABDF90C00BDF908105A
:10A2B000521EADF800109042A4BF0D98401EADF89C
:10A2C0000400401A401C05B2002D48DD0E9850EAEB
:10A2D00009001CBFBDF90A40A7421BDD0FFA84FB31
:10A2E000ADF802B0ADF806B02946089815F079F837
:10A2F000BDF900102B465A4608980EF0C1F98DF8AA
:10A30000240005A923980FF076F81298641C001415
:10A31000A042E3DC0E9850EA080020D0BDF90E0000
:10A32000741C84421BDC0FFA84FBADF802B0ADF85C
:10A3300006B02946089815F054F8BDF900102B46D0
:10A340005A4608980EF09CF98DF8240005A9239828
:10A350000FF051F8BDF90E00641C8442E3DDBDF935
:10A3600008000AF101018842D8BF0846ADF8000094
:10A37000BDF80C10ADF80410081A401C0FFA80FA52
:10A38000BAF1000F48DD0C9850EA09001CBFBDF976
:10A390000A40A7421CDD25B2ADF80250ADF80650C8
:10A3A00000E04BE05146089815F01BF8BDF900108D
:10A3B00053462A4608980EF063F98DF8240005A943
:10A3C00023980FF018F81298641C0014A042E2DCE5
:10A3D0000C9850EA08001FD0BDF90E00741C84428E
:10A3E0001ADC25B2ADF80250ADF806505146089877
:10A3F00014F0F7FFBDF9001053462A4608980EF0F6
:10A400003FF98DF8240005A923980EF0F4FFBDF95B
:10A410000E00641C8442E4DD1AA80EF059F911986C
:10A420000EF070FD14A80EF053F90F980EF06AFDAF
:10A43000089814F0F9FD27B0BDE8F08FBDF80800CA
:10A44000ADF80000BDF80C00ADF80400B4F902004E
:10A45000B5F90210401A5845A8BF83460FFA8BF889
:10A460000025B8F1000FC8BFDDF81090D4DD60887A
:10A47000284406B2E088401B07B2BDF90A00B0428A
:10A48000C4BFBDF90E00874224DC0499089814F07B
:10A49000A8FFBDF900104B46324608980EF0F0F8C0
:10A4A0008DF82400BDF90A00B04207DCADF8026067
:10A4B000ADF8066005A923980EF09DFFBDF90E00CA
:10A4C000B84207DBADF80270ADF8067005A9239815
:10A4D0000EF091FF6D1C4545C9DB9DE72DE9F04766
:10A4E0000646A2F57F4090B092468946FF3804BFE9
:10A4F00010B0BDE8F087746AB4F82080984504D0A5
:10A500002384608C40F0040060844FF4802141F289
:10A510005942204617F030FD07464FF4802141F2A2
:10A520005B42204617F028FD05B2706AB7F9087043
:10A5300000281CBF002116F045FEB0F9160079195D
:10A540000AFB010005EBD571A0EB6100ADF83A0004
:10A550003844691E0844ADF83E00706A818AADF83F
:10A560003810008BADF83C0068460EF0F3FC6A46EC
:10A570004FF48021204618F00BF80EAA6946484691
:10A580000EF0D2FCA4F82080608C20F004006084DF
:10A5900010B0BDE8F0872DE9F0430646A2F57F40F4
:10A5A0008FB017460D46FF3804BF0FB0BDE8F083EB
:10A5B000746AB4F82080984504D02384608C40F0FD
:10A5C0000400608402A80DF0DBFD02AA4FF4802194
:10A5D000204617F029FF4FF4802141F25B422046CC
:10A5E00017F0CAFCADF81A00706A4FF00009002895
:10A5F00008BF4E4603D0002116F0E4FD0646002EAB
:10A6000004BF0FB0BDE8F0830298B6F91620B0F988
:10A610000810BDF91A00431807FB032200EBD073A2
:10A62000A2EB63021044491EADF82A200844ADF89D
:10A630002E00A08AADF82800208BADF82C000AAAC5
:10A640000CA8A968FAF778FC78B10CA8AF68A860E4
:10A65000304613F047FD034606F1140202A92846CE
:10A66000CDF800900DF096FAAF60A4F82080608CD1
:10A6700020F0040060840FB0BDE8F0832DE9F041C4
:10A680002F4E074670680CF0B9FF04463868856B9A
:10A69000E96A00291CBF28468847206800281FBF98
:10A6A000606800282069002808D070680068816A06
:10A6B000002918BF884720690028F6D14FF001080B
:10A6C000C4F8108070680068C068816911F0010FDB
:10A6D00019BF806910F0020F0020606118BFC4F834
:10A6E00014806069002814BF01260026386841697B
:10A6F00079B1016911F0300F18BF11F0040F04D0C7
:10A70000D5E9001000F01EF803E0D5E90021FDF7BF
:10A71000F9FD206800281ABF61680029BDE8F081B2
:10A720003A6828EA060312691A4218BFBDE8F081A8
:10A73000A268824214BFA060A160BDE8F081000061
:10A74000080200202DE9F34F0546F4488DB041681A
:10A750000E68306910F0020F1EBF10F0040F0FB02A
:10A76000BDE8F08FC0F3011002284AD001281EBFB7
:10A7700003280FB0BDE8F08F0020009008460CF0D1
:10A780003DFF0746A988B5F900004FF4A053091A08
:10A79000491C0CB2E988B5F90220B3FBF4FC891A14
:10A7A000491C09B201918C45B8BFB3FBF4F1049286
:10A7B0000691317CC1F30111012971D06880611EBD
:10A7C0000844E8800020029001980028DCBF0FB008
:10A7D000BDE8F08F04982044401E00B20790601E30
:10A7E0000590DDE90101401A06998842C8BF084674
:10A7F00000B20390012038610298002840F0E28006
:10A8000056E0A88829886A88401A411CE888801A7E
:10A81000401C11FB00F000210E9C401E0FD004EBE9
:10A82000400204EB4103B2F800C0ADF800C01F883D
:10A830001780401E491CA3F800C08842EFD87288D8
:10A840006988E888511A491EE9807188081A401EF3
:10A85000688032882988A888511A491EA9803188C1
:10A86000081A401E28802988338930461944ADF8DB
:10A870000010698873890E9A1944ADF80210A988EE
:10A8800033891944ADF80410E98873891944ADF887
:10A8900006104369694698470FB0BDE8F08FFFE79F
:10A8A0007188081A401EE880001B401C688089E7F8
:10A8B0000198A0427EDB0394307CC0F30110032892
:10A8C00014BF4FF0000E4FF0010E0023601C00EB90
:10A8D000D0700A900E9A04EBD47009905BE00021CE
:10A8E000E01A401E00B208904EE0601A401EDDF8EB
:10A8F00020C000B2BEF1000F22D013FB041802EBFF
:10A90000480910FB04380CFB040002EB480802EB7A
:10A91000400011FB04CCB9F800A0ADF82CA0B8F8A9
:10A9200000B0A9F800B002EB4C0CB0F80090A8F809
:10A930000090BCF80080A0F80080ACF800A021E0F6
:10A9400013FB041802EB480911FB04C80CFB040CB0
:10A9500002EB480802EB4C0C10FB0430B9F800A0E5
:10A96000ADF82CA0B8F800B0A9F800B002EB400098
:10A97000BCF80090A8F80090B0F80080ACF8008017
:10A98000A0F800A0481C01B20A98B1EB600FACDB44
:10A99000581C03B20998B3EB600FA0DB307CC0F306
:10A9A000011001280AD031880498081A401EA88096
:10A9B000001B00E006E0401C288053E0049828803B
:10A9C000079867E0009820B94FF4205014F0BCFAC3
:10A9D0000090307CC0F3011003280CBF4FF0010A37
:10A9E0004FF0000A039914FB01F0A0F1010E059845
:10A9F000DDF800B048430E9B4FF0000C0890002992
:10AA000020DD0898BAF1000F604418BFAEEB0000DB
:10AA10000022002C10DD98460BEB40099B1CB8F877
:10AA20000080A9F80080BAF1000F14BF0844401A52
:10AA3000521C12B2A242EEDB0CF101000FFA80FCB4
:10AA40008C45DEDB307CC0F3011001281BD031883F
:10AA50000498091A0298081A401EA8800399401AFF
:10AA6000401C2880DDE9020100EB010801988045C7
:10AA700012DBB86910F0010F1EBFB86910F0020FA9
:10AA800001200AD108E0029904980844288003991B
:10AA90000844401EA880E5E7002078610099304610
:10AAA00000290CBF0E9A0A46298803891944ADF87B
:10AAB0002010698843891944ADF82210A9880389B8
:10AAC0001944ADF82410E98843891944ADF82610DB
:10AAD000436908A99847386938B1B16A00291CBF91
:10AAE0003046884738690028F7D1039814FB00F1F5
:10AAF0000E9800EB41000E900FFA88F00199029039
:10AB00008842FFF66EAE0098002804BF0FB0BDE883
:10AB1000F08F0FB0BDE8F04F14F086BA08020020A5
:10AB20002DE9F04F9BB0054610F02EFB0446284659
:10AB300010F0F4FA1990204617F005FB0546204660
:10AB400016F033FCA28A05EBD57102EB61020FFA15
:10AB500082FAE28A00EBD07002EB60000FFA80F913
:10AB60004FEA610B0EA80DF061FB0EAA00212046F2
:10AB700017F0B3FC4FF41D701BFB00F042F23411D0
:10AB800090FBF1F0801CADF83A00002631464FF4FE
:10AB90000562204617F0F0F907B2002347F6FF726E
:10ABA00004F1140102A80EF0F9F8002102A80DF03A
:10ABB0005FFB1890A28AE08AADF84A00218BADF8BD
:10ABC0004C10638B3A44ADF848203844C91BADF8AB
:10ABD0004A00ADF84C10D81BADF84E00012347F6E3
:10ABE000FF7212A908A80EF0D9F8002108A80DF0EC
:10ABF0003FFB1A90BDF93A00ABEB07010025A1EB32
:10AC000000080BEB000700208DF844008DF8580079
:10AC10008DF85C0094F83C0000F00301012931D06C
:10AC2000022954D0DFF8D0C19CF80200814219D02B
:10AC300094F8260040F6CD4200EB001000EB4000F7
:10AC400010FB02F0000C8CF8000094F8270000EBD9
:10AC5000001000EB400010FB02F0000C8CF801002B
:10AC60008CF8021017A916A8CDE9000105EB4501E3
:10AC70004FF6FF7000EA410011AB9CF801209CF8F0
:10AC8000001046E05C488278914215D0A28C02EB1D
:10AC9000420253024FF4B472B3FBF2F2828094F892
:10ACA000272040F6CD4302EB021202EB420212FBD8
:10ACB00003F2120C4270817017AA16A9CDE9001296
:10ACC0004278E9B211AB808804F0B7FF23E04A482C
:10ACD0008278914215D0A28C02EB420253024FF4CB
:10ACE000B472B3FBF2F2828094F8262040F6CD4392
:10ACF00002EB021202EB420212FB03F2120C027090
:10AD0000817017AA16A9CDE900120178EAB211AB39
:10AD1000808804F092FF9DF85800BDF800304FEA9B
:10AD2000501C9DF844206CF30203ADF80030D308AA
:10AD3000BDF800209DF85C1063F3C702ADF8002059
:10AD4000CA08BDF8001062F30C21ADF800108108AC
:10AD5000BDF8000061F34F30ADF8000080B2009004
:10AD6000BDF800000090BDF80000ADF83800300AD2
:10AD700000B283461DF060FB78430AEBE030ADF88B
:10AD800050000BF15A0000B200901DF055FB7843C3
:10AD900009EBE030ADF8520058461DF04DFB00FBCA
:10ADA00008F00AEBE030ADF8540000981DF044FBC9
:10ADB00000FB08F009EBE030ADF8560014AA15AB23
:10ADC0000EA919980DF024FAE81C85B206F58766DD
:10ADD000B5F5807F7FF617AF02A80DF079FC08A8C3
:10ADE0000DF076FC18980EF08DF81A980EF08AF88F
:10ADF0001BB0BDE8F08F0000C00200202DE9F04F2D
:10AE000088468A689FB0044600F1140118A8FAF732
:10AE100093F8002804BF1FB0BDE8F08FD8F80800F1
:10AE20001C9018A8C8F808002046002141F2320200
:10AE300017F0A2F805462046002141F6120217F04D
:10AE40009BF8284400B21B902046002141F61002D6
:10AE500017F092F8284406B2204616F050FAB4F8DB
:10AE60008410484340F30F201A90204616F027FA2A
:10AE7000B4F88610484340F30F20179012A80DF045
:10AE8000D5F912AA0021204617F027FB4146684653
:10AE900015F03EFF00257E480D95CDE9010512A86D
:10AEA0000690681E09950E906A461A210A9520465A
:10AEB00010F06EF920463122294617F05DF800F0B7
:10AEC000FF0A204641F23202294617F055F80FFAE0
:10AED00080F920463322294617F04EF8C7B22046A3
:10AEE00016F054FB1D90204616F040FCB4F87E107E
:10AEF000002959D0E18A3144081A0FFA80FBA08A50
:10AF0000ADF85400208BADF85800B4F97E60BAF16A
:10AF1000020F1DD9B9F1000F1ADD17F0020F09D089
:10AF20002046002141F6100217F026F800B2002852
:10AF300008BF012517F0010F0AD02046002141F675
:10AF4000110217F019F800B2002804BF701E06B2F3
:10AF5000B54229DA17986A4600FB05F1B4F87E007D
:10AF6000401E91FBF0F05844ADF85600ADF85A0081
:10AF7000474801900120029015A8099016A80A9050
:10AF80001A210E95204610F003F916AB15AA12A946
:10AF900040460DF03DF96A461B21204610F0F8F8B6
:10AFA000681C05B2B542D5DBB4F8800000285ED03D
:10AFB000A18A1B98002601441D98081A0FFA80FBED
:10AFC000E08AADF85600608BADF85A00B4F98050B5
:10AFD000BAF1020F1DD9B9F1000F1ADD17F0040FF5
:10AFE00009D02046002141F6120216F0C5FF00B23A
:10AFF000002808BF012617F0080F0AD020460021BC
:10B0000041F6130216F0B8FF00B2002804BF681E14
:10B0100005B2AE422BDADFF878A015AF0DF1580972
:10B020001A986A4600FB06F1B4F880000E96401E9E
:10B0300091FBF0F05844ADF85400ADF858000220F0
:10B04000CDE901A0CDE909791A21204610F0A0F838
:10B0500016AB15AA12A940460DF0DAF86A461B2174
:10B06000204610F095F8701C06B2AE42D8DB4FF0C7
:10B07000FF300E90002009900A906A461B2120465E
:10B0800010F086F81C98C8F808001FB0BDE8F08FD3
:10B09000549105082DE9F14F94B0149810F038F848
:10B0A0000546149810F070F80446122D00F0128135
:10B0B000152D1EBF182D15B0BDE8F08F002143F6E9
:10B0C0000E0216F059FFE18E00B248434FEA2028E5
:10B0D0002046002143F60F0216F04EFF218E00B2EB
:10B0E00008441090204617F02EF88346204616F0AC
:10B0F0005CF907462046002141F2320216F03CFF7F
:10B1000006462046002141F6120216F035FF304473
:10B110000FFA80FA2046002141F6130216F02CFFA8
:10B12000304400B20E902046002141F6100216F085
:10B1300023FF30440FFA80F92046002141F6110226
:10B1400016F01AFF304400B20390608E5044ADF800
:10B150004400A08E4844ADF8460094F8390000F051
:10B160000300012800F0378111A91FFA88F0CDE90A
:10B17000000110983A4603B2594606A8FAF7CAF9F0
:10B18000BDF81810A08A0844ADF81800BDF81A10D0
:10B19000E08A0844ADF81A00BDF81C10A08A0844E3
:10B1A000ADF81C00BDF81E10E08A0844ADF81E0082
:10B1B000B4F914B0B4F91670B4F918000090B4F9E9
:10B1C0001A60BDF81810A182BDF81A10E182BDF80E
:10B1D0001C102183BDF81E106183E248149915F0FC
:10B1E000D7FF01281CBF15B0BDE8F08FA4F814B03C
:10B1F000E782009820836683152D1CBF15B0BDE83B
:10B20000F08FE08D00281DBFA08D0028B8F1000F41
:10B2100015B008BFBDE8F08F14980FF07FFF0290C3
:10B22000B4F91470B4F9160067F30F0B60F31F4BF9
:10B230000090B4F91800049060F30F06B4F91A00F6
:10B24000019060F31F46204611F032FD054694F848
:10B25000390000F0030001287ED0BDF81C00BDF8C5
:10B260001810401A384460F30F06BDF81E00BDF8F0
:10B270001A10411A0098084460F31F460BEB0A00AD
:10B2800007B267F30F0B09EB2B4000B20F900E983B
:10B29000301A00B260F30F0612900398C0EB2640FC
:10B2A0000FFA80FB94F838006BF31F4600F003019F
:10B2B000012918BF10F0030F7DD0022900F03F8153
:10B2C000002304F11402194602980CF017FC15B083
:10B2D000BDE8F08F14980FF055FF0546007802285E
:10B2E00004BF15B0BDE8F08F94F838000321814306
:10B2F0004FF001071CBF00F00301022960D0C0F32A
:10B300008400042818BF01285AD120460021462273
:10B3100016F032FEC0B2FF2852D12046002143F67B
:10B320000F0216F029FE218E00B2C14248D12046FC
:10B33000002143F60E0216F01FFEE18E00B24843D4
:10B34000061214980FF01EFF8046B6F5807F39D0A4
:10B35000204616F02AF800E042E08146204616F02A
:10B36000F2FE04F13202B1B2CDE90012014600232F
:10B370004A4602A8FAF7CEF8BDF80800A18A0022D2
:10B380000844ADF80800BDF80A00E18A0844ADF8A9
:10B390000A00BDF80C00A18A0844ADF80C00BDF805
:10B3A0000E00E18A0844ADF80E0002A94046F9F704
:10B3B000EFFD002800E033E01CBF15B0BDE8F08FC2
:10B3C0002F7084E7002204F11401F9F7E1FD002851
:10B3D0007FF47DAFF4E706A9204615F0B0FFE7E65D
:10B3E000B4F92C0029B2401A401C00EBD070A7EB36
:10B3F000600161F30F0B0499A1EB600060F30F068D
:10B40000B4F92E000099A0EB2540401C00EBD07051
:10B41000A1EB600161F31F4B0199A1EB60002BE7E9
:10B4200008A80CF091FB08AA0021204616F0ADFFF9
:10B43000ADF822801098ADF82000608EADF82400A1
:10B44000A08EADF8260094F83800BDF81C10C00995
:10B450008DF83400BDF8180004AA5044ADF810006F
:10B46000BDF81A004844ADF812000E98081AADF85D
:10B470001400BDF81E100398081AADF816000298C3
:10B48000D0F8089010464946F9F756FD00283FF4D9
:10B490001EAF029804A98160618D0F98084400B224
:10B4A000ADF802000F99884203DDE18D401AADF836
:10B4B0000200BDF90200E18D0144491EADF80610FD
:10B4C0005845B8BF4FEA254835DA208D384400B2D8
:10B4D000ADF80000B84203DDA18D401AADF80000C0
:10B4E000BDF90000A18D0144491EADF80410129968
:10B4F000884213DA6A4608A9636A02980CF0FEFAD9
:10B50000BDF80000BDF804102844294400B2ADF88D
:10B51000041031B2ADF800008842EBDBBDF8020048
:10B52000BDF80610404400B24144ADF80200ADF849
:10B5300006105845C9DB0298C0F80890C7E608A86D
:10B540000CF01EFE08AA0021204616F06DFF002018
:10B55000009004F1140208A9636A02980CF01AFB27
:10B56000B5E60000ACBC07082DE9F04FC7B00546B2
:10B570000FF00AFE044628460FF0D0FD039036A9CE
:10B58000204615F0DCFE002140F60A02204616F0A7
:10B59000F3FC0546002140F60B02204616F0ECFCB9
:10B5A000BDF8D8104A1BBDF8DC10ADF8D8204B19F7
:10B5B000BDF8DA10ADF8DC30091ABDF8DEC0ADF820
:10B5C000DA106044ADF8DE00401A401C0FFA80FA31
:10B5D0009A1AD4E90A01521C0FFA82FBA1EB000867
:10B5E000D345ACBF4FF001094FF0000900222C9267
:10B5F00094F85C2002F00302012A08D1002806DA40
:10B60000002904DD216B814204BF01202C902046DB
:10B61000002141F6120216F0AFFC01B22A91204639
:10B62000002141F6130216F0A7FC00B22990204633
:10B63000002141F6100216F09FFC00B2289020462F
:10B64000002141F6110216F097FC00B22790BDF8D8
:10B65000D800A086BDF8DA20E286BDF8DC2022877B
:10B66000BDF8DE2062872A990844A086218F299898
:10B67000081A2087E18E28980844E086279891B21E
:10B68000081A00B26087B9F1000F11D0E18E401A9C
:10B69000401C00B204281DDAE18A0AEBDA726FF06E
:10B6A000010000EB62000844E086001D608711E0A5
:10B6B000218FA08E081A401C00B204280ADAA18A41
:10B6C0000BEBDB726FF0010000EB62000844A08618
:10B6D000001D2087218FA08E081A401C00B22690E2
:10B6E000618FE08E081A401C00B20290B9F1000F81
:10B6F00017BF269F074604F13406351D11BFE448E5
:10B7000004F13606351DE3482B90A06DB0F1FF3FE4
:10B7100016D0236DA26A991A636D79439A1A7A43F7
:10B7200091FBF8F192FBF8F209B212B2521A5043AF
:10B73000C21700EB126001EB202000B2249007E05A
:10B74000216BA06A081A784390FBF8F000B22490AD
:10B75000A06CB0F1FF3F16D0236CA26A991A636CFB
:10B7600079439A1A7A4391FBF8F192FBF8F209B205
:10B7700012B2521A5043C21700EB126001EB2020A4
:10B7800000B2259007E0D4E90910081A784390FB2D
:10B79000F8F000B225902046002141F26A4216F0EE
:10B7A000EBFBC0B2B9F1000F15D001280AD1304629
:10B7B0002E4605462598404200B2259024984042E6
:10B7C00000B2249031882598084428803188249834
:10B7D0000844308008E029882598081A401C3080E9
:10B7E00029882498081A28802C9838B3A06A4042E7
:10B7F000784390FBF8F000B2B9F1000F0AD031881D
:10B800000844B5F9001000B28142DABF31802880C7
:10B81000308034E02988081A401CB6F9001000B2C4
:10B820008142CEBF288029803080B5F90000B6F96A
:10B8300000108842BCBF3080298020E02B9904F1A1
:10B840003400884701281ADC24A8039915F060FA0F
:10B850004FF400303190904825900020269004F15C
:10B860003400279024AA1A2120460FF091FC24AA24
:10B870001B2120460FF08CFC47B0BDE8F08F04A8D8
:10B880000DF068FB04AA4FF40031204616F080FE4C
:10B8900012A8039915F03CFA4FF400301F907E482F
:10B8A0004FF00008CDE9130804A8169004F1340005
:10B8B000159012AA1A2120460FF06AFC2046602239
:10B8C000414616F059FB05B2D345B4BF5846504621
:10B8D000B5EB600FC8BF4510BDF91000029A26995C
:10B8E0009142A8BF1146B0EB610FC8BF4810B9F133
:10B8F000000F08D0228FA18E511A491C09B2B1EB5A
:10B90000400F22DD07E0628FE18E511A491C09B217
:10B91000B1EB400F19DD9DF8130002909DF82A70DD
:10B920009DF832608DF813808DF82A808DF8328072
:10B9300004F1340204A903980DF0F6FA02988DF888
:10B9400013008DF82A708DF83260A18A2A9800239E
:10B950000844ADF81001218B29982A46081AADF841
:10B960001401E18A28980844ADF81201618B2798E8
:10B97000081AADF8160144A938A80DF00FFA0021F5
:10B9800038A80CF075FC9DF832508DF832808DF897
:10B990004680BDF8D810DDF8A8C0BDF8DC206144B1
:10B9A000BDF8DE3009B20646ADF80010BDF8DA0089
:10B9B000DDF8A0C0B9F1000F6044DDF8A4C000B20A
:10B9C000A2EB0C02DDF89CC012B2A3EB0C03ADF8A5
:10B9D00004201BB2ADF80200ADF8063012D0181AE0
:10B9E000401C00B204281FDAE18A0AEBDA726FF019
:10B9F000010000EB62000844ADF80200001DADF844
:10BA0000060011E0501A401C00B204280CDAA18A8A
:10BA10000BEBDB726FF0010000EB62000844ADF845
:10BA20000000001DADF80400BDF91020002304F152
:10BA300034013EA80DF0B2F900213EA80CF018FC2C
:10BA400007466A4604A903980DF06EFA8DF8325045
:10BA50008DF813808DF82A808DF8468004F1340229
:10BA600004A903980DF060FA3EA80CF031FE38A846
:10BA70000CF02EFE38460DF045FA30460DF042FA35
:10BA800012AA1B2120460FF083FB47B0BDE8F08FC0
:10BA9000E53C0108B13C010804BC07082DE9FF4F53
:10BAA00095B0987B0D4600F00F06897E229C032EF0
:10BAB00008BF0426012E00F01281022E00F015812D
:10BAC000042E00F01881082E1CBF19B0BDE8F08FBD
:10BAD000DFF890824FF0FF0A4FF48072FD2923D2E5
:10BAE000DFF8849299F80000884204BFD9F8040076
:10BAF000B04213D00020002A88BF9C4F0ED918F8FE
:10BB000000C0BCF1FF0F0EBF8C461CFB01FC4FEACE
:10BB10001C2C07F800C0401C9042F0D3DFF84C8288
:10BB200089F80010C9F80460D8880A90B3F8089022
:10BB300000FB06F31798B0F9001015988068B0F96B
:10BB400000209142ACBF0022521A0B920A9A01EBDC
:10BB5000020CB0F904209445D2BFDDF828B0511A88
:10BB600001F1010B1799B0F90220B1F902109142CD
:10BB7000ACBF0022521A0E92B0F9060001EB090286
:10BB80008242D2BF4846401A401C07900E9800FBE4
:10BB900003F10B9800FB061004EBD00700F007043C
:10BBA0001C21684613F0E8FBA889ADF80800A87EC0
:10BBB0008DF81800A87FC0F3C2008DF81900FAF7BD
:10BBC00095FF0BF01FFD0A9901FB09F18142D8BFD7
:10BBD0000846109013F0B8F9814603901798002595
:10BBE00001880B980A18ADF820201798ABF10101D5
:10BBF000008801441798ADF8241043880E98ADF8DA
:10BC0000302018448B1AADF82200ADF83200ADF8A0
:10BC100034100799ADF826005B1C08441BB2ADF840
:10BC200036000F930CA80CF073FD129008A800903A
:10BC30000590C6F108001190DDE90A010844A0EB67
:10BC40000B00704313900E9807990A90884273DA9C
:10BC50000B98ABEB000014900B992AFA04F02B46DA
:10BC60005945B8BF4FF0000E1ADA3A7802EA000CD4
:10BC7000119A121B3CFA02F21ABF18F8022009F8B6
:10BC8000052009F805E0119A944239BF3444F04088
:10BC90000024504628BF7F1C491C6D1C5945E4DB1D
:10BCA000129888B109EB0300BDF92620BDF92010D8
:10BCB0000E900F9B0CF0E4FC8DF81000002804BFE0
:10BCC000DDE90E0113F058FB1498411910988142D8
:10BCD00017D2BDF82600401CADF8260020E0DFF8A2
:10BCE00090804FF0800A0222F8E6DFF888804FF05B
:10BCF000C00A0422F2E6DFF880804FF0F00A10223A
:10BD0000ECE602208DF81000694615980DF073FBE3
:10BD1000BDF82600401CADF82200ADF82600002535
:10BD200013980799204407EBD00700F007040A98FE
:10BD3000401C0A9088428FDBBDF92210BDF9260015
:10BD4000814209D0401EADF8260002208DF8100077
:10BD5000694615980DF04FFB484613F065F919B088
:10BD6000BDE8F08FBE8F05081C0200206083002014
:10BD7000A88F0508AA8F0508AE8F05082DE9FF4F8B
:10BD8000B2F90240B3F902C0BBB064450BDA1288C5
:10BD900064F31F4062F30F001A886CF31F4162F3D3
:10BDA0000F0137910AE0128864F31F411B886CF37E
:10BDB0001F4062F30F0163F30F0037910FFA81FB0D
:10BDC00006B20714ABEB06044FEA214AAAEB0705BB
:10BDD000002CCCBF20466042002DCCBF29466942D2
:10BDE0008842CCBF0120002000903C98B0F902109E
:10BDF000009800285FD0002DD4BF68422846420139
:10BE0000002CCCBF2046604292FBF0F0B44A105C9C
:10BE100010FB01F03F30C0114FEA600800F0010153
:10BE200001EB08095E45B4BF31465946A1EB00015C
:10BE3000ADF86010CCBF314659460144ADF86410EE
:10BE40005745B4BF39465146A1EB0001ADF8621029
:10BE5000CCBF394651460844ADF866003B9818A956
:10BE600082680846F9F768F8002804BF3FB0BDE8CB
:10BE7000F08F00200099002943D0002C25DDAAEB8B
:10BE8000080109B2CDE90010A7EB080002B25B4639
:10BE9000314602A80CF092FD0AEB0901012009B21B
:10BEA000CDE9001007EB090002B25B4631460DA850
:10BEB0000CF084FD3EE0002CCCBF204660424201E5
:10BEC000002DCCBF284668429EE70AEB090109B263
:10BED000CDE9001007EB090002B25B46314602A82B
:10BEE0000CF06CFDAAEB0801012009B2CDE90010AD
:10BEF000A7EB080002B25B4631460DA80CF05EFDD0
:10BF000018E0CDE900A00BEB090003B206EB090035
:10BF100001B23A4602A80CF051FD0120CDE900A083
:10BF2000ABEB080003B2A6EB080001B23A460DA83D
:10BF30000CF044FD002102A80CF09AF93990002180
:10BF40000DA80CF095F938904FF0FF308046009026
:10BF50003C98407A10F0100F23D13819032100B219
:10BF6000CDE90001701B03B23A46314621A80CF01E
:10BF700025FD379902200A14111909B2CDE90010E4
:10BF8000379801B2481B03B22CA80CF017FD002112
:10BF900021A80CF06DF9009000212CA80CF068F994
:10BFA0008046BDF86400BDF86010401A401C06B21F
:10BFB000FAF79CFD0BF026FB824618A807F07EFEE0
:10BFC000504503D218A807F079FE8246504612F079
:10BFD000BBFF8346BDF96690BDF86200ADF8660010
:10BFE00000245146584613F0FCF91C211AA813F0FE
:10BFF000C3F93C9818A91A910088ADF870003C98D4
:10C00000007ACDF874B0BDF962508DF880001F91B0
:10C010004D452FDC0BEB0407BDF9601033462AB207
:10C0200038460CF02DFB8DF8780018B931463846AB
:10C0300013F0A2F93444A019504505D2BDF86600AA
:10C04000401CADF8660012E002208DF878001AA9B5
:10C050003B980DF0D0F9BDF866000024401CADF807
:10C060006200ADF866005146584613F0BAF96D1CEF
:10C070004D45CFDDBDF96210BDF96600814209D0A2
:10C08000401EADF8660002208DF878001AA93B9892
:10C090000DF0B1F9584612F0C7FF02A80CF018FBDA
:10C0A0000DA80CF015FB0098B0F1FF3F1CBF21A8B4
:10C0B0000CF00EFBB8F1FF3F1CBF2CA80CF008FBE6
:10C0C00039980CF01FFF38980CF01CFF00980CF00A
:10C0D00019FF40460CF016FF3FB0BDE8F08F00009E
:10C0E000BE9005082DE9F04FCBB005460FF04CF897
:10C0F0000446008E002804BF4BB0BDE8F08F2846F0
:10C100000FF00CF80390608C40F00401618420462D
:10C1100044A915F014F90026B4F820802684608C18
:10C12000374640F00401354661842EA80CF012FF1A
:10C130003CA80CF025F82EAA4FF4A021204616F0BA
:10C1400027FA3CAA4FF4A021204616F06DF9608C26
:10C1500041F6100220F0040161842046A4F82080FA
:10C16000294615F009FF00B24990204641F6110218
:10C17000294615F001FF00B24890204641F6120210
:10C18000294615F0F9FE0FFA80FB204641F613020E
:10C19000294615F0F1FE0FFA80FA12A8039914F05F
:10C1A000B7FD4FF4A0201F90BA48CDE9130504A8AD
:10C1B000169024A81790208E002840F25981606ABA
:10C1C000B54950F82700F4F78BFA48B9781C87B2C4
:10C1D000606AB14950F82700F4F782FA0028F5D0D8
:10C1E000E06A30F81600C0F3C001002940F0388141
:10C1F0000025C0F3C011002918BF0125C0F340106D
:10C2000000280ABFA08E45F08005B04213D118F077
:10C21000200F18BF45F0200518F0020F18BF45F099
:10C22000020518F0040F18BF45F0040518F0080FB8
:10C2300018BF45F00805A06A002D00EBC601B1F853
:10C2400000C0ADF8B0C04A88ADF8B2208888ADF81B
:10C25000B400CB88BDF810118C44ADF8B0C0BDF867
:10C2600012C10844ADF8B400624403EB0C00ADF811
:10C27000B220ADF8B60000F002812584608C40F059
:10C280000401618404A80CF065FE24A80BF078FF7B
:10C2900004AA4FF4A021204616F07AF924AA4FF4FC
:10C2A000A021204616F0C0F8A4F82080608C20F071
:10C2B00004016184E06A30F81600C0F30030002801
:10C2C0009DF8AD0014BF40F0010020F001008DF892
:10C2D000AD002CA8159012AA1A21209620460EF027
:10C2E00057FF9DF8330010F0200F3BD020F03E00A8
:10C2F0001E308DF83300B4F91410BDF9B020594444
:10C300008A4204BF20F008008DF83300BDF9B41054
:10C31000B4F91800A0EB0A00814205D19DF8330062
:10C3200020F010008DF83300B4F916204998BDF9BB
:10C33000B2101044814205D19DF8330020F0040072
:10C340008DF83300B4F91A204898BDF9B610101AC8
:10C35000814207D19DF833008108490061F345000F
:10C360008DF83300BDF8B610BDF9B200091A491CAA
:10C370000FFA81F915F0200F09D0E16A31F8161093
:10C3800011F4007F1CBFA0EB0900ADF8B2002CAA8D
:10C3900004A903980CF0C8FD606ABDF9A430249A82
:10C3A00050F827004790BDF81401BDF810C1BDF941
:10C3B000A210A0EB0C00401C00B2CDE900109DF8CB
:10C3C000ADC0CDF808C046A847991CF065F8BDF887
:10C3D000B410BDF8B000BDF91831091A491C09B2F2
:10C3E000C91A01EBD17100EB6101ADF8B010BDF8D5
:10C3F000B600BDF8B2C0BDF91A21A0EB0C00401C7C
:10C4000000B2801A00EBD0700CEB600000B219444F
:10C41000ADF8B410811809B2ADF8B200ADF8B6109D
:10C4200015F0200F0FD0E26A32F8162012F4007FC8
:10C4300009D009EBD972A0EB6200ADF8B200A1EB14
:10C440006200ADF8B600002000902CAA24A9479BFA
:10C4500003980BF09FFB12AA1B2120460EF098FEBA
:10C46000701C86B2781C87B2208EB0423FF6A7AE11
:10C47000608C20F0040060844BB0BDE8F08F38225F
:10C480002EA904A812F05AFE20223CA924A812F0DA
:10C4900055FE0FE73CBC0708304B01082DE9F04F73
:10C4A0009FB005460EF070FE044628460EF036FE9C
:10C4B0001E90002141F23202204615F05DFD054636
:10C4C000002141F61202204615F056FD28440FFACD
:10C4D00080FA002141F61302204615F04DFD284454
:10C4E0000FFA80F9002141F61002204615F044FDB4
:10C4F00028440FFA80F80CA80BF042FE0CAA4FF467
:10C500000031204615F090FFD4F828B0BBF1000FA1
:10C5100008D1802012F018FD834601468022204673
:10C520000EF00EFB94F83C00002700F00F000128ED
:10C5300008BF01272046002141F26A4215F01CFD88
:10C54000C0B2012808BF0127E06A00286FD010F0B0
:10C5500093FC1490022817D06946E06A10F0A6F9FF
:10C56000012803BF0098C0F38A26450D4FF0FF361F
:10C5700018BF3546EFB1A08A711E5044ADF868006F
:10C580000844ADF86C001EE09DF84D2041F6FF71A7
:10C59000BDF942000292CDE90001BDF944300C9A88
:10C5A00015A8E16A1BF078FFBDF95460BDF956503B
:10C5B000E0E7208BA0EB0900801BADF86800711E3E
:10C5C0000844ADF86C001498022860D0204614F09E
:10C5D000ECFE401BE18A00EBD07001EB6000ADF88F
:10C5E0006A00691E0844ADF86E0014A80BF0ACFA9E
:10C5F00014AA4FF40031204615F0C7FE06EBD670A2
:10C600004010ADF8540005EBD5704010ADF8560061
:10C6100020464FF4003143F60F0215F0ADFCADF8A3
:10C6200050001AAA14A9E36A1E980BF067FA04A82E
:10C630000BF0A6FD04AA0021204615F0F5FE9DF89A
:10C640002D2041F6FF71BDF92200CDE900010292D3
:10C65000BDF92430594603A8049A1BF01DFFE08A57
:10C660004044ADF87200BDF80E100844ADF87600F5
:10C67000E06AE8B16FB3208BBDF80C10A0EB0900A5
:10C68000401AADF870000844ADF874002AE0E08A62
:10C69000691E4044ADF86A000844ADF86E00002001
:10C6A00000901AAA0CA9E36A1E980BF073FABEE771
:10C6B000204615F048FDBDF90C10A28A401A00EB87
:10C6C000D07002EB6000ADF870000844ADF8740063
:10C6D00008E0A08A5044ADF87000BDF80C10084482
:10C6E000ADF87400002000905B461CAA04A91E98B7
:10C6F0000BF050FAA06A002804BF584612F094FCD0
:10C700001FB0BDE8F08F2DE9F04790B005460EF060
:10C710003BFD044628460EF001FD06460CA92046C6
:10C7200014F092FD94F84800002510F0100F18BF87
:10C73000012510F0200F18BF45F00205204600210A
:10C7400041F2010215F018FC00B2A0F51C51D139DC
:10C7500002BF608C10F4806F45F0040504A80BF054
:10C760000FFDB4F84400ADF82600B4F84600ADF86B
:10C7700028008DF82D5004AA0021204615F054FE03
:10C780009DF82C000127002808BF8DF82C70E06B65
:10C790000590206C069005994FF6FF7081421CBFF2
:10C7A0000699814216D020464FF4802144F2574228
:10C7B00015F0E2FB0090BDF80000ADF81E00204629
:10C7C0004FF48021202215F0D7FB0090BDF8000027
:10C7D000ADF8200094F8480041F6FF7800F007001B
:10C7E000022818BF03281ED19DF82C00022818BF6C
:10C7F000032818D1BDF92200CDE900080295BDF942
:10C800002430049A03A8616A1BF046FEBDF8340088
:10C81000BDF83010401A401CBDF90C1000B288421F
:10C82000B8BF8DF82C7004F1300794F8480000F080
:10C830000700032809D0BDF83600BDF83210401AB1
:10C84000401C00B2B0F5806F00DA00270CA90EA8DA
:10C85000B268F8F771FB002804BF10B0BDE8F0879C
:10C8600094F8480010F0070F0BD1204614F07EFF1B
:10C87000404202B200210CA807F047FA608BADF8E5
:10C88000360094F848000DF1380A00F0070002283D
:10C8900018BF032811D000970CAA04A93046636A78
:10C8A0000BF078F9D6F80890C6F808A094F848007C
:10C8B00000F0070003280ED05CE0D6F80890C6F818
:10C8C00008A000970CAA04A93046636A0BF062F92D
:10C8D000C6F80890E8E7BDF92200CDE90008029506
:10C8E000BDF92430049A03A8616A1BF0D5FDBDF898
:10C8F0003400BDF83010401A401CBDF90C1000B2D5
:10C90000884219DA2022114604980EF071FDB4F81D
:10C910004410BDF80C2000EB400011440844ADF871
:10C920002600B4F84600ADF8280000970CAA04A928
:10C930003046636A0BF02EF9BDF83600BDF83210B0
:10C94000401A401C01B2BDF90E00814212DAB4F85F
:10C950004410ADF826100499B4F846200989104413
:10C960000844ADF8280000970CAA04A93046636A71
:10C970000BF010F9C6F8089010B0BDE8F087000081
:10C980002DE9F04FDBB005460EF0FEFB04462846CD
:10C990000EF0C4FB8346826804F1140146A8F8F740
:10C9A000CBFA002804BF5BB0BDE8F08FDBF80800CD
:10C9B000589046AE2046002141F23202CBF8086082
:10C9C00015F0DAFA00B203902046002141F6100279
:10C9D00015F0D2FA00B24E902046002141F6110225
:10C9E00015F0CAFA00B257902046002141F6120213
:10C9F00015F0C2FA00B24D902046002141F6130214
:10CA000015F0BAFA00B24C9020464FF4A02141F63E
:10CA1000120215F0B1FA00B2559020464FF4A02151
:10CA200041F6130215F0A8FA00B2549020464FF4D4
:10CA3000A02141F6100215F09FFA00B25390204653
:10CA40004FF4A02141F6110215F096FA00B252906F
:10CA5000208C00254B902584608C40F0040161847B
:10CA600024A80CF077FA24AA4FF4A021204615F050
:10CA70008FFD3CA80BF084FB3CAA4FF4A02120467C
:10CA800015F0D2FC4B982084608C002720F0040124
:10CA90002046618414F07AFE0146E28A4E981044E2
:10CAA000411A03980844401EADF8CE00204614F009
:10CAB00065FE4A90204641F26A42294615F05CFA2A
:10CAC000C0B201280CBF4FF0010A4FF0000A5946CE
:10CAD00012A814F01DF94FF4A0201F90EA48CDE9E8
:10CAE000130504A8169034A81790E08C4FF00009A5
:10CAF00000287DD9E06ABDF8CE1030F91900491C34
:10CB000009B2421E0A44ADF8CE20BDF91E21ADF88F
:10CB1000CA1091426CDCBAF1000F0AD0228B4C99FA
:10CB2000521A4A99521A0399511A491EADF8C8105F
:10CB300009E0A28A4D990A444A99521A039911446C
:10CB4000491EADF8CC10A18C0026002968D900EB55
:10CB5000D070569040105990A06A4FF0000850F8DD
:10CB60002700002818BF90F80080BAF1000F0CD001
:10CB7000BDF8C800401EADF8CC00216B31F816108E
:10CB8000401A401CADF8C8000BE0BDF8CC00401CBA
:10CB9000ADF8C800216B31F816100844401EADF8FE
:10CBA000CC00A08C0025401E8642B8BF022127DAA7
:10CBB000A06A7A1950F8220000281CBF90F8008063
:10CBC00018F0010F1CD0206B06EB050201EB4202AE
:10CBD000805ABAF1000F1DBFBDF8C820101AADF879
:10CBE000C800BDF8CC2004BF1044ADF8CC0000E074
:10CBF0001EE0681C85B2A08CAA19401E8242D7DBB9
:10CC0000BDF9CE10BDF91A01814217DA7819401C1E
:10CC100087B2701980B2401C86B2A08CB0429BD8FB
:10CC200009F101001FFA80F9E08C8145FFF462AF41
:10CC30005898CBF808005BB0BDE8F08FBDF9CC0088
:10CC4000ADF814010190ADF81611BDF9C8209DF89A
:10CC5000B300ADF81021BDF9CAE0ADF812E110F053
:10CC6000080F0DD0B4F914C04D9B63449A4207DD00
:10CC7000BDF9B03003EBD373A2EB6302ADF8102122
:10CC800010F0040F0DD0B4F916304E9A1A449645A0
:10CC900007DDBDF9B02002EBD272AEEB6202ADF857
:10CCA000122110F0100F14D0B4F918C04C9B019A47
:10CCB000ACEB03035B1E93420BDDBDF9B02002F029
:10CCC000010302EBD27203EB6203019A1A44ADF83E
:10CCD000142110F0020F11D0B4F91A205798101A2D
:10CCE000401E88420ADDBDF9B00000F0010200EBF1
:10CCF000D07002EB60000844ADF81601E18E002010
:10CD0000494504BFA18EB1427DD1218C11F0400F65
:10CD100003D111F0200F18BF202011F0020F18BF0F
:10CD200040F0020011F0040F18BF40F0040011F0B1
:10CD3000080F18BF40F00800002869D02084608CDC
:10CD400040F00401618404A80CF004F934A80BF04D
:10CD500017FA04AA4FF4A021204615F019FC34AAB2
:10CD60004FF4A021204615F05FFB4B982084608C87
:10CD700020F00401618444A81590A08C12AA09FB3C
:10CD8000006020901A2120460EF002FA44AA04A95D
:10CD900058460CF0C9F8A06A50F8270000286CD05B
:10CDA000BDF8C8105598BDF8CC20084401B254987D
:10CDB000BDF8CA30101A02B2ADF824215398ADF86C
:10CDC00020111844ADF82201BDF8CE305298C8F3B6
:10CDD0004008181AADF8260118F1000018BF02200B
:10CDE000511A491CBDF9E22009B20092CDE90110A7
:10CDF000A06ABDF9E4303C9A50F82700411C4FA8C6
:10CE00001BF04AFB00E003E0B8F1000F1ED10AE07E
:10CE1000382224A904A812F091F920223CA934A8B0
:10CE200012F08CF9A7E7BDF93E11BDF8CA00569A79
:10CE300001EBD17100EB6202A2EB6102ADF822219D
:10CE4000599A02EB61010844ADF8260132AA46A9BD
:10CE500050A8F8F771F880B150A8CBF8080000206E
:10CE60000090A06A48AA34A950F82700431C5846ED
:10CE70000AF090FE46A8CBF8080012AA1B21204613
:10CE80000EF086F9C2E6000070BD0708F8B504464A
:10CE90000EF07AF9064620460EF074F90446406B0F
:10CEA000B0F5A02F18BFF8BD0025A06B072805D24C
:10CEB0002069C570206980F8225012E081B22022DA
:10CEC000304607F0ABFC60B12069C570206980F87E
:10CED0002250122017F054FA00906069BDF800103B
:10CEE0008181208F4FF4004281B2304607F096FCDA
:10CEF00098B121696620C87030461AF0B7FF0090DB
:10CF00002069BDF800108180304607F085FCA16BD8
:10CF1000884202D12169B220C870208F4FF480422C
:10CF200081B2304607F07AFC002808BFF8BDFF2028
:10CF3000216981F8220030461AF098FF009020699C
:10CF4000BDF80010C1832069018C491C0184F8BD23
:10CF500070B50446806982B061898668A0896D4693
:10CF600069B100287ED0814203D12289E3889A42A8
:10CF700079D3022978D0032977D000F0DFB80028D0
:10CF800047D1E0882189884243D2B4F906001BF0DA
:10CF900053FAB4F90410B4F90E20891A48432168F1
:10CFA000498801EBE030ADF80200E0885A3000B269
:10CFB0001BF042FAA18810FB01F02168098801EBFF
:10CFC000E030ADF80400B4F908001BF035FAA18890
:10CFD00010FB01F02168498801EBE030ADF8060054
:10CFE00020895A3000B21BF027FAB4F90410B4F9C2
:10CFF0000E20891A484321683246098801EBE03047
:10D00000ADF8000069460846F7F796FF00286FD094
:10D010008DE020680088ADF800002068A188408875
:10D020000844ADF80600B4F906001BF005FAB4F99F
:10D030000410B4F90E20891A48432168498801EB8D
:10D04000E030ADF80200E0885A3000B21BF0F4F98D
:10D05000A18810FB01F02168098801EBE030ADF8F0
:10D06000040003E012E048E03FE042E06946324657
:10D070000846F7F761FF30B1A0696A46856021690B
:10D08000A0690BF051FFA089002857D12068A18822
:10D0900000880844ADF8040020684088ADF802001C
:10D0A000B4F908001BF0C8F9A18810FB01F0216851
:10D0B000498801EBE030ADF8060020895A3000B213
:10D0C0001BF0BAF9B4F90410B4F90E20891A4843D8
:10D0D00021683246098801EBE030ADF8000069466E
:10D0E0000846F7F729FF18B121E0012826D104E00E
:10D0F00024E0022818BF012820D120683246008889
:10D10000ADF8000020684088ADF802002068A188D2
:10D1100000880844ADF804002068A18840880844CD
:10D12000ADF8060029460846F7F706FF30B1A069BA
:10D130006A4685602169A0690BF0F6FEA0698660E9
:10D1400002B070BD70B504468069618982B086689E
:10D15000A0896D46012910D001287DD0814204D1DB
:10D160002289E3889A42C0F0C280002975D0032941
:10D1700008BF022872D000F0DEB8012847D1E0884D
:10D180002189884243D2B4F906001BF055F9A188E1
:10D1900010FB01F02168498801EBE030ADF8060092
:10D1A000E0885A3000B21BF047F9B4F90410B4F922
:10D1B0000E20891A48432168098801EBE030ADF858
:10D1C0000400B4F908001BF037F9B4F90410B4F9FD
:10D1D0000E20891A48432168498801EBE030ADF8F8
:10D1E000020020895A3000B21BF026F9A18810FBFA
:10D1F00001F021683246098801EBE030ADF800000B
:10D2000069460846F7F798FE00287DD08CE0206834
:10D21000A1880088401AADF8000020684088ADF869
:10D220000200B4F906001BF007F9A18810FB01F019
:10D230002168498801EBE030ADF80600E0885A30FB
:10D2400000B21BF0F9F8B4F90410B4F90E20891AF1
:10D2500048432168098802E015E044E047E001EB1B
:10D26000E030ADF80400694632460846F7F764FE40
:10D2700030B1A0696A4685602169A0690BF054FE4F
:10D28000A089012857D120680088401EADF804000D
:10D290002068A18840880844ADF80600B4F9080069
:10D2A0001BF0CAF8B4F90410B4F90E20891A4843E7
:10D2B0002168498801EBE030ADF8020020895A303E
:10D2C00000B21BF0B9F8A18810FB01F021683246CA
:10D2D000098801EBE030ADF8000069460846F7F731
:10D2E0002BFE88B120E0022818BF032823D1206834
:10D2F000A1880088401AADF8000020684088ADF889
:10D3000002002068008800E015E0401EADF804002F
:10D310002068A188324640880844ADF806002946B6
:10D320000846F7F709FE30B1A0696A4685602169B1
:10D33000A0690BF0F9FDA069866002B070BD70B500
:10D3400004468069618982B08668A0896D46022999
:10D350000DD002287CD0814203D12289E3889A42F1
:10D3600077D3002976D0012975D000F0E2B80228E1
:10D3700046D1E0882189884242D25A3000B21BF05F
:10D380005BF8A18810FB01F02168098801EBE0300F
:10D39000ADF80000B4F906001BF04EF8B4F9041023
:10D3A000B4F90E20891A48432168498801EBE0301E
:10D3B000ADF80600B4F908001BF03EF8A18810FB98
:10D3C00001F02168498801EBE030ADF802002089C6
:10D3D0005A3000B21BF030F8B4F90410B4F90E2042
:10D3E000891A484321683246098801EBE030ADF8DC
:10D3F000040069460846F7F79FFD00286ED091E0CB
:10D4000020680088401EADF804002068A18840888C
:10D41000401AADF80200E0885A3000B21BF00CF858
:10D42000A18810FB01F02168098801EBE030ADF81C
:10D430000000B4F906001AF0FFFFB4F90410B4F9C3
:10D440000E20891A48432168498801EBE03003E047
:10D4500014E04BE043E045E0ADF806006946324693
:10D460000846F7F769FD30B1A0696A468560216911
:10D47000A0690BF059FDA08902285AD12068A18823
:10D480000088401AADF8000020684088401EADF8C2
:10D49000060020895A3000B21AF0CEFFB4F9041009
:10D4A000B4F90E20891A48432168098801EBE0305D
:10D4B000ADF80400B4F908001AF0BEFFA18810FB13
:10D4C00001F021683246498801EBE030ADF80200F6
:10D4D00069460846F7F730FD00B123E029E003284C
:10D4E00027D103E0032818BF002822D12068A18893
:10D4F00032460088401AADF800002068A1884088B4
:10D50000401AADF80200206829460088401EADF898
:10D51000040020684088401EADF806000846F7F772
:10D520000BFD30B1A0696A4685602169A0690BF0E6
:10D53000FBFCA069866002B070BD70B504468069CE
:10D54000618982B08668A0896D4603290FD00328BF
:10D550007CD0814203D12289E3889A4277D3022981
:10D5600076D0012975D0022974D000F0DFB80328E5
:10D5700046D1E0882189884242D25A3000B21AF05E
:10D580005BFFB4F90410B4F90E20891A48432168EE
:10D59000098801EBE030ADF80000B4F906001AF09C
:10D5A0004BFFA18810FB01F02168498801EBE030B6
:10D5B000ADF8020020895A3000B21AF03DFFA18870
:10D5C00010FB01F02168098801EBE030ADF80400A0
:10D5D000B4F908001AF030FFB4F90410B4F90E20C1
:10D5E000891A484321683246498801EBE030ADF89A
:10D5F000060069460846F7F79FFC00286ED08EE0CB
:10D600002068A18800880844ADF80400206840889C
:10D61000401EADF80600E0885A3000B21AF00CFF48
:10D62000B4F90410B4F90E20891A48432168098816
:10D6300001EBE030ADF80000B4F906001AF0FCFE92
:10D64000A18810FB01F02168498804E017E04BE055
:10D6500045E048E044E001EBE030ADF80200694607
:10D6600032460846F7F768FC30B1A0696A46856023
:10D670002169A0690BF058FCA089032856D12068C5
:10D680000088ADF800002068A1884088401AADF8F5
:10D69000020020895A3000B21AF0CEFEA18810FB99
:10D6A00001F02168098801EBE030ADF80400B4F91D
:10D6B00008001AF0C1FEB4F90410B4F90E20891A5A
:10D6C000484321683246498801EBE030ADF8060056
:10D6D00069460846F7F730FC00B120E026E018B1B3
:10D6E000012823D100E008BB206832460088ADF84D
:10D6F00000002068A1884088401AADF80200206828
:10D70000A18800880844ADF80400206829464088B4
:10D71000401EADF806000846F7F70EFC30B1A069D0
:10D720006A4685602169A0690BF0FEFBA0698660EE
:10D7300002B070BD2DE9F34FB7B08046389808F1BC
:10D740001401826830A8F7F7F7FB002804BF39B04E
:10D75000BDE8F08F389830A980682C9038988160A7
:10D76000B8F8820002283CBF39B0BDE8F08F4046CF
:10D77000002141F2320214F0FFFB04464046002132
:10D7800041F6120214F0F8FB05194046002141F65B
:10D79000100214F0F1FB0444404613F0B0FD0146C2
:10D7A000B8F88400484340F30F202E90404613F011
:10D7B00086FDB8F88610484340F30F202A90404673
:10D7C00013F0E4FEB8F814102944081A00B22B90A4
:10D7D000404613F0CBFFB8F816102144081A00B2E7
:10D7E0002D90389808F11401826834A8F7F7A4FB4B
:10D7F000002804BF39B0BDE8F08F13A80AF016FD69
:10D8000013AA4FF4A021404614F067FE16A80BF0AF
:10D81000A1FB16AA4FF40031404614F0B9FE404671
:10D820004FF4003141F2010214F0A6FB00B200EB0C
:10D83000D0704FEA600940464FF4003141F20402D3
:10D8400014F09AFB00B200EBD0704110BDF94E20ED
:10D8500025918945B8BF494602EBD270B1EB600F04
:10D8600005DD9DF8550040F010008DF85500012AA7
:10D8700005D19DF8550040F010008DF85500B8F81E
:10D8800082102E988142ACBF012000202F9008F119
:10D890002400F8F7C7FE04001CBF09F10100329014
:10D8A00000F07581207B10F0010F40F06881208925
:10D8B000ADF84C002089ADF85C0098F8880010F0B5
:10D8C000080F14BF0020608905B22B982895ADF889
:10D8D0009000ADF8480060682F4630F91520207B95
:10D8E000C0F3001108EB4101B1F96C00B1F97010FF
:10D8F000131A2A9A081A5A4392FBF0F02A99091A25
:10D900002D980844ADF84A006846389913F000FA9B
:10D91000A2480190032002904FF4A0200D9013A87C
:10D92000069016A811940490BDF94AB0B8F8820088
:10D930000026DA46002840F2E780BDF94810ADF82D
:10D940009010BDF84A00ADF892002C98B0F9042070
:10D9500032981044814200F3D7802E98B8F8822084
:10D9600000FB06F3501E93FBF0F32B981844289B02
:10D9700000B2334493FBF2FC02FB1C32ADF84800CA
:10D98000237B15B26268C3F3001308EB430E32F930
:10D990001520BEF96C30A2EB030C2A9A0CFB02F2A4
:10D9A000BEF970C0ACEB030392FBF3F22A9B9B1A07
:10D9B0002D9A1A442C9B12B2ADF84A20B3F90030CC
:10D9C000A3EB09035B1E83427EDC002E7CD02F9BE1
:10D9D00083B3636847F6FF7C33F9177067451CBF54
:10D9E00033F9153063456FD05245A8BF92465A456A
:10D9F000D8BF934681427FD0401EADF84800ADF8B5
:10DA000090001746ADF892B0ADF84AA0D34504BFD8
:10DA10000AF10100ADF84A0012AB24AA13A9389804
:10DA20000AF0F6FBBDF84800BB46401CADF84800C4
:10DA3000DA4661E0FFE7BDF89000A0EB0901484439
:10DA4000ADF89810ADF89C00BDF892002599411AE8
:10DA5000ADF89A1025990844ADF89E00701E0E90FE
:10DA6000606830F91700A0F5FE41FF3914BF24A803
:10DA700000200990606830F91520A2F5FE40FF38BB
:10DA800014BF12A800200A9026A8039060686A4676
:10DA90001A2130F91700109040460DF079FB6068AC
:10DAA00030F91720A2F5FE41FF391EBF30F91510DD
:10DAB000A1F5FE40B0F1FF0005D012AB24AA13A9D6
:10DAC00038980AF0A5FB00E016E0B9F1000F1CBF82
:10DAD000259800280BD0606830F91710A1F5FE409A
:10DAE000FF3804D026AA16A938980BF01DFA6A460A
:10DAF0001B2140460DF04CFB701C86B2B8F882002A
:10DB00002F46B0423FF619AF2F98002804BFB8F84F
:10DB10008200B04233D1606830F91510A1F5FE40A3
:10DB2000FF382CD0BDF848006A46A0EB09014844F4
:10DB3000ADF8A010ADF8A400BDF84A002599411A2F
:10DB4000ADF8A21025990844ADF8A600701E0E90FD
:10DB5000002009900A9028A8039060681A2130F9E3
:10DB60001500109040460DF013FB28AA16A938980E
:10DB70000BF0DAF96A461B2140460DF009FB2146FD
:10DB800008F12400F8F74BFD04007FF48BAE3899C0
:10DB90002C98886039B0BDE8F08F000054910508DA
:10DBA0002DE9F34FB1B00646329806F114018268B0
:10DBB0002EA8F7F7C1F9002804BF33B0BDE8F08FF5
:10DBC00032982EA941F2320280682D9032988160FD
:10DBD0000021304614F0D0F90446002141F612022B
:10DBE000304614F0C9F90746002141F610023046CC
:10DBF00014F0C2F90546304613F081FBB6F88410E4
:10DC0000484340F30F202C90304613F058FBB6F8F1
:10DC10008610484340F30F2B304613F0B7FC014603
:10DC2000B28A38191044401A00B22A90304613F0D4
:10DC30009DFD0146F28A28191044401A00B22B902B
:10DC400022A80AF0F3FA22AA4FF4A021304614F0D9
:10DC500044FC14A80BF07EF914AA4FF400313046AE
:10DC600014F096FC4FF4003141F20102304614F0FA
:10DC700083F900B200EBD0704FEA600A4FF4003134
:10DC800041F20402304614F077F900B200EBD07094
:10DC90004FEA6009BDF98A20CA45ACBF49465146E2
:10DCA00002EBD270B1EB600F05DD9DF8910040F002
:10DCB00010008DF89100012A05D19DF8910040F0E7
:10DCC00010008DF8910006F12400F8F7ABFC040079
:10DCD00000F04781207B10F0010F40F03A8120894D
:10DCE000ADF888002089ADF8540096F8880010F04F
:10DCF000080F14BF0020608905B22A982895ADF856
:10DD00009400ADF804006068A84630F815000A28B1
:10DD100004BF9748ADF804002BD02C9800902068E1
:10DD2000002330F915C0207BC0F3C00106EB410091
:10DD3000B0F97820B0F97410604611F0BAF82A9959
:10DD4000CDF800B00844ADF804006068002330F955
:10DD500015C0207BC0F3001106EB4100B0F9702024
:10DD6000B0F96C10604611F0A4F82B99ABEB0000F1
:10DD70000844ADF8060002A8329912F0C9FF4FF42A
:10DD8000A0200F907B4803900320049022A80890C5
:10DD900014A813940690B6F88200002700287CD9B6
:10DDA000BDF80400ADF89400BDF80600ADF896008B
:10DDB0002898B6F88210384490FBF1F201FB12006B
:10DDC00005B2606830F91500A0F5FE41FF3965D055
:10DDD000CDF800B0217B0023C1F3001206EB420115
:10DDE000B1F97020B1F96C1011F063F82B99ABEB1D
:10DDF00000000844ADF806002C980090206800232D
:10DE000030F915C0207BC0F3C00106EB4100B0F92A
:10DE10007820B0F97410604611F04BF82A99002F61
:10DE20000844ADF8040055D0BDF89400A0EB0A01F9
:10DE30005044ADF89C00BDF89600ADF89810A0EBEA
:10DE400009014844ADF89E00781EADF89A10109074
:10DE5000606830F91800A0F5FE40FF3818BF25A80B
:10DE60000B90606830F91520A2F5FE40FF3814BF12
:10DE700001A800200C9026A80590606802AA1A212B
:10DE800030F91800129030460DF082F9606847F6BC
:10DE9000FF7130F918208A4201E023E01AE01CBF2C
:10DEA00030F91500884210D001AB25AA22A932987A
:10DEB0000AF0AEF9BAF1000F18BFB9F1000F04D0A3
:10DEC00026AA14A932980BF02FF802AA1B2130467B
:10DED0000DF05EF9781C87B2B6F88200A846B84209
:10DEE0003FF65EAFB6F88200B84232D1606830F9D2
:10DEF0001510A1F5FE40FF382BD0BDF8040002AA92
:10DF0000A0EB0A015044ADF8A400BDF80600ADF83E
:10DF1000A010A0EB09014844ADF8A600781E1090AF
:10DF200000200B900C90ADF8A21028A80590606816
:10DF30001A2130F91500129030460DF029F928AA5F
:10DF400014A932980AF0F0FF02AA1B2130460DF006
:10DF50001FF9214606F12400F8F761FB04007FF465
:10DF6000B9AE32992D98886033B0BDE8F08F0000CB
:10DF700001E0FFFF549105082DE9F74F0D46B1F977
:10DF80002E10A6B0904600291CBF95F83600022836
:10DF90009CBF29B0BDE8F08F01290BD1B5F9340041
:10DFA0000028DCBF288E002801BF688E002829B019
:10DFB000BDE8F08FB8F800002B8E00EB030CA88EA4
:10DFC000ACEB000C0FFA8CFAB8F804C06AF30F0639
:10DFD000634403440FFA83F9B8F802C06B8E69F307
:10DFE0000F029C44ACEB000C0FFA8CF7B8F806C09B
:10DFF00067F31F466344184404B201EBD170AAEBE7
:10E000006001491EADF82010012164F31F4201EBAD
:10E01000600018924844ADF82400B5F92E0000EBDA
:10E02000D070A7EB6000401EADF82200B5F92E00BD
:10E0300000EBD07001EB60002044ADF8260095F8AD
:10E0400036001A90FD2884BFFF201A90269808A950
:10E05000826824A8F6F770FF002804BF29B0BDE845
:10E06000F08FB8F80000ADF81000B8F80200ADF875
:10E070001200B8F80400ADF81400B8F80600ADF8C6
:10E0800016004FF0FF32114604A805F031FEBDF82E
:10E090001400BDF81010BDF81220401ABDF816107B
:10E0A000B5F90080891A401C491C00B209B2C34668
:10E0B0008842A8BF0846B8EB600FC8BF4FEA6008A7
:10E0C000A9EB0A00E11B401C491C00B209B28842BE
:10E0D000A8BF0846BBEB600FC8BF4FEA600BB5F99D
:10E0E0002E0000EB0B0404FB04F0400010F02CFFAA
:10E0F0000190B5F92EA081465A460AEBDA73301426
:10E10000CDF864A00BEB630C00904FF0010B189856
:10E110002BEA0A0E0114ACEB0E0C801BACF1010CC7
:10E120000BEB6303401CADF82A30ACEB0000ADF8FC
:10E1300028000098ADF82CC0081A401C1844ADF80F
:10E140002E000AEB020700230AA90CA80AF026FEFB
:10E15000DDF864A0BAF1010F18BF4FEA6A0A384629
:10E1600010F0F2FE834600204E461890002F3BDD53
:10E170007800239038B222903946584611F031F990
:10E180000CA800901898DDF830C002B20021584663
:10E19000229BE047E8B19BF80000800190FBFAF079
:10E1A00030800120012F18DD0BEB00021BF800105E
:10E1B00012F8012C914207BF06EB400131F8021C16
:10E1C000890191FBFAF126F81010401CB842EBDBF4
:10E1D00003E03046239911F0CFF8189806EB470674
:10E1E000401C1890B842C7DB584610F01DFF0CA821
:10E1F0000AF06EFABAF1010F3FD038B24A465146E2
:10E2000006461CF0E2FC199800F00100504403B2ED
:10E21000012B20DD4FF47F5090FBF3F1002007FB32
:10E2200007FCBCF1000F88BF8AB20FD939F8101073
:10E2300049B1FF2908BF29F8102004D0890191FBBA
:10E24000F3F129F81010401C8445EFD84A461946CE
:10E2500030461CF0BAFC002007FB07F24946002AB2
:10E2600005DD19F810300B54401C8242F9DC08A877
:10E270000AF04EFA0126A0B90DE0002007FB07F2D4
:10E280004946002AF3DD39F810309B090B54401C35
:10E290008242F8DCEBE7E878FF2824BFA878002862
:10E2A00000D000264FF0FF300E9056B901234246B1
:10E2B00004A912A80AF072FD002112A809F0D8FFE3
:10E2C0000E90BDF82400BDF82010401A401C00B28A
:10E2D00010F03AFE82461C211BA811F04DF802A84E
:10E2E0001B90CDF878A02090A88DADF8740095F81B
:10E2F00036008DF88400A8788DF88500BDF82410CC
:10E30000BDF82020881A401C00B200EBD07002EB50
:10E3100060000FFA80FBBDF82200BDF82620ADF8A2
:10E320000C10121A521C12B202EBD272091B00EB33
:10E330006202491C17B209B2621EADF80810ADF8AE
:10E340000A00104400B20092ADF80E005945D8BF43
:10E350005946ADF80810B842A8BF3846ADF80E00CF
:10E36000269802A9826806A8F6F7E6FD002859D08B
:10E37000424604A906A8F6F70BFEE8BBBDF81C1040
:10E38000BDF91800BDF91A20091A491C09B20A91F1
:10E39000BDF922300199D21A02FB0411BDF92420E3
:10E3A000121B801A0844401E0C904EB1424604A92C
:10E3B00006A8F6F761FE00281CBF01200D9000D1D1
:10E3C0000D960A9800282DDDBDF81800ADF808005C
:10E3D000BDF81C00ADF80C0002208DF87C00BDF9E2
:10E3E0001A90BDF91E10CDF878A089451ADCADF859
:10E3F0000A90ADF80E9000E014E00D9800281CBFC4
:10E400000C981E903BD01BA926980AF0F4FF0C989C
:10E4100020440C9009F101000FFA80F9BDF91E00AB
:10E420004845E4DABDF82400ADF80C00BDF826201C
:10E43000001B401C111B00B2491CADF8080009B2BA
:10E44000ADF80A10ADF80E205845D8BF5846ADF8C3
:10E450000800781C0A908142D8BF791CADF80A10D8
:10E46000269802A9826806A8F6F766FD00286CD0F7
:10E47000424604A906A8F6F78BFDA0B165E0224646
:10E4800050460C9910F05AFEBDF918104A465046F5
:10E490000A9B0AF0F5F88DF87C00012804BF0220E1
:10E4A0008DF87C00AFE7BDF81C10BDF91800BDF970
:10E4B0000E20091A491C09B21991BDF91E300199A3
:10E4C000D21A02FB0411BDF92420121B801A084441
:10E4D000401E0C904EB1424604A906A8F6F7CCFDAA
:10E4E00000281CBF01200D9000D10D96199800281E
:10E4F0002BDDBDF81800ADF80800BDF81C00ADF824
:10E500000C0002208DF87C00BDF91E90BDF91A1098
:10E51000CDF878A0494518DCADF80E900D98ADF80F
:10E520000A9000281CBF0C981E9035D01BA9269875
:10E530000AF061FF0C9820440C90A9F101000FFA39
:10E5400080F9BDF91A004845E6DDBDF820000099C4
:10E550002044ADF80800BDF82400001BADF80C0005
:10E56000BDF82200ADF80A00084400B2ADF80E0074
:10E57000B842A8BF3846ADF80E00269802A98268B6
:10E5800006A8F6F7D9FC00287ED0424604A906A8C2
:10E59000F6F7FEFCA0B180E0224650460C9910F040
:10E5A000CDFDBDF918104A465046199B0AF068F88F
:10E5B0008DF87C00012804BF02208DF87C00B5E7AF
:10E5C000BDF81C00BDF81810BDF90A20401A401C07
:10E5D00000B20B90BDF91A100198891A01FB0400D2
:10E5E0000C904EB1424604A906A8F6F745FD002856
:10E5F0001CBF01200D9000D10D960B9800284CDD1A
:10E600000D9800280EBFCDF878A000201E90BDF810
:10E610001800ADF80800BDF81C00ADF80C00BDF9FD
:10E620001A90BDF91E00484537DBADF80E900D98E5
:10E63000ADF80A9060B11A98FF280C98007804D0C1
:10E6400095F8361010FB01F0000A8DF8840013E0F5
:10E650000C980B9A0178504610F055FEBDF9181031
:10E660004A4650460B9B0AF00BF88DF87C000128B7
:10E6700004BF02208DF87C001BA926980AF0BBFE7F
:10E680000C9820440C9000E007E009F101000FFA1B
:10E6900080F9BDF91E004845C7DA95F836008DF8B7
:10E6A0008400BDF82000BDF826102044ADF8080015
:10E6B000BDF82400001BADF80C00081B401CADF891
:10E6C0000E1000B20A99ADF80A008842D8BF781C33
:10E6D000ADF80A00269802A9826806A8F6F72CFC75
:10E6E000F0B3424604A906A8F6F752FCC0BBBDF839
:10E6F0001C00BDF81810BDF91E20401A401C00B2C5
:10E700000B90BDF90E100198891A01FB04000C90C2
:10E710000B98002859DD2EB1424604A906A8F6F749
:10E72000ABFC20B9002E08BFCDF878A001D00020A6
:10E730001E90BDF81800ADF80800BDF81C00ADF83B
:10E740000C00BDF91E90BDF91A0048453DDCADF83E
:10E750000A90ADF80E903EB1424604A906A800E02A
:10E7600033E0F6F789FC00B966B11A98FF280C98D7
:10E77000007804D095F8361010FB01F0000A8DF8EF
:10E78000840013E00C980B9A0178504610F0BBFD02
:10E79000BDF918104A4650460B9B09F071FF8DF8E1
:10E7A0007C00012804BF02208DF87C001BA926985C
:10E7B0000AF021FE0C9820440C90A9F101000FFAF8
:10E7C00080F9BDF91A004845C1DD95F836008DF88D
:10E7D0008400BDF82400ADF80C00011B491C0AB2EE
:10E7E000BDF82200BDF826102044091B00B20A9B88
:10E7F000ADF8082009B2ADF80A00ADF80E1083425A
:10E80000D8BF781CADF80A00B942D8BF3946ADF878
:10E810000E105A45D8BF5A46ADF80820269802A9CE
:10E82000826806A8F6F788FBE8B3424604A906A862
:10E83000F6F7AEFBB8BBBDF81C10BDF91800091AFD
:10E84000491C09B20B91DDE9002102FB0411BDF95D
:10E850002420121B801A0844401E0C9046B14246E8
:10E8600004A906A8F6F708FC002818BF012503D163
:10E87000350008BF504600D00C981E900B98002819
:10E8800036DDBDF81800ADF80800BDF81C00ADF885
:10E890000C0002208DF87C00BDF91A90BDF91E1005
:10E8A000894525DC00E023E0ADF80A90ADF80E9034
:10E8B00095B9DDE90B21504610F040FCBDF9181068
:10E8C0004A4650460B9B09F0DBFE8DF87C00012880
:10E8D00004BF02208DF87C001BA926980AF08BFD4E
:10E8E00009F101000FFA80F9BDF91E004845D9DA97
:10E8F00001984FF0000C002CC8BF04EBD47517DD55
:10E9000000EB0409A9F10101002207E0037891F866
:10E9100000E000F801EB01F80139521CB2EB650F81
:10E92000F4DB0CF101010FFA81FC4846A445E7DB5A
:10E93000BDF820000099ADF80800084402B2ADF817
:10E940000C20BDF82200BDF826102044091B00B29F
:10E950000A9B09B2ADF80A00ADF80E109842A8BFA4
:10E96000781CADF80A00B942D8BF3946ADF80E1090
:10E97000ABF101000F908242A8BFABF10102ADF8EC
:10E980000C20269802A9826806A8F6F7D5FAE8B303
:10E99000424604A906A8F6F7FBFAB8BBBDF81C105E
:10E9A000BDF91800091A491C09B20B91DDE90021D3
:10E9B00002FB0411BDF90820801A08440C9046B1EE
:10E9C000424604A906A8F6F757FB002818BF012500
:10E9D00003D1350008BF504600D00C981E900B980C
:10E9E000002836DDBDF81800ADF80800BDF81C00A1
:10E9F000ADF80C0002208DF87C00BDF91A90BDF92D
:10EA00001E10894525DCADF80A9000E021E0ADF844
:10EA10000E9095B9DDE90B21504610F08FFBBDF942
:10EA200018104A4650460B9B09F02AFE8DF87C00D0
:10EA3000012804BF02208DF87C001BA926980AF04B
:10EA4000DAFC09F101000FFA80F9BDF91E00484512
:10EA5000D9DABDF820000099ADF80800084400B2EA
:10EA6000ADF80C00BDF82210009AADF80A10114460
:10EA70000F9A09B2ADF80E109042A8BFABF1010099
:10EA8000ADF80C00B942A8BF3946ADF80E10269873
:10EA900002A9826806A8F6F74FFAE8B3424604A92D
:10EAA00006A8F6F775FAB8BBBDF81C10BDF918003A
:10EAB000BDF90A30091A491C09B20B91BDF91A2097
:10EAC0000199D21A02FB0411BDF90820801A00EB4B
:10EAD00001094EB1424604A906A8F6F7CDFA00286E
:10EAE0001CBF01200D9000D10D960B98CDF878A099
:10EAF000002827DDBDF81800ADF80800BDF81C009F
:10EB0000ADF80C0002208DF87C00BDF91A50BDF95B
:10EB10001E108D4216DC00E014E0ADF80E500D988A
:10EB2000ADF80A50002818BFCDF8789037D01BA94F
:10EB300026980AF060FC681C05B2BDF91E00A144CD
:10EB4000A842E8DABDF820000099ADF808000844B2
:10EB500001B2BDF82620ADF80C10101B401CADF81A
:10EB60000E2000B20A9AADF80A009042D8BF781C75
:10EB7000ADF80A000F988142A8BFABF10101ADF8D2
:10EB80000C10269802A9826806A8F6F7D5F9E8B312
:10EB9000424604A906A8F6F7FBF9A0B15FE02246B9
:10EBA0004946504610F0CAFABDF918102A46504698
:10EBB0000B9B09F065FD8DF87C00012804BF022045
:10EBC0008DF87C00B3E7BDF81C10BDF91800BDF945
:10EBD0000E20091A491C0FFA81FBBDF91E3001995C
:10EBE000D21A02FB0411BDF90820801A47184EB151
:10EBF000424604A906A8F6F73FFA002818BF4FF0CE
:10EC0000010900D1B146CDF878A000E027E0BBF1C2
:10EC1000000F24DDBDF81800ADF80800BDF81C0099
:10EC2000ADF80C0002208DF87C00BDF91E50BDF936
:10EC30001A10A94213DCADF80A50ADF80E50B9F124
:10EC4000000F18BF1E972ED01BA926980AF0D3FBE1
:10EC5000681E05B2BDF91A002744A842EBDDBDF8D5
:10EC60002000CDF878A02044ADF80800BDF82400BD
:10EC700002A9001BADF80C00BDF822002044ADF83D
:10EC80000A00BDF82600001BADF80E002698826829
:10EC900006A8F6F751F9E8B3424604A906A8F6F724
:10ECA00077F9A0B143E022463946504610F046FAC3
:10ECB000BDF918105B462A46504609F0E1FC8DF874
:10ECC0007C00012804BF02208DF87C00BCE7BDF960
:10ECD0001C00BDF91810421A521C15B2002D26DD79
:10ECE000ADF80810ADF80C00BDF91A40BDF91E00D2
:10ECF00084421CDCADF80A40ADF80E40294650466F
:10ED000010F06FFBBDF918102B462246504609F053
:10ED1000B7FC00E00BE08DF87C001BA926980AF0F8
:10ED20006AFB601C04B2BDF91E008442E2DD2EB90C
:10ED300012A809F0CDFC0E980AF0E4F8019810F042
:10ED400073F9504610F070F929B0BDE8F08F00005B
:10ED50002DE9F74FD0B0509805909088B2F9003067
:10ED6000D188B2F802C0C01A401CA1EB0C0100B25D
:10ED7000491C09B200EBD070401001EBD171B0EB2F
:10ED8000610FA8BF481023901844ADF80C005188BB
:10ED900023980844ADF80E0020A809F047FA20AAED
:10EDA0004FF4C021509813F098FB9DF8890040F073
:10EDB00010008DF8890018A809F0E2F918AA4FF49C
:10EDC000C021509813F030FB06A8519911F0A0FF14
:10EDD000F74807904FF4C02013900320089020A814
:10EDE0000C9005982430F7F71DFC040004BF53B0C5
:10EDF000BDE8F08F1794A18B239808440FFA80FB8D
:10EE0000A189A088ABEB01010AB20492BDF80C20E5
:10EE1000ABEB0000111AADF80011BDF80E10024462
:10EE20000B1AADF804210844ADF80231ADF8060123
:10EE3000012347F6FF7240A92AA809F0AFFFBDF8E9
:10EE40000C00049A0123811AADF80811BDF80E10C8
:10EE50008A1AADF80A21049A521E1044ADF80C012A
:10EE60008818ADF80E0147F6FF7242A930A809F0E4
:10EE700095FFBDF80C000023A0EB0B01ADF81011BD
:10EE8000BDF80E10A1EB0B02ADF81221ABF101029F
:10EE90001044ADF814018818ADF8160147F6FF725A
:10EEA00044A924A809F07AFF002124A809F0E0F978
:10EEB0004A906089002814BFA0F1010A4FF6FF7A3A
:10EEC0004FF000086088002840F2A88160890AF1AC
:10EED000010A4FF00009504504BF4FF0000A4FF0FF
:10EEE0000109A069009060880021421E40466369C4
:10EEF0000FF0DFFF07461690B9F1000F14BFA068AE
:10EF0000206800904F9014BFE089E08806B24B96CD
:10EF1000059800F13000F7F785FB05007DD02879D2
:10EF200002287BD1A968B942DCBFEA6897427DDC40
:10EF3000288AAB8A304406B2688A984204BF688A3D
:10EF4000ADF8000072D0A87D4FF0000310F0010F63
:10EF50004FF0FF000090384603D00FF0AAFFC0B278
:10EF600004E0D4E905120FF0A4FFC0B2A98A6A8AAE
:10EF7000ADF8042092B2C2F3C40CC0F1FF031CFB35
:10EF800003FC89B2C1F3C40E1EFB00CCDFF824E2FF
:10EF90000CF1800C0CFB0EFC4FEADC6EBDF800C0DF
:10EFA0006EF3C70CCDF804C04FEA417C4FEA9C6C6D
:10EFB0000CEB513C1CFB00FC4FEA427E4FEA9E6E7C
:10EFC0000EEB523E1EFB03CC0CF1800C0CEBCC1E66
:10EFD000CDF800C00EEBCC3C4FEA9C6EDDF804C0CF
:10EFE000C2F304226EF3020CCDF804C0DFF8C8E1CE
:10EFF000DDF800C00CFB0EFC4FEA5C7EDDF804C0BF
:10F000006EF34F3C12FB03F2C1F3042111FB00200D
:10F01000684980304843C00E01E00FE006E060F32D
:10F020000C2CADF800C01FFA8CF000900598294612
:10F030003030F7F7F4FA05007FF471AFE08B6188A8
:10F0400000FB08F00002491E90FBF1F00112029152
:10F05000491C3691C5B2208C0299084400B219F0BF
:10F06000EBF93790208C3699084400B219F0E4F996
:10F070000146C5F58070379A019010FB02F011FB34
:10F08000050001124C91208C029908445A3000B2BC
:10F0900019F0D2F90290208C369908445A3000B207
:10F0A00019F0CAF90146DDE9010210FB02F011FB7B
:10F0B00005000512BDF80000ADF880000BEB06005E
:10F0C000BDF80C1000FB05F27F32ADF8826001EB59
:10F0D000E231ADF834114C99BDF80E2048437F3031
:10F0E00002EBE030ADF8360103A8CDF850800F9068
:10F0F00018A80B90B9F1000F62D04A9809F002FFEE
:10F10000B4F910100498401ABDF80C1005FB00F279
:10F110007F3201EBE2354C99BDF80E2048437F3039
:10F1200002EBE036202218A936A810F007F836A81E
:10F130000B903B4621A2102146A816F029FD46A8B7
:10F14000119006AA1A2150980CF022F841F6FF708F
:10F15000BDF97210CDE9001000270297BDF9743097
:10F160004EA8189A119919F097F9BDF9380100972E
:10F1700000EBD071A5EB6102BDF93A11104401EB2F
:10F18000D173A6EB6303ADF8FC005818ADF8F82076
:10F19000ADF8FA30ADF8FE003EAA119B0B995198DC
:10F1A00008F0F8FC002124A809F062F84A900FE06A
:10F1B0008C960508100808004020200025640000F7
:10F1C00000200B90119006AA1A2150980BF0E0FF36
:10F1D000B9F1000F14BF30A82AA8002109F048F89F
:10F1E000054603AB4DAA20A9519809F011F828460D
:10F1F00009F088FE06AA162150980BF0C9FFBDF849
:10F200003C01ADF880004B98ADF8820008F1010098
:10F2100000F0FF08608840453FF658AE2AA809F084
:10F2200057FA30A809F054FA24A809F051FA4A987C
:10F2300009F068FE059821462430F7F7F0F904003C
:10F240007FF4D8AD53B0BDE8F08F00002DE9F74F43
:10F25000ACB0170005464FF0000A08BF05F13C04AA
:10F260000ED0012F08BF05F1540409D0022F08BFAA
:10F2700005F1480404D0042F14BF544605F160047E
:10F28000A068C0F30E0101299CBF2FB0BDE8F08F2C
:10F2900010F4004F01BF208800286088002804BFB8
:10F2A0002FB0BDE8F08F2846002141F6120212F07F
:10F2B00063FE06462846002141F2320212F05CFE4F
:10F2C0000644284612F01BF8B5F88410484340F372
:10F2D0000F2918A808F054FF18AA4FF4C021284697
:10F2E00013F0A2F8284612F051F9A98A3144081AFD
:10F2F00000B223902089022F00F4004010D0002893
:10F3000008BF4FF0000808D028464FF4C02141F64E
:10F31000100212F031FE0FFA80F8B5F9166028E0FD
:10F32000002808BF4FF0000808D028464FF4C0213D
:10F3300041F6110212F020FE0FFA80F82D98B5F96F
:10F340001A608068B0F90610B142BCBF2FB0BDE8AA
:10F35000F08F1899B4F90020B0F90200B1F9081043
:10F36000114406EB080211448142BCBF2FB0BDE836
:10F37000F08F20A808F05AFF20AA4FF4C021284699
:10F3800013F0ABF80020ADF88600ADF8840006A8B5
:10F390002D9911F0BDFC8E480790062008900220A0
:10F3A00014904FF4C020139018A80B9020A80C9034
:10F3B000022F14BF4FF0010A4FF0000A95F88800A1
:10F3C00000F0070002281DD12846002141F6150251
:10F3D00012F0D2FDB5F8841000B248430012B5F81F
:10F3E000821009EB000292FBF1F109B2081A00EB5E
:10F3F000D0722399A9EB000001EB620109B20FFA68
:10F4000080F92391ADF8126020896168C0F30E0085
:10F41000401EC1F30E4100FB01FB05EB4A00002634
:10F420002A9060680027C0F30E40B6FBF0F100FBA5
:10F430001160002808BF0127BDF98200A9EB000078
:10F440007043B0FBFBF12398BAF1000F0844ADF80C
:10F450001000BDF91210ADF814005CD0002F0CBFE5
:10F46000B4F90200B4F90000081AADF8160004A8B7
:10F470000F9005A8109095F8880000F00700032869
:10F4800051D06068C0F30E40B6FBF0F31693002F26
:10F490001CBF208910F4004F6BD04EA2102126A86B
:10F4A00016F076FB18A80B9026A811901020129049
:10F4B00006AA1A2128460BF06BFE41F6FF70BDF933
:10F4C0007210CDE9001000270297BDF9743003A82F
:10F4D000189A119918F0E0FFBDF90C10BDF814004E
:10F4E00001EBD171A0EB610200EB610001B212B23D
:10F4F000BDF81600ADF89020ADF89410BAF1000FE9
:10F500001FD0A0EB0800BDF80E30ADF89600C01A71
:10F51000ADF892001DE0002F14BFB4F90000B4F95B
:10F5200002000844A1E72A985A460021B0F9780061
:10F5300000902A98B0F9743030460FF0BAFC0346B8
:10F54000A4E74044BDF80E30ADF892001844ADF881
:10F550009600B5F914008142A4BFB5F91800904295
:10F5600010DB009724AA18A9119B2D9808F012FB14
:10F5700008E000200B901190129006AA1A2128464C
:10F580000BF006FEBDF98200BDF9101000EBD07043
:10F5900001EB6002B5F914108A420DDBBDF91410BD
:10F5A000A1EB6001B5F91800884205DB05AB04AAA0
:10F5B00020A92D9808F02CFE06AA1B2128460BF046
:10F5C000E7FD761C5E457FF62CAF2FB0BDE8F08FCF
:10F5D00054910508256400002DE9F74FB0B05FEAAB
:10F5E000020804464FF0000B08BF04F13C0611D09E
:10F5F000B8F1010F08BF04F154060BD0B8F1020FA7
:10F6000008BF04F1480605D0B8F1040F14BF5E46E8
:10F6100004F16006B068C0F30E0101299CBF33B04D
:10F62000BDE8F08F10F4004F01BF308800287088CB
:10F63000002804BF33B0BDE8F08FB8F1000F14BF4D
:10F64000012000202B902046002141F2320212F0CE
:10F6500093FC07462046002141F6100212F08CFC74
:10F660000546204611F02BFEB4F88610484340F3BF
:10F670000F202D90204612F079F80146E08AEA1911
:10F680001044401A00B22E90B8F1000F20464FF4FB
:10F69000C02110D041F6130212F06EFC07B2B4F98B
:10F6A00018002A90B6F900002990B6F902A0B8F126
:10F6B000010F0FD107E041F6120212F05DFC07B214
:10F6C000B4F91400EDE7404200B22990CAF10000FD
:10F6D0000FFA80FA03A808F0A9FD03AA4FF4C0218D
:10F6E000204612F0FAFE18A808F04AFD18AA4FF4B6
:10F6F000C021204612F098FE06A8319911F008FBAF
:10F7000074480790062008900004CDE9130803A868
:10F710000C9018A80B9031897268C1F30E012B98D8
:10F72000491EC2F30E4204EB400001FB02F9002522
:10F730002C90BDF90E102D98401A6843B0FBF9F1DA
:10F740002E98B8F1000F0844ADF88600ADF882009D
:10F750002A98ADF884000CBF401E401CADF8840010
:10F7600070684FF0000BC0F30E40B5FBF0F100FBEA
:10F77000115000281CBFBDF88400A0EB0A006BD01C
:10F78000ADF8800021A80F9020A810902C984A4630
:10F790000021B0F9700000902C98B0F96C30A9EB02
:10F7A00005000FF086FB03461690BBF1000F1CBF4F
:10F7B000308910F4004F5ED047A2102124A816F023
:10F7C000E7F918A80B9024A811901020129006AA0F
:10F7D0001A2120460BF0DCFC41F6FF70BDF97210D7
:10F7E000CDE900104FF0000BCDF808B0BDF9743032
:10F7F00028A8189A119918F04FFEBDF9A210BDF86B
:10F80000820001EBD172A0EB620100EB62002B9A47
:10F8100009B2002A00B2BDF88020ADF88A10ADF818
:10F820008E0020D0D319ADF88830BDF8A0301A442E
:10F830003A44ADF88C20B4F916209042A4BFB4F934
:10F840001A00884220DBCDF800B022AA18A9119B2B
:10F85000319808F09FF917E0BDF8841029984FF00F
:10F86000010B081A8CE7BDF8A030D31ADB1BADF8EA
:10F870008830D21BDDE700200B901190129006AA71
:10F880001A2120460BF084FCBDF90E00BDF986104C
:10F8900000EBD070B4F9162001EB600191420DDB52
:10F8A000BDF98210A1EB6000B4F91A10814205DBAA
:10F8B00020AB21AA03A9319808F0AAFC06AA1B21B3
:10F8C00020460BF065FC6D1C4D457FF632AF33B022
:10F8D000BDE8F08F54910508256400002DE9FF5F15
:10F8E0000C469B4605462021DDF838A012F097FC17
:10F8F00000287DD0BAF1030F284623D011F02FFF46
:10F9000081460DF015FB002780463E46BAF1030FF5
:10F9100039461AD041F61002284612F02DFB0FFA94
:10F9200080FA002141F61102284612F025FB00B2B0
:10F93000B9F1010F64D0B9F1020F67D0B9F1030F2B
:10F9400041D068E011F004FFDAE741F612022846E0
:10F9500012F012FB0FFA80FA002141F6130228463A
:10F9600012F00AFB00B2B9F1010F20D0B9F1020F79
:10F9700023D0B9F1030F4ED12A8BA98A521A521CF7
:10F9800012B2A2EB0A02101A00EBD0700AEB600070
:10F99000084407B2B8F81800B8F81410401A401C10
:10F9A00000B200EBD07001EB600006B233E0A88A31
:10F9B000B8F91460504407B22DE0298BB8F91860EB
:10F9C000081A07B227E06A8BE98A521A521C12B24F
:10F9D000A2EB0A02101A00EBD0700AEB6000084498
:10F9E00007B2B8F81A00B8F81610401A401C00E028
:10F9F00037E000B200EBD07001EB600006B20AE025
:10FA0000E88AB8F91660504407B204E0698BB8F987
:10FA10001A60081A07B2A01E00B2BBF1000F12DA7A
:10FA2000B9F1000F18BFBE4225DC002CB8BF044658
:10FA3000002C01DDA01C04B2E01704EB907004B0B0
:10FA40008010BDE8F09F0299002914DAB9F1000F87
:10FA500018BFBE420FDB002CB8BF0446002CEBDD04
:10FA6000E8E71BEB040F44BFCBF1000004B202989F
:10FA7000001B48BF029C204604B0BDE8F09F2DE962
:10FA8000F04104460DF044FA68B100688268002A2B
:10FA90001CBF217A9047207E10F0020F73D110F026
:10FAA000010F40F0B880606801270026806820B10F
:10FAB000817E002994BF0020C0680025002818BF5F
:10FAC000002F29D0016800291CBF017A31F07F0284
:10FAD00012D0802904D0227A21F0800191420BD1EA
:10FAE0004168E160016820468847207E10F0020FDF
:10FAF00049D110F0010F73D161686D1C28468968E7
:10FB000000291CBF8A7E824291BF0020C96805EB94
:10FB1000450001EB8000D1E76068006818B3016917
:10FB2000002908BF0068F9D0E660026921469047C5
:10FB3000207E012610F0010F18BF00263EB160683C
:10FB4000806828B1817E002988BFC06800D8002065
:10FB5000002570B3002E61D00168D1B1017A31F077
:10FB60007F0202D015E00126E8E700291CBF227AB7
:10FB700091420ED14168E160016820468847207EAD
:10FB800010F0020F02D00120BDE8F08110F0010F4B
:10FB900041D161686D1C2846896800291CBF8A7E96
:10FBA000824291BF0020C96805EB450001EB80004F
:10FBB000CFE7B6B16068416899B1217E11F0040FBA
:10FBC0002CD1217A232918BF24291BD04FF480413E
:10FBD00012F025FB28B1207A11381C2812D201E03E
:10FBE00019E01BE0DFE800F01A1A1A1A1A1A1A1A9A
:10FBF0001A1A1A0E0E1A0E0E1A1A1A1A0E0E0E0EC5
:10FC00001A1A0E1A6068406860602046FFF737FFD6
:10FC10000646012802D00020BDE8F0813046BDE84C
:10FC2000F08182B0CDE9000121F0004001909DED0E
:10FC3000000B02B051EC100B704770B4DDE903C447
:10FC400089B3050A15F0020F02D01E46234634463A
:10FC500015F0040F02D06646A446344615F0060F90
:10FC600005F0010626D016B11E466346B4468CF850
:10FC700000206FEA010C0CF0FF0C12FB0CFC4FEAA9
:10FC80001C2C84F800C0C0B215F0010F18BF11FB86
:10FC900000F012D06FEA1020C0B212FB00F0000A90
:10FCA000187070BC7047FFE722708CF800201A7043
:10FCB00070BC7047002EDAD1D6E700280FBF0802CB
:10FCC0004042C0B210FB01F0E4E700002DE9FF4F15
:10FCD00085B01746DDE9126589460446DDF850B067
:10FCE000F6F704FFB9F80400B9F80010401A401CF8
:10FCF0000FFA80F8B9F80600B9F80210401A401C53
:10FD00000FFA80F9D5B1BDF82000FD2E00EB004AB6
:10FD1000C0F05A81A8F10400019000200090B9F1D0
:10FD2000000FDCBF09B0BDE8F08FA7EB0800BDF8FD
:10FD30002070ABEB080B02900026B8E0FD2E13D329
:10FD40000025B9F1000FDCBF09B0BDE8F08F4246D5
:10FD50002046089906F098FC6D1C04EB4704A94561
:10FD6000F5DC09B0BDE8F08FBDF80010002060F3AD
:10FD7000020189B260F3C70189B260F30C2189B234
:10FD800060F34F31ADF8001088B20090BDF800006C
:10FD9000009001463246089806F048FD0190089808
:10FDA000002580B2C0F3C4017143ADF808104107CB
:10FDB000890E01EB5031C0F3042071437043ADF85C
:10FDC0000A10ADF80C00C6F1FF02B9F1000FDCBF5C
:10FDD00009B0BDE8F08F0020B8F1000F4CDDBDF890
:10FDE000001034F8103099423ED004EB4001BDF8C9
:10FDF0000A600988ADF80410ADF80010BDF80430B1
:10FE0000BDF80810C3F3C40C0CFB0211DFF854C298
:10FE1000803101FB0CF1BDF810C0C90E61F3C70CB5
:10FE20005907890E01EB533101FB0261803101EB6F
:10FE3000C11606EBC136B60E66F3020C8A4EC3F34A
:10FE400004237143490F61F34F3CBDF80C1003FBD1
:10FE50000211B31080315943C90E61F30C2C1FFA03
:10FE60008CF1ADF810C0019104EB4001BDF80430F5
:10FE7000401C0B804045B2DB6D1C04EB47044D4534
:10FE8000A9DB09B0BDE8F08F2A78FF2A08BF2780D8
:10FE90000AD02088ADF80C000399089806F0C6FC3B
:10FEA0000390BDF80C002080A41C6D1C761C4645F8
:10FEB00002DA15F0030FE7D10198864260DC28686A
:10FEC000B0F1FF3F4AD0002854D02A78FF2A08BF5B
:10FED00027800AD02088ADF80C000399089806F016
:10FEE000A5FC0390BDF80C00208015F8012FA41C80
:10FEF000FF2A08BF27800AD02088ADF80C0003999C
:10FF0000089806F093FC0390BDF80C00208015F8CB
:10FF1000012FA41CFF2A08BF27800AD02088ADF833
:10FF20000C000399089806F081FC0390BDF80C00C2
:10FF3000208015F8012FA41CFF2A08BF27800AD0B3
:10FF40002088ADF80C000399089806F06FFC039028
:10FF5000BDF80C002080A41C6D1C0DE014F0030FF4
:10FF600004BFC4F800A0C4F804A003D02780C4F8DC
:10FF700002A0E78008342D1D0198361D86429EDDC3
:10FF8000464514DA2A78FF2A08BF27800AD020883D
:10FF9000ADF80C000399089806F048FC0390BDF8F2
:10FFA0000C002080A41C6D1C761C4645EADB0298E0
:10FFB0005D4404EB40040098401C00904845FFF667
:10FFC000BBAE09B0BDE8F08F00212288ADF8042057
:10FFD0008A460091B9F1000FC7BFABEB0800029051
:10FFE00009B0BDE8F08F4FF0000BB8F1000F2DDD28
:10FFF000287830B3884206D0FF280EBFB24600FBF7
:020000040801F1
:1000000006F34FEA132A884204BF34F81B008242E9
:1000100012D0BAF1FF0F08BF089809D004EB4B00CB
:1000200052460088ADF804000199089806F0FEFBDE
:100030000190297834F81B2004EB4B00BDF8043004
:1000400003806D1C0BF1010BC345D1DB029804EB5F
:10005000470405440098401C00904845C3DB09B0A4
:10006000BDE8F08F100808004020200000680968F3
:1000700088420CBF01200020704740680A6820F0C9
:100080004040904238BF0860002070472DE9FF5F74
:10009000044611F05DFBB0F1000B04BF04B0BDE8F5
:1000A000F09F41F6FF75002141F61202204611F043
:1000B00063FF0FFA80F8002141F61302204611F089
:1000C0005BFF0FFA80F9204611F08FF85FEA000A13
:1000D0004FF000075ED0A0683149006850F82760F3
:1000E000304612F0A3F800284BD14FF4805130462F
:1000F00012F095F8002844D0BBF1010F06D0BBF1F7
:10010000020F08D0BBF1030F0CD03AE0A08AB6F979
:100110001410404404E0208BB6F91810A0EB09003D
:1001200000B218E0308BB18A228B401A401C00B21A
:1001300000EBD07001EB600001B2A08A121A521CD1
:1001400012B2A2EB0802A2EB090202EBD27208EB98
:100150006202104400B2039A1144019A09B291421A
:10016000A4BF029A8A420CDB081A00B20028CCBF56
:1001700001464142002DCCBF2A466A429142B8BF97
:1001800005467F1C5745A6D3A5F5F850FF3818BF84
:10019000684200D1002004B000B2BDE8F09F00002A
:1001A000010004002DE9FF5F044611F0D8FAB0F118
:1001B000000B04BF04B0BDE8F09F41F6FF750021BD
:1001C00041F61002204611F0D7FE0FFA80F8002108
:1001D00041F61102204611F0CFFE0FFA80F92046B9
:1001E00011F003F85FEA000A4FF000075ED0A06844
:1001F0003149006850F82760304612F017F800289F
:100200004BD14FF48051304612F009F8002844D009
:10021000BBF1010F06D0BBF1020F08D0BBF1030FF9
:100220000CD03AE0E08AB6F91610404404E0608B46
:10023000B6F91A10A0EB090000B218E0708BF18A31
:10024000628B401A401C00B200EBD07001EB6000E2
:1002500001B2E08A121A521C12B2A2EB0802A2EBFF
:10026000090202EBD27208EB6202104400B2039A58
:100270001144019A09B29142A4BF029A8A420CDB4E
:10028000081A00B20028CCBF01464142002DCCBF65
:100290002A466A429142B8BF05467F1C5745A6D3FD
:1002A000A5F5F850FF3818BF684200D1002004B00F
:1002B00000B2BDE8F09F0000010004002DE9FF4FEF
:1002C00081B08846DDE90EB4002141F201020198B7
:1002D00011F052FE05B2002141F20402019811F022
:1002E0004BFE01B298F8030010F0020F0DD010F091
:1002F000010F42F2D17202D0954202D009E0914240
:1003000009D120F0020088F80300C0B210F0010FFC
:1003100001D0814800E08148009098F8030010F077
:10032000010F0CBFDFF8F0A1DFF8F0A10027678014
:10033000A78027612780A760E760039D0198294671
:1003400010F040FF06007DD00398854206D04FF4A0
:100350000001304611F063FF002873D17049304628
:1003600011F064FF00286ED16E48002102893046EA
:1003700011F002FE10F0FF096FD02069401C2061CF
:10038000A1885944A180217D11F0010F77D000EBA5
:10039000800080000EF0D8FD07007DD0E16851B1EB
:1003A0002069401E00EB8000820038460EF0C6FE39
:1003B000E0680EF039FE20694FF0000100EB80008C
:1003C00007EB800040F8146C98F8030010F0010F60
:1003D00006D041F20202304611F0CEFD00B205E037
:1003E00041F20502304611F0C7FD00B2216901EB70
:1003F000810107EB810121F8100C98F803004FF000
:10040000000110F0010F06D041F20302304611F056
:10041000B3FD00B205E041F20602304611F0ACFD3A
:1004200000B2216901EB810107EB810121F80E0C7B
:100430002069002100EB800007EB800040F8089C59
:10044000206902E03BE029E007E000EB800007EBD9
:10045000800040F8041CE76011E0009930468847AE
:1004600098F8031011F0020F05D0B4F904100A181F
:1004700004998A4223DCA18858440844A08030466D
:10048000D0470146B4F900008142C4BF3046D0478E
:100490002080A068401C00E03AE0A06098F80300CB
:1004A00010F0040F14BF4FF0FF300120451906D49F
:1004B0002946019810F086FE06007FF445AFB4F996
:1004C00004000028C4BFA0EB0B00A0802069002816
:1004D00014BF0498B4F904006080CEB1039885423B
:1004E00016D101988068016851F8256098F80310CA
:1004F000C1F38001002914BF6D1E6D1C46B130464A
:10050000D047208000993046884760800120A06055
:1005100005B02846BDE8F08F47210208AB1302085A
:1005200001000600240200202DE9F04FC94D93B0D0
:10053000044600212A8811F01FFD012121EA000252
:100540009DF8171062F30001820862F34101C008B0
:1005500060F382018DF8171000216A88204611F09F
:100560000BFD8DF814000021AA88204611F004FD2F
:100570008DF815000021EA88204611F0FDFC8DF869
:100580001600002141F26A42204611F0F5FCC0B28B
:1005900001280CBF4FF0010A4FF0000A9DF8170028
:1005A0004FF0000110F0010F14D041F61402204664
:1005B00011F0E2FC06B29DF817004FF0000110F0B8
:1005C000010F0ED041F61502204611F0D5FC0FFAAE
:1005D00080F90DE041F61502204611F0CDFC06B27F
:1005E000E9E741F61402204611F0C6FC0FFA80F943
:1005F0009DF8170010F0010F204602D010F07FFE8A
:1006000001E010F05CFE0C90002141F23202204625
:1006100011F0B2FC0546002141F61002204611F00F
:10062000ABFCE18A28444718204611F0AFF8381A8D
:10063000ADF83400002141F61202204611F09CFC76
:10064000A18A28444518204611F098F8281AADF8D8
:100650003C009DF817009DF8168010F0010F14BFA4
:100660000DAD0FAD002141F20102204611F084FCD6
:1006700000B21190002141F20402204611F07CFCEE
:1006800000B210909DF8170010F0010F0BD01099D8
:10069000A1F51C52D13A04BF618C11F4007F0BD03C
:1006A00010F0010F0AD11199A1F51C52D13A04BFE3
:1006B000618C11F4806F01D14FF00008BAF1000F86
:1006C0000DD010F0010F0AD1B8F1000F08BF4FF0A4
:1006D000010804D0B8F1010F08BF4FF0000800274F
:1006E000ADF83870BB46B8F1000F3CD09DF817004C
:1006F00010F0040F08BF002215D0A0684068421E09
:1007000011E000200B9006A8CDE9009005A9204635
:100710000C9BFFF7D3FDBDF81810BA1911440FB2A6
:1007200002460BF1010BA0684068824201DA002A00
:10073000E7DABBF1000F1CBFB81B07B29DF817002A
:1007400010F0010F204602D010F0B9FD01E010F0CA
:10075000D6FD0EA9CDE9005101460FFA8BF33A46BA
:10076000404619F0ADFB9DF8170010F0040F08BFCC
:100770004FF0000803D0A1684968A1F10108BAF15F
:10078000000F05D010F0010F02D1288838442880CE
:100790000DF1180BA0684068804548DAB8F1000FE9
:1007A00045DB01200B90CDE9009B424605A9204680
:1007B0000C9BFFF783FD0746BAF1000F09D09DF8A7
:1007C000170010F0010F04D12888BDF81810401A46
:1007D00028800C98BDF93410CDE90110CDE9039BB8
:1007E000BDF93C0000903B46424605A92046F7F77C
:1007F000A7FDB84609980EF017FC00200990BAF141
:10080000000F04D09DF8170010F0010F09D02888C0
:10081000BDF818100844BDF8381031440844288049
:10082000B8E7BDF8381028883144401AF7E7119925
:1008300042F2D170814219BF10998142204612F0D4
:1008400077FB00222B2120460AF0A2FC13B0BDE862
:10085000F08F0000240200202DE9F05F0546007EA5
:1008600092468B4610F0010F18BFBDE8F09F00269E
:100870004FF00108EC68C14694B9287EC0F3C0006F
:10088000401E304218BFBDE8F09FB9F1000F08BF0D
:10089000BDE8F09F2846D8474FF000080446C146FF
:1008A000002E04BFB4F10006BDE8F09FB8F1000FC0
:1008B00007D021462846D0470446B04208BFBDE8CD
:1008C000F09F4FF00108002CD6D0206811F052FBA9
:1008D00010F0800FD0D127685FB10121384611F0A8
:1008E0009EFCD0B32FB10121384611F098FC0028AE
:1008F000C2D1E868A04208BFBDE8F09F88B1284691
:1009000000F045FAE96802460B680F2118460AF024
:100910003FFC012818BFBDE8F09FE868006811F0AF
:10092000C4FF2846EC6000F032FAE96802460B6822
:100930000E2118460AF02CFC012818BFBDE8F09FD4
:10094000E868006811F0B1FF2969002908BFBDE817
:10095000F09F2846BDE8F05F0847FFE7384610F0F3
:100960007DFD0700B9D1C4E703490A8812F0400FA2
:10097000FBD0C2B28A807047001001402DE9F34FCE
:1009800087B0054602A910F0DAFC284611F0DBFB1F
:100990000490284610F009FD0590002141F612024E
:1009A000284611F0E9FA07B2002141F61302284661
:1009B00011F0E2FA0FFA80F8002141F61002284601
:1009C00011F0DAFA06B2002141F61102284611F0C0
:1009D000D3FA0FFA80F9002141F61402284611F0EB
:1009E000CBFA04B2002141F61502284611F0C4FAF0
:1009F00004F0010104EBD47201EB6201491C00B266
:100A00000FFA81FA00F0010100EBD07001EB6000F9
:100A1000401C0FFA80FBBAF1120FA8BF4FF0120A68
:100A2000BBF1120FA8BF4FF0120BB8F1120FA8BF05
:100A30004FF01208122EA8BF1226B9F1120FA8BF4C
:100A40004FF012090024288E002879D90498A0EBD1
:100A50000800801E04900598A0EB0900801E0590F8
:100A6000A86A00EBC400B0F90030ADF80030B0F96E
:100A70000220ADF80220B0F90410ADF80410B0F96E
:100A80000600ADF806009F4217DBBDF908E0122F03
:100A9000B4BFBC464FF0120CAEEB0C0C6344ADF887
:100AA000003096421EDBBDF90AC0122EB4BF334699
:100AB0001223ACEB03031A4405E0BDF808C0ACEB0D
:100AC0000B0C6344EBE7ADF80220049A91421EDB65
:100AD000BDF90820B8F1120F0A44B4BF41461221F3
:100AE000114405E0BDF80A30A3EB0A031A44EAE713
:100AF000ADF804100599884218DBBDF90A10B9F168
:100B0000120F0144B4BF48461220084404E0BDF867
:100B1000082011445944EBE7ADF80600002268466E
:100B20000899F4F7F9FA00B905E009E0BDF80A10F0
:100B300008445044F0E7601C84B2288EA0428FD84D
:100B4000288EA04208BF4FF6FF74204609B0BDE8CA
:100B5000F08F2DE9F05F91468A460446002141F668
:100B6000120211F009FA06B2002141F613022046E2
:100B700011F002FA0FFA80F8002141F61002204627
:100B800011F0FAF905B2002141F61102204611F0E8
:100B9000F3F907B2204611F0D6FA801BA0EB080B40
:100BA000204610F002FC401BC01B8345204605DA9E
:100BB00011F0C9FA801BA0EB080003E010F0F5FB70
:100BC000401BC01B00EBD070401000B2A18A8219FC
:100BD0001144AAF80010E18A42191144AAF802103F
:100BE000B9F1000F18BFA9F80000BDE8F09F0000A0
:100BF000002904BF002070472DE9F04705690E4623
:100C000082B0696931B10868B04202BF486802B079
:100C1000BDE8F08700226C8AE005C00D1CBF0427E8
:100C2000AB6810D002EB820053F820C007EB8000C5
:100C3000185AA6EB0C0C60450ED2501C82B2C4F3BD
:100C400008008242EED319B10E6069690020486045
:100C500002B00020BDE8F08702EB8204122000EB16
:100C600084000027185C4FF0060802280BD04FF0D4
:100C70000C0970B12B4A08214FF0100A032812D03A
:100C8000012828D044E008EB8400185A00EB0C0738
:100C90003EE009EB840008EB84011858595A10F81B
:100CA0000C000F1834E0ADF804C000920AEB840089
:100CB00001EB84091A5A53F80910022301A8F6F728
:100CC0002EF928B3A96851F80920801A08EB84028C
:100CD0004010895A1BE00AEB8400ADF804C0009272
:100CE00001EB840A1A5A53F80A10022301A8F6F7F6
:100CF00016F968B1A96808EB840351F80A20801A34
:100D000009EB840240108A58C95A32F810000F18B3
:100D1000686910B106606869476002B03846BDE88E
:100D2000F0870000E5DE02082DE9F0410546406A43
:100D30000E46002808BF002403D0002110F042FA1C
:100D40000446002C04BF0020BDE8F081E08A0021A9
:100D5000371A41F25942204611F00EF90689002156
:100D600041F25B42204611F007F900B200EBD0716E
:100D700007EB6101304409B200B291FBF0F0A98E9B
:100D800080B281429CBF481E80B2BDE8F0812DE94F
:100D9000F04100260746354630460CF0BFF8040007
:100DA00019D00CF0F7F8216DB94205D1022817D0FF
:100DB000042808BF2646254620460CF0AFF804005C
:100DC000EFD1002E1CBF3046BDE8F081002D1CBFC6
:100DD0002846BDE8F0810020BDE8F0410CF09EB847
:100DE0002046BDE8F0812DE9F05F0C4683460021E6
:100DF0004FF40562204611F0BFF800B200EBD0704E
:100E000045084FF4403141F61202204611F0B4F883
:100E100082464FF4403141F61302204611F0ACF8FF
:100E200081464FF4403141F61002204611F0A4F8FB
:100E300080464FF4403141F61102204611F09CF8F3
:100E40000246A08A218D638D0844411BA1EB0A0153
:100E500061F30F06E18A19444B1BA3EB090363F30B
:100E60001F4605EB0803184460F30F07A818084451
:100E700060F31F47CBF80060CBF80470BDE8F09F2B
:100E80002DE9F84F144688461F4605464FF40031B9
:100E90004FF4056211F070F800B200EBD07046100C
:100EA000A01B0FFA80FAA88EAC8C10F0060F15D09C
:100EB000C0F3410002280DD0012812D1B5F930103D
:100EC000B5F93200084400EBD070B5F92E1040108F
:100ED000814203DAE88C204484B202E0288D204469
:100EE00084B204F15A0000B217F0A6FA10FB0AF01F
:100EF0004FEAE03920B217F09FFA10FB0AF0C41352
:100F00004FF4403141F61202284611F035F80090B6
:100F10004FF4403141F61302284611F02DF8834674
:100F20004FF4403141F61002284611F025F8824670
:100F30004FF4403141F61102284611F01DF8B8F87F
:100F40000010304401EB09020099511A891B3980C5
:100F5000B8F800100BEB060249441144B980B8F808
:100F600002102144A1EB0A01891B7980B8F8021014
:100F700021440844F880BDE8F88F0000491E44BFB2
:100F8000401E0C310C29A4BF401C0C39012913D080
:100F9000164B08460022C3FB01208210A2EBE07032
:100FA000A0EBC000084400EBD0714910A0EB410059
:100FB000C0F11F00C0B2704710F0030F10D10C49F0
:100FC000A1FB002149096FF01802514310EB810188
:100FD00009D14FF4C871B0FBF1F201FB120010B15E
:100FE00000201C30E6E70120FBE700009324499233
:100FF0001F85EB512DE9F0478146012020EA0206CA
:10100000C9F15A001D460F46540800B217F014FAF1
:10101000A7EB040800FB08F0C711484617F00CFACC
:1010200000FB08F0C011002F07DDA7F17F010912B6
:101030000A1B32442A80214406E007F17F0109128D
:101040000A1B21442A80891BA980002806DD7F38DD
:101050000012011B31446980204405E07F300012FA
:10106000011B20446980801BE880BDE8F0872DE9E2
:10107000FF4F87B08046808CDDF85CC041438EB264
:101080000999DDF860B0DDE9153209890025614470
:1010900059443044B2460FB2B04265D99818059011
:1010A0000CEB0B004FF002090490D8F8282052F8FE
:1010B000261000294FD0D8F830C0B8F824300024CA
:1010C0003CF915005B1E9D4219DA06EB040E52F83E
:1010D0002EE0BEF1000F1CBF9EF800E01EF0010FD5
:1010E0000DD005EB040E09EB4E0E3CF80EE0641C2F
:1010F0007044A4B204EB050E00B27345E5DC002297
:10110000002918BF0A7812F0020F0AD0099817991F
:10111000B0F9080008445844B842C8BF07463FB277
:1011200019E0059A149B801A00B200220093CDE9C1
:101130000102DDE9092303A8491C17F0ADF9BDF947
:101140000E1004980844B842C8BF07463FB2301991
:1011500086B2281985B2701C86B2681C85B2B8F8B0
:1011600024005044B042A0D80BB03846BDE8F08F00
:10117000F0B50D4683B00446002141F2594210F00B
:10118000FBFE06464FF4802141F25942204610F002
:10119000F3FEB0F90870B6F90860002141F25B4235
:1011A000204610F0E9FE0146B81900EBD07001EBC3
:1011B000600006B2204610F0F8F8E18A00EBD0702B
:1011C00001EB600006EBD671A0EB61006880304453
:1011D000E8806946204610F0B2F8BDF8000028808B
:1011E000BDF80400A88003B0F0BD2DE9F04104462D
:1011F0000D46668C0020C6F3C501E368002988BF50
:101200004FF0040C0CD90CEBC0029A5812F0007F7E
:1012100003D022F07F42AA4202D0401C8142F2D881
:1012200081421CBF03EBC000BDE8F0814FF080603D
:1012300000EB76204FEAF0506084C0F3C500C10097
:1012400018460DF045FFE060608CC0F3C500401EFD
:1012500018BF6FF007010BD0E26801EBC00C02EB86
:10126000C0036244401ED2E900C2C3E900C2F3D108
:101270000821E0680EF080F808200DF02FFEE168EC
:10128000086014F06EFFE168486840F00070486044
:10129000E16865F317004860E068BDE8F081000090
:1012A00038B510480D46144690F820004FF0020162
:1012B00010F0010F4FF0120009D013F02FF8224662
:1012C000294605F03FFB0090BDF8000038BD13F043
:1012D0003DF82246294605F035FB0090BDF8000098
:1012E00038BD0000888400202DE9F0070026DDE9E4
:1012F0000745DDE909C8B146671EE9B9052A1CBFE3
:10130000062A042A03D10023012C08BF0122002150
:10131000002C07D935F811A01E445644491C36B29A
:101320008C42F7D8F11A09B2072A2FD2DFE802F06F
:1013300004070E2E25191000ACF8009026E0411A83
:1013400001EBD1714910ACF800101FE0411A11E017
:10135000411A09B23AB291FBF2F1ACF800900BB22B
:1013600014E0411A09B222B291FBF2F10BB203EB85
:10137000D3714910ACF8001008E0411A621C09B2A0
:1013800012B291FBF2F10BB2ACF800300021002F49
:101390000BD93CF8112035F8116032440CEB4106B2
:1013A0001A44491C72808F42F3D80CEB440105EBC0
:1013B000440231F8021C32F8022C1144BCF800201F
:1013C000891A0BB2B8F1000F1CBF0021002C0AD9FA
:1013D0003CF8112035F81160821A921B2CF811206C
:1013E000491C8C42F4D8BDE8F0071846704700004D
:1013F0002DE9F04FFF4E8FB005460021328810F0E6
:10140000BBFD044628460021B28810F0B5FD002C33
:1014100012BF00280FB0BDE8F08F08A92846F6F7E4
:101420004BFC0C2168460DF0A7FF002141F232026F
:10143000284610F0A1FD0446002141F6120228467C
:1014400010F09AFD0719002141F61002284610F00D
:1014500093FD0444284610F091F9A98A3944081AEA
:10146000ADF80800284610F091F9E98A4FF000091C
:101470002144081AADF80A00A8684068002840F224
:10148000A081A868DC49006850F82940204610F087
:10149000CDFE002840F08E81D64E20460021728974
:1014A00010F06AFDC0B2059020460021328A10F08B
:1014B00063FD10F0FF0003901CBF0598002800F0AA
:1014C0007981CC4A20460021128910F055FDC94A85
:1014D0000FFA80FA0AF0FF0820460021D28910F0A6
:1014E0004BFDC44A0FFA80FB0BF0FF07204600219A
:1014F000928910F041FDBF4AC6B220460021528AAF
:1015000010F03AFDC0B206900898034630F8182053
:10151000059850FA8AF16FF0010000EB41015B5A27
:10152000059951FA8AF1DDF828C000EB41013CF839
:1015300001101944891A09B204910999039A31F8E2
:10154000171052FA8BF2099B00EB42029B5A039A46
:1015500052FA8BF2DDF82CC000EB420041F26A42F5
:101560003CF800001844401A00B2039000212046C5
:1015700010F002FDC0B2012806D1002E08BF0226DD
:1015800002D0022E08BF0026208BA18A401A401CE0
:101590000FFA80FB608BE18A401A401C0FFA80FA38
:1015A000012E11D0022E20D00898032E30F9188079
:1015B00008BFDDF810B0608C0EBF40F4806020F4EE
:1015C000806060841FD01FE008990498A0EB0B0096
:1015D00031F8181000EBD07001EB60000FFA80F8C2
:1015E000608C20F4806060840EE0204610F0ABFD3B
:1015F000089931F8182004991144081A0FFA80F854
:10160000608C20F4806060840698012811D0022844
:101610001FD00328099830F9177008BFDDF80CA017
:10162000608C0EBF40F4007020F4007060841DD008
:101630001DE009990398A0EB0A0031F8171000EBA0
:10164000D07001EB600007B2608C20F40070608401
:101650000DE020460FF0A9FE099931F817200399F3
:101660001144081A07B2608C20F400706084204690
:1016700010F069FD584504D120460FF096FE504504
:1016800027D0A08AADF81000E08AADF81200208BB8
:10169000ADF81400608BADF81600204611F005F986
:1016A000594604F1140002F04AFB514604F11400BB
:1016B00002F040FB204611F0F8F804AA2921204648
:1016C00009F066FD20460FF0C9FE2246222109F0EE
:1016D0005FFD002143F20C02204610F04DFC0FFA92
:1016E00080FA002143F20D02204610F045FC06B2BC
:1016F000204610F028FD834620460FF056FE014696
:101700000AF4C040B0F5005F13D12AF4C040B0F530
:10171000FA6F0EDCB0F57A7FC8BFC0F57A7000FBB7
:101720000BF2364880FB02204211A2EBE0700FFA68
:1017300080FA06F4C040B0F5005F11D126F4C04035
:10174000B0F5FA6F0CDCB0F57A7FC8BFC0F57A70DF
:1017500041432A4880FB01104111A1EBE07006B221
:10176000BDF8082008EB0A001044A28AB919801AB3
:1017700007B2BDF80A000844E18A401A06B257EAE7
:10178000060017D0204611F090F8A08A3844A082B5
:10179000208B38442083E08A3044E082608B3044E0
:1017A0006083204611F081F80123324639462046F5
:1017B00011F031F9A86809F10109406848453FF680
:1017C00060AE08980DF030FC09980DF02DFC0A98D9
:1017D0000DF02AFC0B980DF027FC002141F20102CC
:1017E000284610F0C9FB04B2002141F20402284649
:1017F00006E0000034020020010006001F85EB51C6
:1018000010F0BAFB42F2D17100B28C4212BF884292
:10181000284611F08DFB00222B21284609F0B8FC48
:101820000FB0BDE8F08F000010B5064C60680EF0F8
:10183000A5FF20690EF0A2FF6069BDE810400EF020
:101840009DBF00002001002038B505F0C3FE05F063
:1018500009FF0AF087FC254C254960600BF05CFA13
:1018600000231A46092160680EF0EEFA05F0B2FE78
:1018700005F0F8FE0CF072F94FF6FF752061ADF837
:1018800000502946002212F079FC0022FF21206935
:1018900012F087FC00221749206912F07CFC3C23DF
:1018A0000022022120690EF0CFFA05F093FE05F028
:1018B000D9FE0CF053F96061ADF80050A9B20022D6
:1018C00012F05CFC0022FF21606912F06AFC002229
:1018D0000949606912F05FFC606901B01C23BDE832
:1018E0003040002202210EF0AFBA0000200100209B
:1018F00010FC040848B907086001002070B592B0D8
:1019000005F068FE05F0AEFE0DF0EAF93F4C02224C
:1019100004F12001A0600DF0C1FA00220A21A068A4
:1019200012F015FCF8200025ADF8400001462A46CB
:10193000A06812F0F6FB00220121A06812F002FC60
:10194000684601F0AFFBA06800903148069031482E
:101950000190FF20CDE9085041F28830CDE90A0519
:101960000795ADF83C50684601F078FC05F032FE72
:1019700005F078FE0CF0F2F827A1E0600CF0E6FF2D
:101980000121E0680CF0D4FF00222849E06812F041
:1019900002FC4FF6FF70ADF840000146FF26002222
:1019A000E06812F0EBFB6FF01D0300220921E068F4
:1019B0000EF04AFA684601F075FBE06800901448A2
:1019C00006901B4801901B48039041F28830CDE9F6
:1019D0000A05CDE908560795ADF83C50684601F078
:1019E0003DFC01211448EFF7D8FB207820B116F018
:1019F000E7FA20780028FAD1E0680EF0BFFEA06870
:101A00000EF0BCFE0120207012B070BD200100203D
:101A1000D930010895AB02082366666666666620C3
:101A20004C574A2D434C4F434B230000D8C1060866
:101A30008DAB0208ADAB02080000024070B5F0F7B4
:101A4000E3FD534CA0804420F0F78EFE04F19C018E
:101A5000081FEFF765FAB4F90420B2F5A87F01DC9E
:101A6000162A03DC4BA1E06A0CF0ACFFB4F90420A9
:101A7000A2F117002C2803D848A1E06A0CF0A2FFBD
:101A8000B4F90420A2F144002B2803D845A1E06A50
:101A90000CF098FFB4F90420A2F170002C2803D8B0
:101AA00042A1E06A0CF08EFFB4F90420A2F19D007F
:101AB0002D2803D83FA1E06A0CF084FFB4F904207C
:101AC000A2F1CB002C2803D83CA1E06A0CF07AFFED
:101AD000B4F90420A2F1F8002B2803D839A1E06A58
:101AE0000CF070FFB4F90420A2F592702C2803D8F2
:101AF00036A1E06A0CF066FFA0684FF6FF71B0FBFC
:101B0000F1F201FB120233A1206A0CF05BFF2523E6
:101B1000A27831A1606A0CF055FF314DF0EE080A51
:101B200030A195ED000A30EE600ABDEEC00A10EE5D
:101B3000100A42B220690CF045FF95ED010A2523F9
:101B400025A1BDEEC00A10EE100A42B260690CF089
:101B500039FF94ED260A2549BDEEC00A10EE100AA1
:101B600081FB00104111A1EBE07221A1A0690CF0F2
:101B700029FFD4F89C001DF0D1F841EC100BE0696E
:101B8000BDE8704053EC102B1BA10CF01BBF0000F4
:101B90003C0000202564C2B04E0000002564C2B0A5
:101BA000454E00002564C2B0450000002564C2B067
:101BB000455300002564C2B0530000002564C2B044
:101BC000575300002564C2B0570000002564C2B01E
:101BD000574E0000256400002564256300000000C6
:101BE000080000202564C2B0000000001F85EB51F2
:101BF0002564206870610000252E3166206D00008C
